:020000040800F2
:10000000A04601200D0300080F0F0008070F00088D
:100010000B0F000869050008071B0008000000001E
:100020000000000000000000000000004D02000879
:100030005D0D000800000000A9020008AD120008D4
:1000400027030008270300082703000827030008E8
:100050002703000827030008270300085F0D000896
:10006000270300082703000827030008E109000808
:1000700027030008270300082703000827030008B8
:1000800027030008270300082703000827030008A8
:100090006D05000827030008270300082703000850
:1000A0002703000827030008270300082703000888
:1000B0002703000827030008491400082703000845
:1000C0002703000827030008270300082703000868
:1000D000270300082703000827030008011700086A
:1000E0002703000827030008270300082703000848
:1000F0002703000827030008270300082703000838
:100100002703000827030008270300082703000827
:100110002703000827030008270300082703000817
:100120002703000827030008270300082703000807
:1001300027030008270300082703000827030008F7
:1001400027030008270300082703000827030008E7
:100150002703000827030008090A0008C117000840
:1001600027030008270300082703000827030008C7
:1001700027030008270300082703000800000000E9
:100180002703000827030008270300089516000826
:100190002703000827030008270300082703000897
:1001A00000000000000000002703000800F002F833
:1001B00000F03CF80AA090E8000C82448344AAF1C5
:1001C0000107DA4501D100F031F8AFF2090EBAE8C3
:1001D0000F0013F0010F18BFFB1A43F0010318477B
:1001E000A0610000C0610000103A24BF78C878C147
:1001F000FAD8520724BF30C830C144BF04680C602D
:10020000704700000023002400250026103A28BF74
:1002100078C1FBD8520728BF30C148BF0B60704778
:100220001FB506F00DF81FBD10B510BD00F06EF93A
:100230001146FFF7F5FF02F019FE00F08CF903B448
:10024000FFF7F2FF03BC02F0F3F800002C4B196833
:100250000868B0E8F04F80F30988BFF36F8F4FF064
:10026000000080F311887047000000000848006813
:10027000006880F308884FF0000080F3148862B6AD
:1002800061B6BFF34F8FBFF36F8F00DF00BF00BFBA
:1002900008ED00E0DFF80C00016841F47001016036
:1002A000704700BF88ED00E0EFF30980BFF36F8F68
:1002B000134B1A681EF0100F08BF20ED108A20E9BA
:1002C000F04F106009B44FF0500080F31188BFF375
:1002D0004F8FBFF36F8F04F0C5FC4FF0000080F329
:1002E000118809BC19680868B0E8F04F1EF0100FBB
:1002F00008BFB0EC108A80F30988BFF36F8F704796
:1003000068000020EFF3058070470000094880472F
:1003100009480047FEE7FEE7FEE7FEE7FEE7FEE7E7
:10032000FEE7FEE7FEE7FEE704480549054A064BFF
:1003300070470000BD120008AD010008A032012086
:10034000A0460120A0420120A04201207047032ABC
:1003500040F2308010F0030C00F0158011F8013BE2
:10036000BCF1020F624498BF11F801CB00F8013BC9
:1003700038BF11F8013BA2F1040298BF00F801CB8D
:1003800038BF00F8013B11F0030300F02580083A64
:10039000C0F0088051F8043B083A51F804CBA0E8BB
:1003A0000810F5E7121D5CBF51F8043B40F8043B10
:1003B000AFF30080D20724BF11F8013B11F801CB45
:1003C00048BF11F8012B24BF00F8013B00F801CB16
:1003D00048BF00F8012B704710B5203AC0F00B80E1
:1003E000B1E81850203AA0E81850B1E81850A0E839
:1003F0001850BFF4F5AF5FEA027C24BFB1E8185093
:10040000A0E8185044BF18C918C0BDE810405FEA02
:10041000827C24BF51F8043B40F8043B08BF70477E
:10042000D20728BF31F8023B48BF11F8012B28BF83
:1004300020F8023B48BF00F8012B704702F0FF0391
:1004400043EA032242EA024200F002B84FF00002FF
:100450000429C0F0128010F0030C00F01B80CCF1D6
:10046000040CBCF1020F18BF00F8012BA8BF20F844
:10047000022BA1EB0C0100F00DB85FEAC17C24BF98
:1004800000F8012B00F8012B48BF00F8012B704742
:100490004FF0000200B5134694469646203922BF1D
:1004A000A0E80C50A0E80C50B1F12001BFF4F7AF68
:1004B000090728BFA0E80C5048BF0CC05DF804EB4A
:1004C000890028BF40F8042B08BF704748BF20F8B8
:1004D000022B11F0804F18BF00F8012B70477047B6
:1004E00070477047704710B500F008F8006810BDFD
:1004F00010B5044600F002F8046010BD00487047D3
:100500003C320120004870473C3201207546FFF71D
:10051000F9FFAE4605006946534620F007008546C0
:1005200018B020B5FFF700FFBDE820404FF00006EF
:100530004FF000074FF000084FF0000B21F00701CB
:10054000AC46ACE8C009ACE8C009ACE8C009ACE80E
:10055000C0098D46704710B50446AFF300802046B1
:10056000BDE81040FFF76BBE00BFFEE710B5084ABC
:100570000021084800F029F905480068A0F205208C
:1005800020B90349044802F00BFC00BF00BF10BDB6
:10059000DC00002000640040F000002010B50021C5
:1005A000837A012202FA03F13D4A126842F0010205
:1005B0003B4B1A603A4A1C3212688A43384B1C3350
:1005C0001A60027BCAB9364A0C3212688A43344B2D
:1005D0000C331A604288C38842EA0343304A4032EF
:1005E000847A42F834300288838842EA03432C4AF2
:1005F0004032847A02EBC4025360027B012A19D193
:10060000274A0C3212680A43254B0C331A60428881
:10061000038842EA0343224A4032847A42F8343063
:10062000C288838842EA03431D4A4032847A02EB3F
:10063000C4025360C27A3AB9194A121D12688A4339
:10064000174B1B1D1A6006E0154A121D12680A435B
:10065000134B1B1D1A60028932B9114A14321268F9
:100660008A430F4B14331A600289012A06D10C4ABF
:10067000143212680A430A4B14331A60427B012A6F
:1006800006D1074A1C3212680A43054B1C331A6014
:10069000034A126822F00102014B1A6010BD0000EB
:1006A000006600401AB143690B43436102E04369AD
:1006B0008B434361704730B5024600200023146825
:1006C00024F002041460146844F00104146000E093
:1006D0005B1C546804F001041CB94FF6FF74A3427C
:1006E000F6D1546804F001040CB900206CE08C7958
:1006F000012C04D1146844F08004146003E01468F1
:1007000024F080041460CC79012C04D1146844F0E6
:100710004004146003E0146824F0400414600C7A70
:10072000012C04D1146844F02004146003E0146820
:1007300024F0200414604C7A012C04D1146844F095
:100740001004146003E0146824F0100414608C7A20
:10075000012C04D1146844F00804146003E0146808
:1007600024F008041460CC7A012C04D1146844F0FD
:100770000404146003E0146824F0040414608C780A
:10078000A407CD7844EA05640D7944EA05444D791F
:1007900044EA05540D886D1E2C43D461146824F07E
:1007A00001041460002300E05B1C546804F00104A1
:1007B0001CB14FF6FF74A342F6D1546804F0010453
:1007C0000CB1002000E0012030BD10B500F5D87359
:1007D00003EB01131B6803F004031372137A53B97C
:1007E00000F5D87303EB01131B6840F2FF7404EAB1
:1007F0005353136009E000F5D87303EB01131B6832
:100800006FF0604404EAD303536000F5D87303EB40
:1008100001131B6803F00203537200F5D87303EB56
:1008200001135B6803F00F03937200F5D87303EBB9
:1008300001135B681B0AD37400F5D87303EB011333
:100840009B68D37200F5D87303EB01139B681C0AF5
:10085000147300F5D87303EB01139B681C0C5473DD
:1008600000F5D87303EB01139B681B0E937300F51F
:10087000D87303EB0113DB68D37300F5D87303EB74
:100880000113DB681C0A147400F5D87303EB011321
:10089000DB681C0C547400F5D87303EB0113DB68A0
:1008A0001B0E937421B9C36843F02003C36003E0B7
:1008B000036943F02003036110BD10B50246002018
:1008C000936803F08063B3F1806F00D110E0936808
:1008D00003F00063B3F1006F01D1012008E09368D9
:1008E00003F08053B3F1805F01D1022000E00420C7
:1008F000042874D002F5C07303EB00131B6803F0E7
:10090000010402F5C07303EB00131C600B7A7BB982
:100910004B7A0C8843EA445302F5C07404EB00148C
:100920002468234302F5C07404EB0014236010E034
:100930000B7A4C6843EAC4034C7A234302F5C07433
:1009400004EB00142468234302F5C07404EB001484
:1009500023608B7A03F00F038B7202F5C07303EBF5
:1009600000135B6823F00F0402F5C07303EB001360
:100970005C6002F5C07303EB00135B688C7A234361
:1009800002F5C07404EB001463608B7B1C064B7B88
:1009900044EA03440B7B44EA0323CC7A234302F565
:1009A000C07404EB0014A3608B7C1C064B7C44EAEF
:1009B00003440B7C44EA0323CC7B234302F5C0743D
:1009C00004EB0014E36002F5C07303EB00131B6833
:1009D00043F0010402F5C07303EB00131C6010BD6B
:1009E00010B50749074800F03BF938B104490548FC
:1009F00000F034F80021034800F04AF810BD000070
:100A0000208000101060024010B50549054800F034
:100A100005F920B14FF03D51024800F005F810BD36
:100A200000800028B86402400246094B9A4201D275
:100A3000084801E00648103801F000531BB1064B8E
:100A40000B40C36002E0044B0B4083607047000022
:100A500010640240006002407D0F7D0F0246094B8A
:100A60009A4201D2084801E00648103801F00053CC
:100A70001BB1064B0B40C36002E0044B0B4083608C
:100A80007047000010640240006002407D0F7D0F3F
:100A900021B1026842F00102026003E0026822F024
:100AA0000102026070470000016821F0010101604D
:100AB0000021016041608160C160016121214161CB
:100AC0004A49884204D13D21484A103A91608CE05D
:100AD00046491831884205D14FF47461434A103AAF
:100AE000916082E041493031884205D14FF4741160
:100AF0003E4A103A916078E03C494831884205D13D
:100B00004FF07461394A103A91606EE037496031B4
:100B1000884204D13649354A103AD16065E03349FC
:100B20007831884204D13349304A103AD1605CE0D0
:100B30002E499031884204D12F492C4A103AD16075
:100B400053E02A49A831884205D14FF03D51274A48
:100B5000103AD16049E02949884204D13D21274A11
:100B6000083A116041E025491831884205D14FF417
:100B70007461224A083A116037E0204930318842D6
:100B800005D14FF474111D4A083A11602DE01B493C
:100B90004831884205D14FF07461184A083A116013
:100BA00023E016496031884204D11149134A121FCB
:100BB00011601AE011497831884204D10D490F4A79
:100BC000121F116011E00D499031884204D10A4989
:100BD0000A4A121F116008E00849A831884204D16E
:100BE0004FF03D51054A121F1160704710600240DE
:100BF0003D000020400F002000003D201064024016
:100C0000014600200A6802F001020AB1012000E05A
:100C1000002070470146486880B2704730B50346EF
:100C20000A46002000240B4DAB4201D20A4901E0E4
:100C30000849103902F000550DB14C6800E00C680D
:100C4000064D2C4004EA02050DB1012000E0002011
:100C500030BD000010640240006002407D0F7D0F37
:100C600070B50246002000240025124EB24201D287
:100C7000114B01E00F4B103B104E0E4036B11E26BB
:100C800006EAD124166806EA040502E0566906F071
:100C9000800501F000560EB15C6800E01C68084E4B
:100CA000344004EA010616B10DB1012000E0002035
:100CB00070BD000010640240006002403C0F3C0F19
:100CC0007D0F7D0F10B501F080034BB122B1436958
:100CD00043F08003436103E0436923F080034361F1
:100CE00080290BD02AB1036801F01E04234303605E
:100CF00004E0036801F01E04A343036010BD00007C
:100D000010B500220268134B1A40CC680B682343CD
:100D10004C6923438C692343CC6923430C6A2343E6
:100D20004C6A23438C6A23434C6B23438C6B2343D1
:100D30001A430260426922F00702D1E90B342343CF
:100D40001A4342610B6943604B6883608B68C360E0
:100D500010BD00003F801CF041607047704710B527
:100D6000022000F00BF810B1022000F001F810BDD5
:100D70000149086070470000143C01400146002012
:100D8000034A12680A400AB1012000E000207047BF
:100D9000143C0140002123498279002A3AD00A46B6
:100DA000126803689A430B461A600A1D12680368AA
:100DB0009A430B1D1A60027911440A6803681A43AA
:100DC0000A60184A0832126803689A43154B0833C0
:100DD0001A601A1D126803689A43124B0C331A608A
:100DE0004279102A0ED11A1F126803681A430D4B5C
:100DF00008331A601A1D126803681A43094B0C3332
:100E00001A600DE00749427911440A6803681A43E1
:100E10000A6005E0027911440A6803689A430A608F
:100E200070470000003C0140F0B50A460021002355
:100E3000002400BF3DE0012505FA01F3156805EA2D
:100E400003049C4234D105684F000326BE40B543DD
:100E5000056015794E00B540066835430560157983
:100E6000012D02D01579022D16D185684F00032679
:100E7000BE40B543856055794E00B5408668354320
:100E80008560456801268E40B54345604568967982
:100E90008E40B6B235434560C5684F000326BE405C
:100EA000B543C560D5794E00B540C6683543C560C9
:100EB000491C1029BFD3F0BDF0B5002300244D0715
:100EC000ED0E02FA05F3CE1000F1200555F826507C
:100ED0004E07F70E0F26BE40B543CF1000F1200697
:100EE00046F82750CE1000F1200555F8265045EA67
:100EF0000304CE1000F1200545F82640F0BD4183E3
:100F000070470183704700BFFEE700BFFEE77047F0
:100F100070B5002100230F22C4781CB3174C24683D
:100F200004F4E064C4F5E064C4F30721C1F10404EF
:100F3000E3B20A4144789C40E1B2847814402143F2
:100F40000C07210E0E4C05786155047804F01F053E
:100F50000124AC4005786D11AD0005F1E025C5F820
:100F6000004109E0047804F01F050124AC40054D60
:100F70000678761145F8264070BD00000CED00E0C3
:100F800000E400E080E100E002490143024A116010
:100F9000704700000000FA050CED00E029B1064A98
:100FA00012680243044B1A6004E0034A1268824349
:100FB000014B1A60704700003038024029B1064AE0
:100FC00012680243044B1A6004E0034A1268824329
:100FD000014B1A60704700004038024029B1064AB0
:100FE00012680243044B1A6004E0034A1268824309
:100FF000014B1A60704700002038024029B1064AB0
:1010000012680243044B1A6004E0034A12688243E8
:10101000014B1A60704700004438024029B1064A6B
:1010200012680243044B1A6004E0034A12688243C8
:10103000014B1A607047000024380240F0B50021CF
:1010400000220024022500260223324F3F6807F0C9
:101050000C0121B1042905D0082937D105E02E4F14
:10106000076036E02D4F076033E02A4F3F1F3F688F
:10107000C7F38056274F3F1F3F6807F03F036EB10D
:10108000264FB7FBF3F7DFF88CC0ACF1040CDCF8AB
:1010900000C0CCF3881C07FB0CF40CE01E4FB7FB20
:1010A000F3F7DFF870C0ACF1040CDCF800C0CCF34F
:1010B000881C07FB0CF4174F3F1F3F68C7F301471D
:1010C0007F1C7D00B4FBF5F7076002E0124F07605C
:1010D00000BF00BF0F4F3F6807F0F0010909104F34
:1010E0007A5C0768D74047600A4F3F6807F4E051D1
:1010F000890A0B4F7A5C4768D7408760054F3F6885
:1011000007F46041490B064F7A5C4768D740C760D7
:10111000F0BD0000083802400024F400001BB700B6
:101120005800002030B500228B071C0F0F2303FA54
:1011300004F20B4B8C1053F824309343084C8D1061
:1011400044F8253023468C1053F824308C07240FA4
:1011500000FA04F42343024C8D1044F8253030BDCE
:10116000083801400CB5002001900090414800680B
:1011700040F480303F49086000BF3E48006800F4FA
:10118000003000900198401C0190009818B9019817
:10119000B0F5A04FF1D13748006800F4003010B12D
:1011A0000120009001E0002000900098012860D10B
:1011B00030484030006840F080502E49403108608F
:1011C0002D48006840F440402B4908602948083009
:1011D00000682849083108600846006840F400406B
:1011E00008600846006840F4A05008602348091FC2
:1011F0000860081F006840F08070091F086000BF89
:101200001C48006800F000700028F9D01A480068F7
:1012100040F480301849086000BF1748406800F467
:1012200080300028F9D01448006840F4003012499A
:10123000086000BF1048406800F400300028F9D072
:1012400040F205700E4908600A480830006820F036
:1012500003000849083108600846006840F00200B1
:10126000086000BF03480830006800F00C00082840
:10127000F8D10CBD00380240007000400C5A400705
:10128000003C0240042808D14FF0E021096941F0F8
:1012900004014FF0E022116107E04FF0E0210969FD
:1012A00021F004014FF0E0221161704710B504F005
:1012B000E1F8012801D003F0CFFD10BD10B51548AD
:1012C000006840F47000134908601348006840F05B
:1012D00001001149086000200F49083108600E48DC
:1012E00000680E4908400C4908600D48091D086057
:1012F000081F006820F48020091F086000200649AC
:101300000C310860FFF72EFF4FF000600149803973
:10131000086010BD88ED00E000380240FFFFF6FED7
:1013200010300024F0B50C46154600210022068C32
:101330004FF6FE773E400684018B028C4FF60C760A
:1013400031407E1C06EA03162E4331434FF6F576F4
:10135000324044F00106324301830284F0BDF0B50F
:101360000C461546002100220026078C4FF6EF7C24
:1013700007EA0C070784018B028C4FF6FF7707EA18
:10138000041640F6FF4739404FF6FF7707EA033768
:1013900039434FF6FF7707EA052739434FF65F7762
:1013A0003A4046F010073A4301830284F0BDF0B59D
:1013B0000C461546002100220026078C4FF6FF6CD4
:1013C00007EA0C070784818B028C4FF6FF7707EA48
:1013D00004264FF60C7739404FF6FF7707EA0317DC
:1013E0002F4339434FF2FF573A4046F480773A4350
:1013F00081830284F0BDF0B50C4615460021002221
:101400000026078C4EF6FF7C07EA0C070784818BC9
:10141000028C4FF6FF7707EA043640F6FF47394063
:101420004FF6FF7707EA052739434FF6FF7707EABC
:101430000337394345F6FF773A4046F480573A433D
:1014400081830284F0BD000010B50121104800F036
:1014500056F8E0B10E480088C0F3001038B90D48C6
:10146000D0F89C02401C0B49C1F89C020BE00848D4
:101470000088C0F3001030B10648D0F89C02401E2E
:101480000449C1F89C020121014800F005F810BD93
:10149000000800402C020020CA430282704721B19C
:1014A000028842F00102028004E002884FF6FE73D7
:1014B0001A4002807047F0B50C4615461E460021C2
:1014C000002200230189028B038C4FF6F877394004
:1014D00021434FF6FC473A4040F201173A434FF69A
:1014E000DD773B404FF6FF7707EA06172F433B4374
:1014F000018102830384F0BD0146486A704730B51C
:101500000246002000230024158A05EA010395897C
:1015100005EA010413B10CB1012000E0002030BD48
:1015200070B505460C46208850B92389A288618889
:101530002846FFF7F7FEE188284600F03CF825E052
:10154000208804280AD12389A28861882846FFF7C9
:1015500006FFE188284600F037F817E020880828C1
:101560000AD12389A28861882846FFF720FFE188F5
:10157000284600F036F809E02389A28861882846C9
:10158000FFF739FFE188284600F034F870BD0021EC
:1015900001804180012181800021C180018170474B
:1015A0001AB183890B43838102E083898B43838152
:1015B000704741627047028B4FF6F3731A40028303
:1015C000028B0A4302837047028B4FF2FF331A40AB
:1015D0000283028B4FF6FF7303EA01231A4302834F
:1015E0007047828B4FF6F3731A408283828B0A43D3
:1015F00082837047828B4FF2FF331A408283828B43
:101600004FF6FF7303EA01231A43828370470000F9
:1016100000220288184B98420ED0184B98420BD0EB
:10162000B0F1804F08D0164B984205D0154B984228
:1016300002D0154B984204D14FF68F731A404B8855
:101640001A43124B984207D0114B984204D04FF6E0
:10165000FF431A400B891A4302804B68C3620B8810
:101660000385054B984202D0044B984201D18B7AF6
:10167000038601238382704700000140000401407B
:101680000004004000080040000C00400010004032
:101690000014004070B500BF40F22441144800F02F
:1016A00073F920B300211348FFF7F2F910480088BE
:1016B000C5B20F48001D0088C5B20E48FFF7AAFA50
:1016C0000D490988081A84B200BF0A48FFF798FA42
:1016D0000028FAD1084801880648FFF73DFB074972
:1016E0000448FFF7A1F901210248FFF7D1F970BDC5
:1016F000007C0040A06002405A62000800003D20CB
:1017000010B540F225511D4800F03EF910B31B48BA
:1017100000F0F4F9C4B21A48008800F40040C8B9D7
:101720001748008800F4804060B10A2C03D00020E4
:101730001349088020E01248008840F40040104916
:10174000088019E00D2C06D10D48008840F4804037
:101750000B49088010E00A480088C0F30D000949D1
:101760000C5407480088401C05490880084600883A
:10177000C72801DD0020088010BD0000004800409F
:10178000240000201401002010B5044600210B485D
:10179000FFF77EF900BF0948FFF732FA0028FAD1B7
:1017A00021460648FFF7D8FA4FF03D510348FFF7AE
:1017B0003BF901210148FFF76BF910BDB864024005
:1017C00070B500BF002440F22441204800F0DCF84E
:1017D000002839D01D480088C5B21C48001D00886B
:1017E000C5B200211A48FFF753F91948FFF712FA5A
:1017F00018490988081A18490880164801881448A9
:10180000FFF7AAFA15491248FFF70EF905E0144848
:10181000005D14490855601CC4B20F480188008857
:10182000401E0D4A10800029F1D12046FFF7ACFF81
:1018300001210748FFF72CF90B48006808B901207F
:1018400000E000200849086070BD0000001401405D
:1018500040640240546200080400002000003D1073
:10186000DC010020E60100209002434221B1828980
:1018700042F40052828104E082894DF6FF731A40DF
:10188000828170471AB1838A0B43838202E0838A84
:101890008B4383827047000010B50446324884426F
:1018A00008D101211020FFF7B9FB00211020FFF71C
:1018B000B5FB57E02D48844209D101214804FFF7C8
:1018C0008DFB00214FF40030FFF788FB4AE02848E9
:1018D000844209D101218804FFF780FB00214FF4E5
:1018E0008020FFF77BFB3DE02248844209D10121A3
:1018F000C804FFF773FB00214FF40020FFF76EFBD5
:1019000030E01D48844209D101210805FFF766FB3C
:1019100000214FF48010FFF761FB23E01748844259
:1019200008D101212020FFF779FB00212020FFF7BB
:1019300075FB17E01248844209D101218807FFF79F
:101940004DFB00214FF08040FFF748FB0AE00D48B7
:10195000844207D101214005FFF740FB00216005CB
:10196000FFF73CFB10BD00000010014000440040A8
:1019700000480040004C004000500040001401406E
:1019800000780040007C004070B50246002400232F
:101990000025002040F66A16B14200D100BFC1F315
:1019A000421501F01F03012606FA03F3012D02D1AF
:1019B0009689334006E0022D02D1168A334001E0B9
:1019C000968A33400C12012606FA04F41688344035
:1019D00013B10CB1012000E0002070BDF0B503464A
:1019E000002400260025002040F66A17B94200D1E5
:1019F00000BF1846C1F3421401F01F06012707FA81
:101A000006F5012C01D10C3004E0022C01D110307C
:101A100000E014301AB107682F43076002E007683E
:101A2000AF430760F0BD00002DE9FF4705460E46B5
:101A30000024A14600BFA046B08900B100BF2C8A97
:101A400024F44054F08804432C82AC8941F20C60A9
:101A50008443B08831890843718908430443AC81C9
:101A6000AC8A24F44074B0890443AC826846FFF722
:101A7000E5FA2048854202D01F48854202D1DDF8B0
:101A80000C9001E0DDF80890A88900F4004040B116
:101A900009EBC90000EB091031684900B0FBF1F710
:101AA00007E009EBC90000EB091031688900B0FBC1
:101AB000F1F76420B7FBF0F004012009642101FB79
:101AC0001078A88900F4004040B1322000EBC80033
:101AD000B0FBF1F000F00700044308E0322000EB17
:101AE00008106421B0FBF1F000F00F0004432C81DA
:101AF000BDE8FF87001001400014014001468888BE
:101B0000C0F30800704700BFFEE703B4019841002E
:101B1000009850EAC12018BF04204A0D18BF40F0B9
:101B2000010040F2FF72B2EB515F08BF40F00200CB
:101B3000012808BF052002B0704700000000000027
:101B400010B52F499FED2C1B2DED020B84B005988D
:101B500020F000408842DCBF00209DED040B32DD08
:101B60002849884209D1049840B94FF00100FEF796
:101B7000BFFC00F03DFC06B010BD05DB9DED040B85
:101B800000F02AFC06B010BD68469DED040B00F085
:101B90003BF810F0030011D0012818D09DED021B76
:101BA0009DED000B02281AD000F04AFA51EC100B00
:101BB00003F0BAFE06B041EC100B10BD9DED021B08
:101BC0009DED000B012000F06FFB06B010BD9DEDF8
:101BD000021B9DED000B00F033FA06B010BD012092
:101BE00000F062FB51EC100B03F09EFE06B041ECDE
:101BF000100B10BD000000000000000000000000FD
:101C0000FB21E93F0000F07F2DE9F14F04462DED67
:101C1000020B2DED088B8AB09FEDE70B80ED020BD8
:101C2000139EE74826F0004585420ADC9DED120B25
:101C3000002084ED000B0AB0BDEC088B03B0BDE8BA
:101C4000F08FE0489FEDE0AB9FEDE1BBA84247DDA0
:101C5000E14F9FEDE39B9FEDE48B9DED120B53EC69
:101C60001A2B51EC100B002E1CDD04F0FFF941EC97
:101C7000100BBD4208D053EC1B2B51EC100B04F0A1
:101C8000F5F9C4E900010BE053EC192B51EC100BF2
:101C900004F0ECF953EC182B04F0E8F9C4E9000166
:101CA0000120C8E703F07EFE41EC100BBD4208D0D6
:101CB00053EC1B2B51EC100B03F074FEC4E9000134
:101CC0000BE053EC192B51EC100B03F06BFE53ECB3
:101CD000182B03F067FEC4E900014FF0FF30AAE7BC
:101CE000C348A84279DB9DED120B51EC100B01F0BB
:101CF0009DF841EC180B9FEDC00B53EC102B04F03A
:101D0000ABF89FEDBF1B53EC112B03F04BFE04F01F
:101D100049F8074604F075F841EC190B53EC1A2BFF
:101D200004F09AF853EC182B04F094F941EC180BDA
:101D300053EC1B2B51EC190B04F08EF8DFF8C8A202
:101D400041EC100B4FEA15580125FA4453EC102BC7
:101D500051EC180B04F08AF9032DC4E900013DD0C1
:101D6000C1F30A5005EB4511A8EB0000113981427F
:101D700034DA0AEB051BB0EE48AA9BED000BF0EE3F
:101D800068AA53EC102B51EC190B04F065F841ECE8
:101D90001B0B51EC1A0B53EC1B2B04F067F941ECB5
:101DA000180B51EC1A0B53EC182B04F05FF953ECA1
:101DB0001B2B04F05BF99BED020B41EC1A0B53EC6F
:101DC000102B51EC190B04F047F853EC1A2B04F0CC
:101DD0004DF941EC100B6D1CB8E70EE0002EA8BFCA
:101DE0003846BFF628AF94ED000B51EC100B03F012
:101DF0009BFDC4E9000178421DE7C6F3130040F4DF
:101E0000801EC6F30A50A0F2F530471100F01F05FE
:101E1000C5F12000DDF848B008900020069007903A
:101E20000520EC467949002D07EB0002794408BFF4
:101E300051F8221009D051F8223001EB8201AB4059
:101E40004A68089922FA01F11943A1FB0E26A1FB69
:101E50000B131A449A4234BF0123002303EB0608F4
:101E60000CEB8003D3E901A60E448E4234BF01215E
:101E7000002192448A4411B1924502D903E092456F
:101E800001D2012100E00021C3E901A641444CF840
:101E90002010011EA0F10100C4DC029800F10050E6
:101EA000850F0298DDE903678000DDF8148003F0F8
:101EB000A8FF41EC1A0B304603F0BAFF9FED541B0C
:101EC00053EC112B03F0C8FF41EC1B0B384603F019
:101ED000AFFF9FED511B53EC112B03F0BDFF41EC05
:101EE000180B404603F0A4FF9FED4D1B53EC112B44
:101EF00003F0B2FF41EC190B51EC180B53EC192B0A
:101F000003F050FD53EC1B2B03F04CFD53EC1A2B4C
:101F100003F048FDCDE90801002008909DED080B75
:101F200053EC1A2B51EC100B04F0A0F853EC1B2BC4
:101F300004F09CF853EC182B04F098F853EC192B90
:101F400004F088F89FED381B53EC112B03F084FF4D
:101F50009FED370B41EC180B53EC102B9DED080B4C
:101F600051EC100B03F078FF53EC182B03F01AFD23
:101F70009FED310B41EC180B53EC102B9DED080B32
:101F800051EC100B03F068FF53EC182B03F00AFD23
:101F900041EC100B139810F0004F06D06D4251EC3D
:101FA000100B03F0C1FC41EC100B284684ED000B34
:101FB00041E60000000000000000000000000000FA
:101FC000FB21E93F7CD9024000004054FB21F93F4E
:101FD0003163621A61B4D03DFB21F93F000000007B
:101FE0000000601A61B4D03D7370032E8A19A33BC0
:101FF000FB2139410000000083C8C96D305FE43F18
:10200000000000000000E03F424500009044000056
:10201000000000000000103E000000000000103C26
:10202000000000000000103A182D4454FB21F93D37
:102030003326A611460B113C00000054FB21F93D4C
:1020400010B52DED040B2DED088B82B0B0EE419A4A
:10205000F0EE619A0B9820F000449FED4BABB4F189
:10206000795F11DA9DED0A0B51EC100B03F09AFE2B
:10207000002801BFB0EE4A0AF0EE6A0A02B0BDECD9
:10208000088B04BF04B010BD9DED0A0B53EC102B60
:1020900051EC100B03F0E0FE41EC180B3C4806211C
:1020A000B0EE480AF0EE680A784400F081F853EC8C
:1020B000182B51EC100B03F0CFFE9DED0A0B41ECF9
:1020C0001B0B53EC192B51EC100B03F0C5FE41EC2C
:1020D000190B53EC1B2B51EC180B03F0BDFE53EC0A
:1020E000192B03F0C3FF9FED2C0B41EC190B53ECA4
:1020F000102B51EC180B03F0AFFE41EC100B2848ED
:10210000844210DA53EC192B51EC100B03F0AEFFA4
:1021100053EC1A2B03F09EFF41EC100B02B0BDEC08
:10212000088B04B010BD1F48A042BCBF9FED1E1B12
:102130008DED001B06DBA4F500100190002000903F
:102140009DED001B51EC100B53EC112B03F08EFF97
:102150009DED000B41EC180B53EC102B51EC1A0BBE
:1021600003F084FF41EC1A0B53EC192B51EC180BC4
:1021700003F07CFF53EC1A2B03F06CFF41EC100BC7
:10218000CCE7000000000000000000000000F03F6D
:10219000B441000000000000000000000000E03F2B
:1021A0003333D33F0000E93F000000000000D23F7E
:1021B00070B504462DED028B4D1E00EBC500B0EE50
:1021C000408AF0EE608A90ED000B35F0060017D0E3
:1021D00053EC182B51EC100B03F03EFE41EC100BAE
:1021E0006D1E04EBC50090ED001B51EC100B53EC81
:1021F000112B03F0D7FB41EC100B35F00600E7D1B3
:10220000022D36D0042D1CD0062D1CBFBDEC028B38
:1022100070BD53EC182B51EC100B03F01DFE94ED28
:102220000A1B53EC112B03F0BDFB53EC182B03F0EE
:1022300013FE94ED081B53EC112B03F0B3FB41ECA0
:10224000100B53EC182B51EC100B03F005FE94ED22
:10225000061B53EC112B03F0A5FB53EC182B03F0DA
:10226000FBFD94ED040B53EC102B03F09BFB41ECB6
:10227000100B53EC182B51EC100B03F0EDFD94ED0B
:10228000021B53EC112B03F08DFB53EC182B03F0C6
:10229000E3FD94ED001B53EC112B03F083FBBDEC2D
:1022A000028B41EC100B70BD31B504462DED040BD3
:1022B0002DED0A8BB0EE41BAF0EE61BA0B989DEDB0
:1022C0000A0B20F00040B0F1795F0DDA51EC100BF1
:1022D000FFF71BFC042808BF00F09AF89DED0A0BDD
:1022E000BDEC0A8B05B030BD53EC102B51EC100B3C
:1022F00003F0B2FD41EC180B9DED0A0B53EC182BCB
:1023000051EC100B03F0A8FD41EC190B2C48B0EE7A
:10231000480AF0EE680A05217844FFF749FF9FED6F
:102320002ACBB0EE40AAF0EE60AA9CB353EC1C2B73
:1023300051EC190B03F090FD41EC1C0B53EC1A2BE4
:1023400051EC190B03F088FD9FED210B41EC190BAB
:1023500053EC102B51EC1B0B03F07EFD53EC192BAF
:1023600003F084FE53EC182B03F076FD53EC1B2B8B
:1023700003F07CFE53EC1C2B03F078FE9DED0A1B52
:1023800053EC112B03F066FEBDEC0A8B05B041EC5B
:10239000100B30BDFFE753EC1A2B51EC180B03F078
:1023A0005BFD53EC1C2B03F0FDFA53EC192B03F0EF
:1023B00053FD9DED0A1B53EC112B03F0F3FAE3E7F9
:1023C0003C40000000000000495555555555C5BF1B
:1023D000000000000000E03F10B553EC102B51EC62
:1023E000100B03F0DFFA41EC100B10BD00000000F1
:1023F0009FED050B10B553EC102B51EC100B03F0B7
:1024000079FB41EC100B10BD000000000000000043
:102410009FED050B10B553EC102B51EC100B03F096
:102420001BFD41EC100B10BD00000000000000106F
:1024300000BF7047D0ED000AF4EEC00AF1EE10FACA
:1024400001DD80ED000AD0ED000AB1EE401AF4EE95
:10245000C10AF1EE10FA03D2F1EE400AC0ED000A13
:102460007047000000B587B001214806FEF7A6FDC1
:1024700000208DF816008DF8170001208DF8180047
:1024800000208DF819008DF81A008DF81B008DF8CA
:1024900012000520ADF8100001208DF81300042073
:1024A0008DF8140002208DF8150004A90E48FEF7DF
:1024B00002F900208DF80A0001208DF80D0000209F
:1024C000ADF808008DF80C00ADF80000ADF8020082
:1024D000ADF80400ADF806008DF80B006846FEF775
:1024E0005DF807B000BD00000064004000B58FB08B
:1024F00001214805FEF752FD01218805FEF74EFD3A
:102500005F48FEF7D1FA00BF5D48FEF779FB00286F
:10251000FAD14FF0206000905A4801905A4802903A
:10252000402003900A200490002005904FF4806022
:10253000069000200790089009904FF480300A9090
:1025400000200B9003200C9000200D900E90694607
:102550004B48FEF7D5FB01214948FEF799FA484858
:102560007838FEF7A1FA00BF45487838FEF748FBF7
:102570000028F9D10A200490000600900020039062
:102580000B9003200C904148029000200D90089081
:102590004FF480600690002009903A480190002096
:1025A0000E90079005904FF480300A9069463448A9
:1025B0007838FEF7A5FB012131487838FEF768FA34
:1025C0003348FEF771FA00BF3148FEF719FB0028C7
:1025D000FAD14FF0206000902E4801902E480290D2
:1025E000402003901E200490002005904FF480604E
:1025F000069000200790089009904FF480300A90D0
:1026000000200B9003200C9000200D900E90694646
:102610001F48FEF775FB1E489030FEF745FA00BFD5
:102620001B489030FEF7ECFA0028F9D11E200490E8
:102630004FF020600090002003900B9003200C903E
:102640001648029000200D9008904FF4806006908C
:10265000002009900F48019000200E9007900590EF
:102660004FF480300A90694609489030FEF748FBE5
:10267000012107489030FEF70BFA0FB000BD0000B3
:10268000B864024004140140E6010020DC0100208F
:1026900010600240047C0040F00100200E02002087
:1026A0001CB501210820FEF779FC01211020FEF75E
:1026B00075FC01214020FEF771FC01212020FEF76E
:1026C0006DFC01210802FEF769FC01218020FEF764
:1026D00065FC01208DF8040000208DF806007E20A6
:1026E000009001208DF8070003208DF80500694651
:1026F0005D48FEF799FB7E215B48FEF702FC022055
:102700008DF8040000208DF806004FF484400090FE
:1027100001208DF8070002208DF805006946524817
:10272000FEF782FB082209214F48FEF7C5FB08226D
:102730000E214D48FEF7C0FB0320009002208DF8CB
:10274000040000208DF806008DF8070003208DF8A6
:10275000050069464548FEF767FB0822002143480B
:10276000FEF7AAFB082201214048FEF7A5FB4FF423
:102770007070009001208DF8040000208DF8060094
:1027800003208DF8050001208DF8070069463848C0
:10279000FEF74AFB4FF480713548FEF7B0FB4FF46B
:1027A00030713348FEF7ADFB4FF4405000900220EB
:1027B0008DF8040000208DF8060001208DF8070038
:1027C00003208DF8050069462A48FEF72DFB0222FA
:1027D0000C212848FEF770FB02220D212548FEF748
:1027E0006BFB0220009000208DF804008DF807009C
:1027F00069461F48FEF718FB01210520FEF792FCF1
:1028000001208DF8040000208DF8060010200090B3
:1028100002208DF8070003208DF805006946164850
:10282000FEF702FB10211448FEF769FB032000901D
:1028300002208DF8040000208DF8060003208DF89A
:10284000050001208DF8070069460A48FEF7ECFAFA
:10285000092200210748FEF72FFB09220121054824
:10286000FEF72AFB1CBD00000018024000100240C9
:1028700000140240000C0240001C02400EB54FF450
:102880004070FEF781FB47208DF8080001208DF88D
:102890000B0009208DF8090000208DF80A0002A81D
:1028A000FEF736FB012240F224413E48FFF796F83E
:1028B00046208DF8080001208DF80B0009208DF8C6
:1028C000090000208DF80A0002A8FEF721FB012272
:1028D00010213548FEF7F6F953208DF80800032043
:1028E0008DF8090001208DF80B0002A8FEF710FBFF
:1028F000012240F224412D48FFF770F80B208DF89B
:10290000080001208DF80B0008208DF8090002A8AE
:10291000FEF7FEFA26492748FEF7A0F8012210210B
:102920002448FEF7CFF90220009001208DF8060020
:1029300000208DF8040008208DF805006846FEF799
:1029400029FA07208DF8080001208DF80B000420DB
:102950008DF8090002A8FEF7DBFA1E208DF80800AA
:1029600001208DF809008DF80B0002A8FEF7D0FABF
:10297000012211461048FEF713FE14208DF80800BE
:1029800001208DF80B0009208DF8090000208DF83A
:102990000A0002A8FEF7BCFA012202210748FDF74F
:1029A00081FE0EBD00140140B8640240007C00406E
:1029B00000800028106002400008004000640040D1
:1029C00000B587B001210420FEF7F8FA0020ADF829
:1029D0001800ADF8120041F63F7005900020ADF8E8
:1029E000100004A90E48FEF713FE00231A46032127
:1029F0000B48FEF760FD01A8FEF7C9FD0A20ADF8FF
:102A00000C0001A90648FEF78BFD00210448FEF7E3
:102A1000D0FD01210248FEF742FD07B000BD0000D5
:102A2000000800401FB501212020FEF7E7FA012130
:102A3000C807FEF7C3FA4FF4E13000900020ADF86C
:102A40000C000C20ADF80A000020ADF80800ADF82D
:102A50000600ADF8040069461A48FEF7E5FF0122BA
:102A600040211848FEF70EFF012280211548FEF78D
:102A700009FF01211348FEF7F9FE1348FEF70CFF8A
:102A80004FF4E13000900020ADF80400ADF80600EE
:102A9000ADF80800ADF80C000C20ADF80A0069464E
:102AA0000948FEF7C1FF012240210748FEF7EAFE70
:102AB000012280210448FEF7E5FE01210248FEF7CD
:102AC000D5FE1FBD00140140007C00404FF47A7019
:102AD00001F080FF00F060F84FF4FA6001F07AFF37
:102AE00043E0224890ED000ABDEEC00A204880ED88
:102AF000B00A01F047FA1E4801F08EFD1C49B1F9F9
:102B0000BC0201F017FA1B4890ED001A1A48D0EDEC
:102B1000000A1A4890ED000A194800F062FC1948B2
:102B200090ED001A1848D0ED000A184890ED000A00
:102B30000F48A83000F055FC154890ED000ABCEE97
:102B4000C00A0B4880ED4F0A124890ED000ABCEE17
:102B5000C00A074880EDA10AD0F8D002401C044901
:102B6000C1F8D002052001F035FFBAE7540000207B
:102B70002C0200203C0000203800002034000020FF
:102B80001C040020300000202C0000202800002021
:102B9000480000204C00002008B532209FED341A78
:102BA000DFED340ABBEE020A642300220321009009
:102BB000314800F01DFC4FF496709FED2E1AF1EE97
:102BC000040A9FED2E0A47F23053002203210090A1
:102BD0002948A43000F00CFC00209FED261ADFED00
:102BE000250AB0EE080A502302460321009024482B
:102BF00000F0FEFB00F026F91F49A839C1F8B80221
:102C00009FED200A084680ED7F0A1F48FEF774FCFE
:102C10001949A839A1F894020846B0F8940200EEC8
:102C2000100AB8EE400A0846D0F89C02401E00EE9A
:102C3000900AF8EEE00A9FED151A00EE810ADFED2A
:102C4000140A20EE200A084680EDAA0AD0F8B8023D
:102C500090ED050A084680EDB60A40F25230C1F800
:102C6000C4024FF46170C1F8C0020220887008BD30
:102C70000000C8C200000000D40200200000A042F2
:102C80001C04002000005C43000800400000FA45DE
:102C9000EC51383DD0ED000AF5EEC00AF1EE10FA25
:102CA00004D2D0ED000AF1EE600A01E0D0ED000A96
:102CB000F4EEC00AF1EE10FA04D2DFED050AC0ED21
:102CC000000A03E0D0ED000AC0ED000A70470000E2
:102CD0000000000070B504460420FEF7D3FA0C484B
:102CE000047025464FF47A70454301200949088055
:102CF0004FF0E020006940F002004FF0E021086151
:102D000008464561006940F00100086170BD00009F
:102D10001C0000201E00002070B5044602F0AAFB33
:102D2000012810D00B480088844206D30948008847
:102D3000B4FBF0F5284601F04DFE06480088B4FBD0
:102D4000F0F100FB11444FF47A7104FB01F000F044
:102D500003F870BD1E00002070B5034600224FF03E
:102D6000E02675690D4E367803FB06F44FF0E02639
:102D7000B16910E04FF0E026B06988420BD088427C
:102D800002D20E1A324402E02E1A0E443244014698
:102D9000A24200D300E0EDE700BF70BD1C000020A0
:102DA000028842800A7BCB7A42EA032202800288B0
:102DB0004388D21AB2F5805F03DD8268521E8260BA
:102DC00008E002884388D21A12F5805F02DA82682E
:102DD000521C8260028800EE102AB8EE400ADFED35
:102DE000120A20EE200A80ED050A0388826803EBB0
:102DF0004232C26090ED030AB8EEC00ADFED0A0A63
:102E000020EE200ABDEEC00A80ED040A8B7B4A7BCF
:102E100043EA022212B282800B7CCA7B43EA02227E
:102E200012B2C28070470000EC51383D82B0CDE94B
:102E3000000121F0004001909DED000B02B051EC2B
:102E4000100B704700487047F00000200BE0064868
:102E5000006808B9012000E00020034908604FF431
:102E60007A7001F0B7FDF2E7840243421CB501F02D
:102E7000B7FB6420FFF750FF0648022100230A0237
:102E8000CDE9001004A1074802F0C4FA01F098FE51
:102E900000201CBD0000002073746172745F7461B7
:102EA000736B00007945000800B50246D2F88C002B
:102EB000032879D191ED030AD1ED040A30EE600ABE
:102EC00081ED070A91ED000AD1ED070A20EE200AF4
:102ED00081ED080A91ED1E0AB5EEC00AF1EE10FA76
:102EE0000AD191ED090AD1ED010A91ED071A00EE20
:102EF000810A81ED090A17E091ED070AD1ED1E0A5A
:102F0000B4EEE00AF1EE10FA0AD291ED090AD1ED21
:102F1000010A91ED071A00EE810A81ED090A03E02A
:102F20009FEDFE0A81ED090A91ED070AD1ED060A2F
:102F300030EE600AD1ED020A20EE200A81ED0C0A83
:102F4000D1ED260AF8EE600AB0EE600A01F1240025
:102F5000FFF770FA91ED080AD1ED090A30EE200A68
:102F6000D1ED0C0A30EE200A81ED190AD1ED250AC7
:102F7000F8EE600AB0EE600A01F16400FFF75AFA59
:102F800091ED070A81ED060AD2F89000022802D0DE
:102F9000D2F8900048B991ED190AD2ED040A30EE4A
:102FA000600A82ED070A0CE05DE0D2F8900001288B
:102FB00007D192ED030AD2ED040A30EE600A82EDE9
:102FC000070A92ED220AB5EEC00AF1EE10FA07D018
:102FD000D2ED220AB0EE600A02F11C00FFF75AFEA1
:102FE00092ED000AD2ED070A20EE200A82ED080ACF
:102FF00092ED090AD2ED010A92ED071A00EE810A5C
:1030000082ED090A92ED070AD2ED060A30EE600A57
:10301000D2ED020A20EE200A82ED0C0AD2ED260A39
:10302000F8EE600AB0EE600A02F12400FFF702FA3F
:1030300092ED080AD2ED090A30EE200AD2ED0C0A10
:1030400030EE200A82ED190AD2ED250AF8EE600A68
:10305000B0EE600A02F16400FFF7ECF992ED070AA6
:1030600082ED060A88E1D2F88C0004287ED191ED29
:10307000030AD1ED040A30EE600A81ED070A91EDF2
:10308000070AD1ED060A30EE600AD1ED000A20EE03
:10309000200A81ED080A91ED010AD1ED070A20EE20
:1030A000200A81ED090A91ED070AD1ED060AB0EE7A
:1030B000001A01EE600AD1ED050A30EE200AD1EDCA
:1030C000020A20EE200A81ED0C0AD1ED260AF8EE64
:1030D000600AB0EE600A01F12400FFF7ABF991ED50
:1030E000080AD1ED090A30EE200AD1ED0C0A30EEC3
:1030F000200A81ED1A0A91ED1C0AD1ED1A0A30EE70
:10310000200A81ED1B0AD1ED250AF8EE600AB0EE27
:10311000600A01F16C00FFF78DF991ED1B0A81ED5A
:103120001C0A91ED060A81ED050A91ED070A81ED71
:10313000060A91ED1B0AD2ED040A30EE600A82ED18
:10314000070A92ED070AD2ED060A30EE600AD2EDC8
:10315000000A20EE200A82ED080A92ED010AD2ED63
:10316000070A20EE200A82ED090A00E046E092ED0F
:10317000070AD2ED060AB0EE001A01EE600AD2ED9F
:10318000050A30EE200AD2ED020A20EE200A82ED76
:103190000C0AD2ED260AF8EE600AB0EE600A02F1DF
:1031A0002400FFF747F992ED080AD2ED090A30EE44
:1031B000200AD2ED0C0A30EE200A82ED1A0A92EDB6
:1031C0001C0AD2ED1A0A30EE200A82ED1B0AD2ED5B
:1031D000250AF8EE600AB0EE600A02F16C00FFF713
:1031E00029F992ED1B0A82ED1C0A92ED060A82ED86
:1031F000050A92ED070A82ED060ABDE0D2F88C00BE
:1032000005287CD191ED030AD1ED040A30EE600A65
:1032100081ED070A91ED150AD1ED070A91ED171A14
:1032200000EE810A81ED150AD1ED260AF8EE600A5A
:10323000B0EE600A01F15400FFF7FCF891ED070AC7
:10324000D1ED060A30EE600AD1ED170A80EE201AA1
:1032500081ED161A91ED000AD1ED070A20EE200A41
:1032600081ED080A91ED010AD1ED150A20EE200A40
:1032700081ED090A91ED020AD1ED160A20EE200A2D
:1032800081ED0C0A91ED080AD1ED090A30EE200A11
:10329000D1ED0C0A30EE200A81ED180AD1ED250A95
:1032A000F8EE600AB0EE600A01F16000FFF7C2F8C4
:1032B00091ED070A81ED060A91ED180AD2ED040A94
:1032C00030EE600A82ED070A92ED150AD2ED070A88
:1032D00092ED171A00EE810A82ED150AD2ED260A48
:1032E000F8EE600AB0EE600A02F15400FFF7A2F8AF
:1032F00092ED070AD2ED060A30EE600A00E03BE0EC
:10330000D2ED170A80EE201A82ED161A92ED000A0D
:10331000D2ED070A20EE200A02E0000000000000C3
:1033200082ED080A92ED010AD2ED150A20EE200A7C
:1033300082ED090A92ED020AD2ED160A20EE200A69
:1033400082ED0C0A92ED080AD2ED090A30EE200A4D
:10335000D2ED0C0A30EE200A82ED180AD2ED250AD1
:10336000F8EE600AB0EE600A02F16000FFF762F862
:1033700092ED070A82ED060AD2F88C00032810D1DC
:10338000D2F89000012803D0D2F89000022802D190
:1033900092ED190A00BDD2F8900080B991ED190A9A
:1033A000F8E7D2F88C00042802D192ED1B0AF1E76D
:1033B000D2F88C00052802D192ED180AEAE71FED39
:1033C000290AE7E710B5029C1C30C46783670167D0
:1033D000426700ED070A40ED060A00ED051A1C38A9
:1033E00010BD80ED000AC0ED010A80ED021A7047A1
:1033F0002DE9F0412DED048B82B004460D461646B2
:103400001F46B0EE408AF0EE608AB0EE419ADDF8D9
:1034100030800C4844F89C0F0B486060CDF8008069
:1034200054F89CC9B0EE491AF0EE680AB0EE480AAA
:103430003B46324629462046E04702B0BDEC048BAD
:10344000BDE8F081C5330008E33300082DE9F04101
:1034500005460E461C4807681C480068001D01F020
:1034600051F950B91948006890F82C100120884093
:1034700017490968814316480160681C38B936B19C
:1034800012480168091D134801F07AF91AE07C1905
:103490000E4800684460BC4207D20C480168091D10
:1034A0000D48006801F052F90CE008480168091D58
:1034B0000A48006801F04AF909480068844201D2CC
:1034C00007480460BDE8F0817C000020680000200F
:1034D00080000020C0050020700000206C0000204B
:1034E0009800002010B5044601F056F92448006801
:1034F000401C234908602348006840B92148046003
:103500000846006801280DD100F0DEF90AE01E48E7
:10351000006838B91B480068C06AE16A884201D86F
:103520001848046019480068401C1849086008469B
:103530000068206494F82C10012088401449096820
:10354000084313490860E16A01EB8101114A02EB6B
:103550008100211D01F014F901F048F90A480068C2
:1035600068B108480068C06AE16A884207D24FF033
:10357000805009490860BFF34F8FBFF36F8F10BDB4
:1035800078000020680000208400002094000020C3
:10359000800000200C05002004ED00E010B501F0D3
:1035A000FBF810480068D0B90F4801F0BFF80F4889
:1035B00001F0BCF80C480E4908600C480D49086041
:1035C00000220C210A2001F061FC0649086008462F
:1035D000006820B108A10348006801F0BFF901F0BC
:1035E00005F910BDAC0000201406002028060020BC
:1035F000A4000020A8000020546D725100000000BB
:1036000010B516E001F0C8F80C48C068C468201D69
:1036100001F078F80A480068401E09490860094826
:103620000068401E0749086001F0E0F8204600F0FD
:103630005FF8044800680028E4D110BDAC05002004
:10364000780000207400002070B504460D46206C00
:1036500070B1216CE0680144E160D4E90210884255
:1036600001D32168E1602846226CE168FCF76FFE17
:1036700070BD2DE9F04104460F4615464FF0000895
:10368000A66B206C48B9206800282CD1A06801F0F6
:10369000ABFF80460020A06025E07DB93946226C52
:1036A0006068FCF754FE216C606808446060D4E9EF
:1036B0000101884217D32068606014E03946226C0B
:1036C000E068FCF744FE216CE068411AE160216883
:1036D000E068884203D2216CA068411AE160022DA3
:1036E00001D106B1761E701CA0634046BDE8F08192
:1036F00010B50446206B01F097F8204601F094F8CD
:1037000010BD00000146084A126812680AB9012279
:1037100000E000220A600A6822B9034A1268D268EF
:10372000106800E000207047A400002030B54FF47E
:103730009633174800F007042CB1C01D20F0070095
:10374000134C041B1B1B0246124C22600024114D1B
:103750006C60D018083820F007000F4C206000245F
:103760000D4D2D686C600C4D2D682C601146441A6F
:103770004C60094C24680C60084D4C682C60084D66
:103780004C682C604FF00044064D2C6030BD0000AA
:103790003C060020B8000020C0000020C800002027
:1037A000C4000020CC00002000BFFFF729FF06481E
:1037B00000680128F9D94FF0805004490860BFF330
:1037C0004F8FBFF36F8FF0E70C05002004ED00E092
:1037D0002DE9F04106460D4617469846069C0DB960
:1037E000246000E02760E66325640121204601F0A3
:1037F0007BFB84F84C80BDE8F0812DE9F05F8246C8
:103800000E4690469B460A9F0C9C56B900BF50201E
:1038100080F31188BFF34F8FBFF36F8F00BF00BFDE
:10382000FEE74FEA8801A522206BFCF707FEA8F10E
:103830000100216B01EB800929F0070909F007005D
:1038400008B9012000E0002050B900BF502080F3EB
:103850001188BFF34F8FBFF36F8F00BF00BFFEE72C
:10386000002507E0715D04F134004155705D00B939
:1038700002E06D1C0A2DF5D300BF00213D2001554B
:10388000052F00D30427E762A7640020E064201D11
:1038900000F059FF04F1180000F055FF2461C7F152
:1038A0000500A06164620020206584F854005A4637
:1038B0005146484600F028FB20600B9808B10B9851
:1038C0000460BDE8F09F000010B5002407E004EBA1
:1038D00084010F4A02EB810000F028FF641C052CD4
:1038E000F5D30C4800F022FF0B4800F01FFF0B48F7
:1038F00000F01CFF0A4800F019FF0A4800F016FF0C
:1039000004480949086004480849086010BD0000DF
:103910000C0500207005002084050020980500207B
:10392000AC050020C00500206C00002070000020C5
:1039300010B50146164800E0006803688B42FBD3CF
:103940000246436813448B4204D143684C682344C5
:10395000436001460A464B6813440468A34211D1F0
:103960000C4C03682468A34208D04B680468646860
:1039700023444B6003681B680B6005E0054B1B6824
:103980000B6001E003680B60884200D0016010BD4D
:10399000B8000020C00000202DE9F04104460D468B
:1039A00016461F464FF0000865602461B5420CD8EA
:1039B000F01BA169884202D34FF0010811E0211DDC
:1039C0000948006800F0C2FE0BE0BE4204D2BD42CE
:1039D00002D34FF0010804E0211D0448006800F004
:1039E000B5FE4046BDE8F081A8000020A4000020FC
:1039F00070B5054600F0D0FEA86B08B9012400E0C0
:103A0000002400F0F3FE204670BD70B5054600F0BE
:103A1000C3FEA86BE96B884201D1012400E00024B9
:103A200000F0E4FE204670BDF8B505460F46164886
:103A30000068C068C468201D00F064FEE0690128C9
:103A40001DD1A06941192B463A462046FFF7A4FF35
:103A5000A8B1002003462A4601460090204601F006
:103A600021FF064656B900BF502080F31188BFF3EE
:103A70004F8FBFF36F8F00BF00BFFEE700BF204630
:103A8000616A8847F8BD0000A400002070B586B0C8
:103A90006AE00398002867DB059C606908B901208B
:103AA00000E0002010B9201D00F02CFE02A800F05C
:103AB000BBF8054603980A2854D2DFE800F0090550
:103AC0000731334F0608323400BF00BF00BF00BFCC
:103AD0000498A269811803462A462046FFF75CFF36
:103AE000E8B12046616A8847E069012817D10020C3
:103AF00000900498A169421800231946204601F05D
:103B0000D1FE064656B900BF502080F31188BFF39E
:103B10004F8FBFF36F8F00BF00BFFEE700BF22E0F3
:103B200000BF20E000BF0498A061A06908B1012097
:103B300000E0002050B900BF502080F31188BFF38F
:103B40004F8FBFF36F8F00BF00BFFEE7A069411921
:103B50002B462A462046FFF71FFF04E0204600F0D0
:103B600063FE00E000BF00BF002203A90348006815
:103B700001F056FB00288CD106B070BDAC000020CF
:103B8000F8B505460C4601F065F8684600F04CF8BB
:103B90000646009820BB44B9B54206D801F0D4FDD2
:103BA00031462846FFF740FF1CE03CB10E48006854
:103BB000006808B9012000E000200446A91B224645
:103BC0000A48006800F0E0FE01F0BEFD50B94FF079
:103BD000805007490860BFF34F8FBFF36F8F01E03C
:103BE00001F0B2FDF8BD0000A8000020AC000020EC
:103BF00004ED00E00A490968096809B9012100E0FB
:103C0000002121B14FF0FF31064A116006E004495E
:103C10000968C968C868034A4168116070470000B4
:103C20006C0000209800002070B5044601F032FCC2
:103C3000054607480068854204D200F00BF80120D1
:103C4000206001E00020206001480560284670BD2A
:103C5000B40000202DE9F84332E024480068C06831
:103C6000056822480068C068C468201D00F04AFD4D
:103C70002046616A8847E069012821D1A069461978
:103C8000AE4207D966602461211D1848006800F023
:103C90005DFD15E0002003462A46014600902046BF
:103CA00001F000FE074657B900BF502080F311888D
:103CB000BFF34F8FBFF36F8F00BF00BFFEE700BFA2
:103CC0000A480068006808B9012000E000200028C8
:103CD000C3D00648D0F80080054800680349086052
:103CE0000348C0F80080BDE8F8830000A40000206D
:103CF000A80000200E480068401C08B9012000E020
:103D0000002050B900BF502080F31188BFF34F8FBF
:103D1000BFF36F8F00BF00BFFEE700BF502080F3EE
:103D20001188BFF34F8FBFF36F8F00BF00BFFEE757
:103D3000D000002008B500BF6846FFF7E3FC04464A
:103D400020460099FFF71CFFFFF7A0FEF4E770B5CF
:103D5000044600F021FD94F9455010E0606A08B96E
:103D6000012000E0002038B904F1240001F0A0FC9B
:103D700018B100F0E3FE00E003E0681E45B2002D3C
:103D8000ECDC00BFFF2084F8450000F02FFD00F0C0
:103D900003FD94F9445010E0206908B9012000E0C7
:103DA000002048B904F1100001F082FC08B100F0D5
:103DB000C5FE681E45B200E001E0002DECDC00BF4E
:103DC000FF2084F8440000F011FD70BD2DE9F041A2
:103DD00004464FF0000800F03DFF4648006808B96F
:103DE000FFF7A4FC44480068204000286BD1D4B100
:103DF000083404F00700B0B104F00700C0F1080077
:103E0000044404F0070008B9012000E0002050B984
:103E100000BF502080F31188BFF34F8FBFF36F8F27
:103E200000BF00BFFEE7002C4DD03448006884423C
:103E300049D8334E3046056801E02E462D68686843
:103E4000A04202D228680028F7D12A48006885429B
:103E500039D0306800F10808286830606868001BB5
:103E6000102819D92F1907F0070008B9012000E020
:103E7000002050B900BF502080F31188BFF34F8F4E
:103E8000BFF36F8F00BF00BFFEE76868001B78605C
:103E90006C603846FFF74CFD184968680968081AD5
:103EA000164908600846006816490968884203D226
:103EB00012480068134908600F4968680968084398
:103EC00068600020286001F03FFC08F0070008B996
:103ED000012000E0002050B900BF502080F311887D
:103EE000BFF34F8FBFF36F8F00BF00BFFEE74046A9
:103EF000BDE8F081C0000020CC000020C4000020FC
:103F0000B8000020C8000020001F4FF0807303603D
:103F1000001F21F001030360001F054B03601438EC
:103F20000260001F6FF0020303602038704700003A
:103F3000F53C000810B586B0044640F2FF10019031
:103F400000208DF80C008DF80D0008208DF80E0073
:103F5000200A8DF80F008DF8104000218DF8111007
:103F60008DF812108DF813108DF814108DF81510AF
:103F70008DF8161001A90248FCF79FFC06B010BD91
:103F80000064004010B52DED0E8B0446D4F8C80235
:103F9000401CC4F8C802D4F8CC02401CC4F8CC02BF
:103FA000A078E8BBF649D1F8C40201F02AFF41EC41
:103FB0001C0BD4F8C80201F03BFF41EC1E0B9FED37
:103FC000F10B53EC102B01F047FF41EC1D0B53ECB0
:103FD0001C2B01F08FFD41EC1B0BB0EE4B0AF0EEF9
:103FE0006B0AFDF7ADFDB0EE40AAF0EE60AA9FEDC2
:103FF000E70B53EC102B51EC1A0B01F02DFF41ECA9
:10400000190B9FEDE40B53EC102B01F0CBFC41ECB2
:10401000180B01F095FC4FF4FE710851D84900E0EF
:1040200009E0D4F8C802D1F8C412884202D10020B5
:10403000C4F8C802FCE1A078012870D19FEDD71A1E
:10404000DFEDD60A9FEDD60AD648FFF7CAF92078E9
:10405000002865D1CA49D1F8C00201F0D2FE41EC76
:104060001C0BD4F8C80201F0E3FE41EC1E0B9FEDDF
:10407000C50B53EC102B01F0EFFE41EC1D0B53EC84
:104080001C2B01F037FD41EC1B0BB0EE4B0AF0EEA0
:104090006B0AFDF755FDB0EE40AAF0EE60AA9FED69
:1040A000C20B53EC102B51EC1A0B01F0D5FE41EC76
:1040B000190B9FEDB80B53EC102B01F073FC41EC86
:1040C000180B01F03DFC4FF4FE71085194EDAA0A63
:1040D000DFEDB70A30EE600AB5EEC00AF1EE10FA75
:1040E00008D294EDAA0ADFEDB20A30EE600AB1EE12
:1040F000400A05E094EDAA0ADFEDAD0A30EE600A51
:10410000F7EE000AB4EEE00AF1EE10FA44D2012014
:1041100020704FF4AF709A49C1F8C0023CE046E00D
:104120009749D1F8C00201F06CFE41EC1C0BD4F8A9
:10413000C80201F07DFE41EC1E0B9FED920B53EC8B
:10414000102B01F089FE41EC1D0B53EC1C2B01F0F0
:10415000D1FC41EC1B0BB0EE4B0AF0EE6B0AFDF705
:10416000EFFCB0EE40AAF0EE60AA9FED920B53EC8C
:10417000102B51EC1A0B01F06FFE41EC190B9FED67
:10418000850B53EC102B01F00DFC41EC180B01F0EA
:10419000D7FB4FF4FE7108517949D4F8C802D1F821
:1041A000C012884202D10020C4F8C80240E1A078C1
:1041B000022870D19FED7E0A84ED2D0A9FED7F0AC3
:1041C00084ED7F0A04F1A80000F03AF9D4F8D00297
:1041D000052808D104F5F87104F5A670FEF764FE11
:1041E0000020C4F8D00294EDAA0AB5EEC00AF1EEA0
:1041F00010FA04D294EDAA0AB1EE400A01E094ED5F
:10420000AA0ADFED6B0A30EE600AB5EEC00AF1EEE5
:1042100010FA14D294EDAA0AB5EEC00AF1EE10FA23
:1042200004D294EDAA0AB1EE400A01E094EDAA0A84
:10423000DFED5F0A30EE600AB1EE400A11E094ED66
:10424000AA0AB5EEC00AF1EE10FA04D294EDAA0A59
:10425000B1EE400A01E094EDAA0ADFED550A30EE16
:10426000600AF2EE0E0AB4EEE00AF1EE10FA0DD298
:1042700094ED430AD4ED950A30EE200ABDEEC00A53
:1042800010EE100A00B2A4F8BC02D1E00020A4F89D
:10429000BC02CDE0FFE7A07803286FD1607800284A
:1042A0006DD19FED3E1ADFED3D0AB0EE080A3D48A4
:1042B000FFF797F8D4F8CC02012802D0C8281CD107
:1042C0000DE09FED361ADFED350A9FED3D0A3548CA
:1042D000FFF787F89FED3B0A84ED7F0A0DE09FED25
:1042E0002F1ADFED2E0AB0EE080A2E48FFF779F8F4
:1042F0009FED320A84ED7F0A00BF00BFD4F8CC02E4
:10430000B0F5487F02D10020C4F8CC0294EDAA0A8F
:10431000B5EEC00AF1EE10FA04D294EDAA0AB1EE9D
:10432000400A01E094EDAA0ADFED210A30EE600AAE
:10433000B5EEC00AF1EE10FA14D294EDAA0AB5EE69
:10434000C00AF1EE10FA04D294EDAA0AB1EE400AC6
:1043500001E094EDAA0ADFED160A30EE600AB1EE34
:10436000400A37E094EDAA0AB5EEC00AF1EE10FA61
:104370002AD294EDAA0AB1EE400A27E058E033E0D1
:104380002C0200204AD8124DFB21194000000000E9
:1043900000002E400000000000806B400000000084
:1043A000000048421C0400200000000000004940BA
:1043B00000003443000000000000144000005C4393
:1043C0000000C8420000204394EDAA0A5FED080AED
:1043D00030EE600AF2EE0E0AB4EEE00AF1EE10FAE8
:1043E0001CD20120607019E01FED141A5FED150A50
:1043F000B0EE080A1048FEF7F4FF1FED130A84ED33
:104400002D0A04F1A801201DFEF74EFD94ED430A8C
:104410005FED160A30EE200A84ED7F0A0749D4F8D2
:10442000C802D1F8C012884202D10020C4F8C802E4
:10443000BDEC0E8B10BD00001C0400202C020020DF
:1044400000B50146D1F88C0003287DD191ED030A17
:10445000D1ED040A30EE600A81ED070A91ED000A01
:10446000D1ED070A20EE200A81ED080A91ED090A34
:10447000D1ED010A91ED071A00EE810A81ED090ADA
:1044800091ED070AB5EEC00AF1EE10FA04D291EDF3
:10449000070AB1EE400A01E091ED070AB5EEC00A45
:1044A000F1EE10FA1DD091ED070AB5EEC00AF1EE5B
:1044B00010FA04D291ED070AB1EE400A01E091ED45
:1044C000070AD1ED1E0AB4EEE00AF1EE10FA04DD9F
:1044D0009FED280A81ED210A03E0B7EE000A81ED85
:1044E000210AD1ED260AF8EE600AB0EE600A01F169
:1044F0002400FDF79FFF91ED020AD1ED140AB7EEFB
:10450000001A71EE600A20EE200AD1ED070A91ED43
:10451000061A70EEC10A20EE200AD1ED140A91EDC0
:104520000B1A00EE810A81ED0C0A91ED080AD1ED1B
:10453000210A91ED091A00EE810AD1ED0C0A30EE44
:10454000200A81ED190A00E011E0D1ED250AF8EE0C
:10455000600AB0EE600A01F16400FDF76BFF91EDB7
:10456000070A81ED060A91ED0C0A81ED0B0A91ED27
:10457000190A00BD000000001CB5044600F00CF94B
:104580000020012103468022CDE900100AA10D4838
:1045900000F040FF002002210346CA01CDE90010CF
:1045A00009A10D4800F036FF0C48006800F040FA01
:1045B00000F01CF91CBD00006C6564315F74617310
:1045C0006B0000004D2E0008636F6E74726F6C5F9D
:1045D0007461736B00000000CD2A00080000002009
:1045E00010B5B420FEF776FBFEF75AF8FEF71AFA7C
:1045F000FDF77CFFFEF7E4F9FDF734FFFEF73EF927
:104600004FF47A70FEF7A8FB10210248FCF779FC02
:1046100010BD0000001C024010B504463348FCF7F2
:104620006BFFA4F89402B4F8940200EE100AB8EEFE
:10463000400A4FF427700059401E00EE900AF8EE31
:10464000E00A9FED2B1A00EE810ADFED2A0A20EE28
:10465000200A84EDAA0A94EDAA0A84ED2E0A94EDAC
:10466000B60A84EDB50AD4F8B80290ED050A84EDD7
:10467000B60A94EDB60AD4EDB50A30EE600ADFED65
:104680001E0AB4EEE00AF1EE10FA05D2D4F8DC020C
:10469000401CC4F8DC0211E094EDB60AD4EDB50A72
:1046A00030EE600ADFED150AB4EEE00AF1EE10FA22
:1046B00004DDD4F8DC02401EC4F8DC02D4F8B802F1
:1046C000B0F9040000EE100AB8EEC00A84ED570AF3
:1046D00094EDB60AD4EDB70AF8EEE00A9FED081A99
:1046E00000EE810A84ED800A10BD00000008004041
:1046F0000000FA45EC51383D000034C3000034435B
:104700000000B44301460A69D1E901309860D1E95B
:10471000010358605068884201D1886850600020C9
:1047200008611068401E10601068704700F10801B1
:1047300041604FF0FF31816000F10801C16001610B
:1047400000210160704700210161704710B50246E9
:104750000B685C1C0CB9106907E002F1080000E06E
:104760004068446824689C42FAD944684C604C68AC
:10477000A160886041600A611468641C146010BD07
:1047800042684A6093688B609368596091600861E1
:1047900003685B1C0360704700BF502080F31188E2
:1047A000BFF34F8FBFF36F8F00BF0E480068401CF0
:1047B0000C49086008460068012812D10A480068C0
:1047C000C0B208B9012000E0002050B900BF50205D
:1047D00080F31188BFF34F8FBFF36F8F00BF00BF0F
:1047E000FEE77047D000002004ED00E00D480068AF
:1047F00050B900BF502080F31188BFF34F8FBFF333
:104800006F8F00BF00BFFEE706480068401E0549E5
:1048100008600846006820B9002080F3118800BFB6
:1048200000BF7047D000002070B506463546002E08
:104830003FD0083D2C461F4960680968084008B110
:10484000012000E0002050B900BF502080F3118803
:10485000BFF34F8FBFF36F8F00BF00BFFEE720682D
:1048600008B9012000E0002050B900BF502080F3BB
:104870001188BFF34F8FBFF36F8F00BF00BFFEE7FC
:104880000C4960680968084098B1206888B90949EE
:10489000606809688843606000F0DCF90649606878
:1048A00009680844044908602046FFF741F800F011
:1048B0004BFF70BDCC000020C400002000204FF052
:1048C000E02108618861064800684FF47A71B0FB06
:1048D000F1F0401E4FF0E021486107200861704769
:1048E0000800002070B5FBF70DFD0446102C16D310
:1048F00004F1E02090F8F05315480078854201DB80
:10490000012000E0002050B900BF502080F3118842
:10491000BFF34F8FBFF36F8F00BF00BFFEE70D489F
:10492000006800F4E0600C490968884201D8012061
:1049300000E0002050B900BF502080F31188BFF381
:104940004F8FBFF36F8F00BF00BFFEE770BD000049
:10495000D40000200CED00E0D8000020024600202A
:104960000BE0084B53F8303033B9064B43F83010A6
:1049700003EBC0035A6002E0401C0828F1D300BFDB
:1049800070470000D40500202DE9F04105460E4691
:1049900017462C46FFF700FF94F94400401C10B95D
:1049A000002084F8440094F94500401C10B9002010
:1049B00084F84500FFF71AFFA06B28B93A46314644
:1049C00004F1240000F0DCF82046FFF7C0F9BDE850
:1049D000F081000070B504460025D4B1124800688B
:1049E00008B9012000E0002050B900BF502080F33A
:1049F0001188BFF34F8FBFF36F8F00BF00BFFEE77B
:104A000000F028F900212046FEF720FD00F09CFE72
:104A100005463DB94FF0805004490860BFF34F8F01
:104A2000BFF36F8F70BD0000A000002004ED00E018
:104A300070B50546FFF7B0FE15B93048006800E0D4
:104A400028460446201DFFF75DFE78B9E06A00EBBA
:104A500080002B4951F8200040B994F82C10012017
:104A6000884028490968814326480160A06A18B136
:104A700004F11800FFF746FE23480068401C224955
:104A800008601E480068844209D1211D1F48FFF7B5
:104A900077FE1F480068401C1D49086009E01D485A
:104AA0000068401E1B4908602046FEF721FEFFF704
:104AB000A1F8FFF79BFE18480068E8B10F480068AE
:104AC000844219D11548006808B9012000E000208F
:104AD00050B900BF502080F31188BFF34F8FBFF350
:104AE0006F8F00BF00BFFEE74FF080500C49086099
:104AF000BFF34F8FBFF36F8F70BD000068000020C1
:104B00000C0500208000002094000020AC0500204F
:104B1000740000207800002084000020A000002005
:104B200004ED00E003490968016003490968416038
:104B300070470000900000207C0000200120014907
:104B4000086070478C00002070B504460D4654B9CB
:104B500000BF502080F31188BFF34F8FBFF36F8FDA
:104B600000BF00BFFEE70548016818312046FFF787
:104B7000EDFD01212846FEF769FC70BD68000020AC
:104B800070B505460E46144655B900BF502080F357
:104B90001188BFF34F8FBFF36F8F00BF00BFFEE7D9
:104BA0000648016818312846FFF7EAFD0CB14FF0BE
:104BB000FF3621463046FEF749FC70BD68000020F4
:104BC0001CB51D4800210B468222CDE900101BA117
:104BD0001C4800F01FFC0446012C02D100F036FEF8
:104BE0000446012C15D100BF502080F31188BFF37B
:104BF0004F8FBFF36F8F00BF4FF0FF301249086037
:104C000001201249086000201149086000F070F886
:104C100010E0601C08B1012000E0002050B900BF86
:104C2000502080F31188BFF34F8FBFF36F8F00BF09
:104C300000BFFEE71CBD00009C00002049444C451D
:104C400000000000A9370008980000208400002020
:104C50007C00002002480068401C01490860704741
:104C6000A00000201D48006818B101201C49086000
:104C700032E000201A4908601A480068B0FA80F053
:104C8000C0F11F0101EB8100174A52F8200008B162
:104C9000012000E0002050B900BF502080F31188AF
:104CA000BFF34F8FBFF36F8F00BF00BFFEE701EB75
:104CB00081020D4B03EB820042685268426000F1B2
:104CC00008024368934202D14268526842604268D7
:104CD000D268064B1A6000BF70470000A000002099
:104CE0008C000020800000200C05002068000020BF
:104CF0001CB5524800685249884201D0012000E0AA
:104D0000002050B900BF502080F31188BFF34F8FAF
:104D1000BFF36F8F00BF00BFFEE7484800684849F7
:104D2000491E884201D0012000E0002050B900BF98
:104D3000502080F31188BFF34F8FBFF36F8F00BFF8
:104D400000BFFEE73F49084600780190FF200A4671
:104D500010700846007800909DF8000000F0F00008
:104D60009DF80020904201D1012000E0002050B9C0
:104D700000BF502080F31188BFF34F8FBFF36F8FB8
:104D800000BF00BFFEE79DF8000000F050002E4A73
:104D9000107007202D4A106009E02C480068401E62
:104DA0002A4A10609DF800004006000E00909DF811
:104DB000000000F080008028EFD024480068C0F197
:104DC0000700042801D1012000E0002050B900BFF5
:104DD000502080F31188BFF34F8FBFF36F8F00BF58
:104DE00000BFFEE7194800680002184A106010462C
:104DF000008800F4E0601060124A019810700F48BB
:104E00002030006840F470000C49203108600846EA
:104E1000006840F070400860FFF750FD00200C492A
:104E20000860FBF737FA0B48006840F0404009493A
:104E30000860FBF71BFA00201CBD000000ED00E03D
:104E400071C20F4100E400E0D4000020D80000202F
:104E5000D000002034EF00E010B500BF502080F3F8
:104E60001188BFF34F8FBFF36F8F00BF00F018FBA7
:104E700018B14FF080500449086000BF002080F353
:104E8000118800BF10BD000004ED00E02DE9F843DB
:104E900005460E4690460DB1012000E0002050B9B5
:104EA00000BF502080F31188BFF34F8FBFF36F8F87
:104EB00000BF00BFFEE70EB9002701E005FB06F7C3
:104EC00007F15000FEF782FF04464CB1A14609F1FC
:104ED000500943464A46314628460094FEF778FC7E
:104EE0002046BDE8F883000070B505460E462C4606
:104EF00054B900BF502080F31188BFF34F8FBFF328
:104F00006F8F00BF00BFFEE7FFF746FCD4E90F122A
:104F1000206801FB0200A0600020A06320686060A0
:104F2000E06B401E226C216800FB0211E160FF2053
:104F300084F8440084F845009EB9206908B901202E
:104F400000E00020A8B904F1100000F0B1FB80B12E
:104F50004FF0805009490860BFF34F8FBFF36F8F48
:104F600007E004F11000FFF7E1FB04F12400FFF774
:104F7000DDFBFFF73BFC012070BD000004ED00E00D
:104F80002DE9FF4383B0064688461D464FF00009D1
:104F9000344654B900BF502080F31188BFF34F8FBF
:104FA000BFF36F8F00BF00BFFEE7B8F1000F01D164
:104FB000206C08B9012000E0002050B900BF50204B
:104FC00080F31188BFF34F8FBFF36F8F00BF00BF17
:104FD000FEE7022D02D1E06B012801D1012000E0A3
:104FE000002050B900BF502080F31188BFF34F8FCD
:104FF000BFF36F8F00BF00BFFEE700F03BFA08B9B8
:10500000059808B9012000E0002050B900BF5020E9
:1050100080F31188BFF34F8FBFF36F8F00BF00BFC6
:10502000FEE700BFFFF7B8FBA06BE16B884201D33E
:10503000022D28D12A4641462046FEF71AFB074694
:10504000606A08B9012000E0002068B904F124007A
:1050500000F02EFB88B14FF0805032490860BFF35A
:105060004F8FBFF36F8F08E03FB14FF080502D4955
:105070000860BFF34F8FBFF36F8FFFF7B7FB0120BF
:1050800007B0BDE8F083059818B9FFF7AFFB002023
:10509000F6E7B9F1000F04D101A8FFF743FD4FF087
:1050A0000109FFF7A3FBFFF7D5FDFFF775FB94F9A7
:1050B0004400401C10B9002084F8440094F94500D5
:1050C000401C10B9002084F84500FFF78FFB05A9AC
:1050D00001A800F059F9F0B92046FEF796FCA0B1FE
:1050E00004F110000599FFF72FFD2046FEF72FFE73
:1050F00000F02AFB002895D14FF080500949086044
:10510000BFF34F8FBFF36F8F8CE72046FEF71FFE74
:1051100000F01AFB86E72046FEF719FE00F014FBAC
:105120000020ADE704ED00E02DE9F05F07468A4678
:1051300090461E463C4654B900BF502080F311886B
:10514000BFF34F8FBFF36F8F00BF00BFFEE7BAF111
:10515000000F01D1206C08B9012000E0002050B9F7
:1051600000BF502080F31188BFF34F8FBFF36F8FC4
:1051700000BF00BFFEE7022E02D1E06B012801D183
:10518000012000E0002050B900BF502080F31188BA
:10519000BFF34F8FBFF36F8F00BF00BFFEE7FFF776
:1051A000A1FB00BF5021EFF3118081F31188BFF301
:1051B0004F8FBFF36F8F00BF0546A06BE16B884236
:1051C00001D3022E23D194F945B0324651462046F0
:1051D000FEF74FFA0BF1010088B9606A08B90120A7
:1051E00000E0002080B904F1240000F061FA58B119
:1051F000B8F1000F08D00120C8F8000004E00BF15E
:10520000010040B284F845004FF0010901E04FF081
:10521000000900BF85F3118800BF4846BDE8F09F34
:105220002DE9F74183B005460E464FF000082C46A5
:1052300054B900BF502080F31188BFF34F8FBFF3E4
:105240006F8F00BF00BFFEE70EB9206C08B90120C8
:1052500000E0002050B900BF502080F31188BFF358
:105260004F8FBFF36F8F00BF00BFFEE700F002F962
:1052700008B9059808B9012000E0002050B900BF26
:10528000502080F31188BFF34F8FBFF36F8F00BFA3
:1052900000BFFEE700BFFFF77FFAA76BF7B131460B
:1052A0002046FEF7D1F9781EA063206908B90120D5
:1052B00000E0002060B904F1100000F0F9F938B105
:1052C0004FF080502F490860BFF34F8FBFF36F8FAF
:1052D000FFF78CFA012006B0BDE8F081059818B9F7
:1052E000FFF784FA0020F6E7B8F1000F04D101A817
:1052F000FFF718FC4FF00108FFF778FAFFF7AAFC58
:10530000FFF74AFA94F94400401C10B9002084F8D1
:10531000440094F94500401C10B9002084F8450071
:10532000FFF764FA05A901A800F02EF8F0B92046AD
:10533000FEF75EFBA0B104F124000599FFF704FC21
:105340002046FEF704FD00F0FFF90028A3D14FF03E
:1053500080500C490860BFF34F8FBFF36F8F9AE7FF
:105360002046FEF7F4FC00F0EFF994E72046FEF744
:10537000EEFC00F0E9F92046FEF73AFB00288AD05F
:105380000020A8E704ED00E070B505460C4655B9CD
:1053900000BF502080F31188BFF34F8FBFF36F8F92
:1053A00000BF00BFFEE754B900BF502080F3118852
:1053B000BFF34F8FBFF36F8F00BF00BFFEE7FFF754
:1053C000EBF9124802686868131A2068401C08B993
:1053D000002617E00E4928680968884204D06868EA
:1053E000904201D801260DE02068984207D9206834
:1053F000C01A20602846FFF795FB002602E0002037
:1054000020600126FFF7F2F9304670BD7C000020D5
:10541000900000202DE9FF4F85B080468946174651
:10542000DDE912ABB800FEF7D1FC064656B15820B4
:10543000FEF7CCFC04460CB1266304E03046FFF7CF
:10544000F3F900E000247CB10020CDE900ABCDE908
:1054500002403A4649464046089BFEF7CEF92046B0
:10546000FEF740F8012501E04FF0FF35284609B06E
:10547000BDE8F08F0549096809B9012005E0044934
:10548000096809B9022000E000207047840000206C
:10549000A000002001490868704700007C0000203F
:1054A0002DE9F0414FF0000844480068002877D10A
:1054B00043480068451C4248056015BB41480068E8
:1054C000006808B9012000E0002050B900BF50205A
:1054D00080F31188BFF34F8FBFF36F8F00BF00BF02
:1054E000FEE738480768384800683649086036489B
:1054F000076036480068401C34490860FEF77AFBB4
:1055000000BF3348006885423CD300BF2D48006887
:10551000006808B9012000E0002020B14FF0FF3002
:105520002B4908602DE027480068C068C468666899
:10553000B54202D22648066023E0201DFFF7E2F8BC
:10554000A06A18B104F11800FFF7DCF894F82C10E9
:10555000012088401F49096808431E490860E16A24
:1055600001EB81011C4A02EB8100211DFFF708F9C4
:105570001A49E06A0968C96A8842C7D34FF001082E
:10558000C4E700BF15480068C06A00EB80001249FC
:1055900051F82000012801D94FF0010805E0FFE78C
:1055A0000F480068401C0E4908600E48006808B1AA
:1055B0004FF001084046BDE8F0810000A000002047
:1055C0007C0000206C000020700000209000002073
:1055D00098000020800000200C05002068000020BA
:1055E000880000208C00002070B505462C4600265F
:1055F000002D55D02B480068844201D1012000E0E5
:10560000002050B900BF502080F31188BFF34F8FA6
:10561000BFF36F8F00BF00BFFEE7E06C50B900BF63
:10562000502080F31188BFF34F8FBFF36F8F00BFFF
:1056300000BFFEE7E06C401EE064A16CE06A8842B7
:105640002ED0E06C60BB201DFFF75CF878B9E06AF3
:1056500000EB8000144951F8200040B994F82C1058
:105660000120884011490968814310480160A06CFD
:10567000E062E06AC0F10500A06194F82C100120FE
:1056800088400A490968084308490860E16A01EB53
:105690008101054A02EB8100211DFFF771F8012607
:1056A000304670BD680000200C05002080000020FE
:1056B00070B50646F068C46854B900BF502080F346
:1056C0001188BFF34F8FBFF36F8F00BF00BFFEE79E
:1056D00004F11800FFF716F815480068A8B9201D56
:1056E000FFF710F894F82C10012088401149096840
:1056F000084310490860E16A01EB81010E4A02EBA0
:105700008100211DFFF73CF804E004F118010B486B
:10571000FFF736F80A49E06A0968C96A884204D97D
:10572000012501200749086000E00025284670BDDA
:10573000A0000020800000200C050020980500201B
:10574000680000208C00002070B500240026364838
:10575000006850B900BF502080F31188BFF34F8F0D
:10576000BFF36F8F00BF00BFFEE7FFF715F82E48AD
:105770000068401E2C4908600846006800284FD188
:105780002A48006800284BD024E02948C068C46833
:1057900004F11800FEF7B6FF201DFEF7B3FF94F8E2
:1057A0002C100120884023490968084321490860DA
:1057B000E16A01EB8101204A02EB8100211DFEF725
:1057C000DFFF1E49E06A0968C96A884202D30120E6
:1057D0001B4908601648006808B9012000E0002055
:1057E0000028D2D00CB1FEF705FA1648056865B15D
:1057F00000BFFFF755FE10B10120114908606D1E72
:10580000002DF6D100200F4908600D48006838B11E
:10581000012630070C490860BFF34F8FBFF36F8F2D
:10582000FEF7E4FF304670BDA000002078000020A5
:1058300098050020800000200C0500206800002052
:105840008C0000208800002004ED00E01CB500243E
:10585000FDF7A4FE0E48006858B10E48022100234F
:105860004FF48272CDE900100BA10D48FFF7D2FD75
:10587000044654B900BF502080F31188BFF34F8F06
:10588000BFF36F8F00BF00BFFEE720461CBD0000C6
:10589000AC000020B0000020546D722053766300ED
:1058A000353D00082DE9FE4304460D4616461F46C9
:1058B000DDF828804FF0000954B900BF502080F374
:1058C0001188BFF34F8FBFF36F8F00BF00BFFEE79C
:1058D0001448006810B3009501960294062D15DA5D
:1058E000FFF7C8FD022808D10023424669460D484B
:1058F0000068FFF745FB814610E000231A46694621
:1059000008480068FFF73CFB814607E000233A4661
:10591000694604480068FFF707FC81464846BDE831
:10592000FE830000AC00002081F00041704780F051
:105930000040704721F00041704720F00040704760
:1059400021F00042A2F16052B2F5801F01F0004345
:1059500028BFD2F17F6C0BD95FEA001C43EAC20278
:1059600042EB507018BF704728BF20F0010070470D
:10597000B2F5801FBCBF184670474FEA410C1CF5BA
:10598000001F02D2084600F060BC70B500F00EFBAC
:1059900000000089FFF7F6BF4FF00040A0F580003F
:1059A0007047000010B591EA030F48BF83F0004331
:1059B00000F16483841A71EB030C05D2121943EBD6
:1059C0000C03001B61EB0C01DFF824E14FEA1154DA
:1059D000A4EB135C1EEA430F18BF9EEA445F73D02A
:1059E00023EA0E03DCF1200E21EA045143F4801374
:1059F00032D322FA0CFE10EB0E0023FA0CFE41EB20
:105A00000E01CCF1200E03FA0EFE10EB0E0051F148
:105A10000001B1F5801FCCF1200E32D201EB045110
:105A200012FA0EF2BDE8104058BF7047401C38BF54
:105A30005FEA420218BF7047002814BF20F001003F
:105A400041F100014FEA410313F5001F38BF7047D1
:105A5000A1F1C04100F0F8BA012A43EB0302ACF116
:105A6000200CDCF11F0E32BF4FF0000E23FA0CF3B6
:105A700010EB030041EB0451B4EB115FD0D0A1EB6C
:105A8000045101F5801149085FEA300001EB04512F
:105A90000ED350F1000038BF12FA0EFE08D1BDE857
:105AA0001040C9E7401C38BF5FEA4202CAD1C3E7D1
:105AB000BDE810404FEA410313F5001F38BF70479F
:105AC000A1F1C04100F0C0BA9EEA445F08D011EADB
:105AD0005E0FBDE8104004BF01F000410020704798
