:020000040800F2
:10000000F04201200D0300083906000831060008FF
:10001000350600084D05000823090008000000000F
:100020000000000000000000000000004D02000879
:100030005105000800000000A9020008C5070008DB
:1000400027030008270300082703000827030008E8
:1000500027030008270300082703000827030008D8
:1000600027030008270300082703000827030008C8
:1000700027030008270300082703000827030008B8
:1000800027030008270300082703000827030008A8
:100090002703000827030008270300082703000898
:1000A0002703000827030008270300082703000888
:1000B0002703000827030008270300082703000878
:1000C0002703000827030008270300082703000868
:1000D0002703000827030008270300083D0800083D
:1000E0002703000827030008270300082703000848
:1000F0002703000827030008270300082703000838
:100100002703000827030008270300082703000827
:100110002703000827030008270300082703000817
:100120002703000827030008270300082703000807
:1001300027030008270300082703000827030008F7
:1001400027030008270300082703000827030008E7
:1001500027030008270300082703000827030008D7
:1001600027030008270300082703000827030008C7
:1001700027030008270300082703000800000000E9
:1001800027030008270300082703000827030008A7
:100190002703000827030008270300082703000897
:1001A00000000000000000002703000800F002F833
:1001B00000F03CF80AA090E8000C82448344AAF1C5
:1001C0000107DA4501D100F031F8AFF2090EBAE8C3
:1001D0000F0013F0010F18BFFB1A43F0010318477B
:1001E000DC270000FC270000103A24BF78C878C143
:1001F000FAD8520724BF30C830C144BF04680C602D
:10020000704700000023002400250026103A28BF74
:1002100078C1FBD8520728BF30C148BF0B60704778
:100220001FB502F0C5FB1FBD10B510BD00F05BF996
:100230001146FFF7F5FF00F0EFFC00F079F903B489
:10024000FFF7F2FF03BC00F06EFB00002C4B1968B7
:100250000868B0E8F04F80F30988BFF36F8F4FF064
:10026000000080F311887047000000000848006813
:10027000006880F308884FF0000080F3148862B6AD
:1002800061B6BFF34F8FBFF36F8F00DF00BF00BFBA
:1002900008ED00E0DFF80C00016841F47001016036
:1002A000704700BF88ED00E0EFF30980BFF36F8F68
:1002B000134B1A681EF0100F08BF20ED108A20E9BA
:1002C000F04F106009B44FF0500080F31188BFF375
:1002D0004F8FBFF36F8F01F009FD4FF0000080F3E7
:1002E000118809BC19680868B0E8F04F1EF0100FBB
:1002F00008BFB0EC108A80F30988BFF36F8F704796
:1003000024000020EFF30580704700000948804773
:1003100009480047FEE7FEE7FEE7FEE7FEE7FEE7E7
:10032000FEE7FEE7FEE7FEE704480549054A064BFF
:1003300070470000D5070008AD010008F02E01202D
:10034000F0420120F03E0120F03E01207047032AD8
:1003500040F2308010F0030C00F0158011F8013BE2
:10036000BCF1020F624498BF11F801CB00F8013BC9
:1003700038BF11F8013BA2F1040298BF00F801CB8D
:1003800038BF00F8013B11F0030300F03180083A58
:10039000C0F0088051F8043B083A51F804CBA0E8BB
:1003A0000810F5E7121D5CBF51F8043B40F8043B10
:1003B000AFF30080D20724BF11F8013B11F801CB45
:1003C00048BF11F8012B24BF00F8013B00F801CB16
:1003D00048BF00F8012B704702F0FF0343EA0322F5
:1003E00042EA024200F038B87047704770477047E1
:1003F00010B5203AC0F00B80B1E81850203AA0E8C0
:100400001850B1E81850A0E81850BFF4F5AF5FEAF3
:10041000027C24BFB1E81850A0E8185044BF18C9A6
:1004200018C0BDE810405FEA827C24BF51F8043B4D
:1004300040F8043B08BF7047D20728BF31F8023BA1
:1004400048BF11F8012B28BF20F8023B48BF00F835
:10045000012B70474FF000020429C0F0128010F009
:10046000030C00F01B80CCF1040CBCF1020F18BF90
:1004700000F8012BA8BF20F8022BA1EB0C0100F023
:100480000DB85FEAC17C24BF00F8012B00F8012BF6
:1004900048BF00F8012B70474FF0000200B513462B
:1004A00094469646203922BFA0E80C50A0E80C5094
:1004B000B1F12001BFF4F7AF090728BFA0E80C5045
:1004C00048BF0CC05DF804EB890028BF40F8042B3E
:1004D00008BF704748BF20F8022B11F0804F18BFAB
:1004E00000F8012B7047754600F02CF8AE46050069
:1004F0006946534620F00700854618B020B5FFF73F
:1005000013FFBDE820404FF000064FF000074FF00A
:1005100000084FF0000B21F00701AC46ACE8C00921
:10052000ACE8C009ACE8C009ACE8C0098D4670472A
:1005300010B50446AFF300802046BDE81040FFF739
:100540007EBE000000487047902E012000BFFEE7ED
:100550007047F0B50A4600210023002400BF3DE0AB
:10056000012505FA01F3156805EA03049C4234D11C
:1005700005684F000326BE40B543056015794E005F
:10058000B5400668354305601579012D02D015790F
:10059000022D16D185684F000326BE40B543856005
:1005A00055794E00B540866835438560456801261B
:1005B0008E40B5434560456896798E40B6B2354366
:1005C0004560C5684F000326BE40B543C560D57978
:1005D0004E00B540C6683543C560491C1029BFD3DD
:1005E000F0BDF0B5002300244D07ED0E02FA05F32F
:1005F000CE1000F1200555F826504E07F70E0F26B5
:10060000BE40B543CF1000F1200646F82750CE106B
:1006100000F1200555F8265045EA0304CE1000F1FC
:10062000200545F82640F0BD41837047018370479F
:1006300000BFFEE700BFFEE77047000029B1064A91
:1006400012680243044B1A6004E0034A12688243B2
:10065000014B1A60704700003038024029B1064A49
:1006600012680243044B1A6004E0034A1268824392
:10067000014B1A6070470000443802400CB500205E
:10068000019000904148006840F480303F49086084
:1006900000BF3E48006800F4003000900198401C04
:1006A0000190009818B90198B0F5A04FF1D13748E2
:1006B000006800F4003010B10120009001E000203B
:1006C00000900098012860D130484030006840F028
:1006D00080502E49403108602D48006840F4404069
:1006E0002B4908602948083000682849083108600B
:1006F0000846006840F4004008600846006840F47E
:10070000A05008602348091F0860081F006840F0D7
:100710008070091F086000BF1C48006800F000706E
:100720000028F9D01A48006840F480301849086061
:1007300000BF1748406800F480300028F9D0144802
:10074000006840F400301249086000BF104840685B
:1007500000F400300028F9D040F205700E4908601E
:100760000A480830006820F0030008490831086092
:100770000846006840F00200086000BF03480830E7
:10078000006800F00C000828F8D10CBD00380240C9
:10079000007000400C5A4007003C0240042808D179
:1007A0004FF0E021096941F004014FF0E0221161AE
:1007B00007E04FF0E021096921F004014FF0E02249
:1007C0001161704710B501F099FE012801D001F0C8
:1007D00087FB10BD10B51548006840F47000134940
:1007E00008601348006840F00100114908600020CB
:1007F0000F49083108600E4800680E4908400C494E
:1008000008600D48091D0860081F006820F480205A
:10081000091F0860002006490C310860FFF72EFF11
:100820004FF0006001498039086010BD88ED00E09C
:1008300000380240FFFFF6FE1030002410B540F2F1
:1008400025511D4800F03EF810B31B4800F064F835
:10085000C4B21A48008800F40040C8B9174800889C
:1008600000F4804060B10A2C03D0002013490880B6
:1008700020E01248008840F400401049088019E048
:100880000D2C06D10D48008840F480400B490880AB
:1008900010E00A480088C0F30D0009490C540748CD
:1008A0000088401C0549088008460088C72801DDEB
:1008B0000020088010BD00000048004020000020FB
:1008C0009800002070B50246002400230025002077
:1008D00040F66A16B14200D100BFC1F3421501F0E3
:1008E0001F03012606FA03F3012D02D19689334036
:1008F00006E0022D02D1168A334001E0968A334089
:100900000C12012606FA04F41688344013B10CB117
:10091000012000E0002070BD01468888C0F3080077
:10092000704700BFFEE700BF704700001CB5012103
:100930000846FFF783FE01210220FFF77FFE012119
:100940000820FFF77BFE01211020FFF777FE012131
:100950004020FFF773FE01212020FFF76FFE0121E9
:100960000802FFF76BFE01218020FFF767FE0121DF
:100970000220FFF773FE01208DF8040000208DF89F
:1009800006007E20009001208DF8070003208DF8DE
:10099000050069465F48FFF7DCFD7E215D48FFF7F3
:1009A00045FE8020009002208DF8040000208DF884
:1009B000060003208DF8050000208DF80700694629
:1009C0005548FFF7C6FD072211465348FFF709FEB9
:1009D00002208DF8040000208DF806004FF48440BA
:1009E000009001208DF8070002208DF8050069466F
:1009F0004848FFF7AEFD082209214648FFF7F1FD00
:100A000008220E214348FFF7ECFD0320009002204E
:100A10008DF8040000208DF806008DF807000320F3
:100A20008DF8050069463D48FFF793FD0822002137
:100A30003A48FFF7D6FD082201213848FFF7D1FDDB
:100A40004FF47070009001208DF8040000208DF8A4
:100A5000060003208DF8050001208DF80700694687
:100A60002F48FFF776FD4FF480712D48FFF7DCFD2E
:100A70004FF430712A48FFF7D9FD02208DF80400A9
:100A800000208DF806004FF44060009000208DF8A3
:100A9000070003208DF8050069462248FFF759FD3D
:100AA00002220B211F48FFF79CFD02220A211D484C
:100AB000FFF797FD02208DF8040000208DF8060056
:100AC0004FF48050009000208DF8070003208DF82F
:100AD000050069461348FFF73CFD02220C2111482E
:100AE000FFF77FFD02208DF8040000208DF806003E
:100AF0000120009000208DF8070003208DF80500EC
:100B000069460948FFF725FD022200210648FFF744
:100B100068FD1CBD001802400004024000100240A5
:100B200000140240001C02400020024070B5044640
:100B30000420FFF733FE0C48047025464FF47A700A
:100B400045430120094908804FF0E020006940F04A
:100B500002004FF0E021086108464561006940F05D
:100B60000100086170BD0000180000201A0000207C
:100B700070B5044601F0C2FC012810D00B48008873
:100B8000844206D309480088B4FBF0F5284600F0FB
:100B900065FF06480088B4FBF0F100FB11444FF4F8
:100BA0007A7104FB01F000F003F870BD1A00002018
:100BB00070B5034600224FF0E02675690D4E367879
:100BC00003FB06F44FF0E026B16910E04FF0E02699
:100BD000B06988420BD0884202D20E1A324402E039
:100BE0002E1A0E4432440146A24200D300E0EDE743
:100BF00000BF70BD180000200AE00648006808B970
:100C0000012000E0002003490860C82000F026FF12
:100C1000F3E70000840243421CB500F0AFFD6420FE
:100C2000FFF7A6FF0648022100230A02CDE90010C3
:100C300004A1074801F032FC01F006F800201CBDB9
:100C40000000002073746172745F7461736B000044
:100C50003D1700082DE9F04105460E461C4807687F
:100C60001C480068001D00F090FD50B9194800684C
:100C700090F82C10012088401749096881431648D4
:100C80000160681C38B936B112480168091D134863
:100C900000F0B9FD1AE07C190E4800684460BC42BF
:100CA00007D20C480168091D0D48006800F091FD4D
:100CB0000CE008480168091D0A48006800F089FD39
:100CC00009480068844201D207480460BDE8F08109
:100CD00038000020240000203C00002014020020E6
:100CE0002C000020280000205400002010B50446ED
:100CF00000F096FD24480068401C23490860234802
:100D0000006840B9214804600846006801280DD1F8
:100D100000F0DEF90AE01E48006838B91B48006898
:100D2000C06AE16A884201D818480460194800681E
:100D3000401C1849086008460068206494F82C108C
:100D40000120884014490968084313490860E16A92
:100D500001EB8101114A02EB8100211D00F053FDDE
:100D600000F088FD0A48006868B108480068C06A59
:100D7000E16A884207D24FF0805009490860BFF30A
:100D80004F8FBFF36F8F10BD340000202400002070
:100D900040000020500000203C00002060010020A6
:100DA00004ED00E010B500F03BFD10480068D0B93C
:100DB0000F4800F0FEFC0F4800F0FBFC0C480E4909
:100DC00008600C480D49086000220C210A2001F03F
:100DD000A1F8064908600846006820B108A1034848
:100DE000006800F0FFFD00F045FD10BD6800002028
:100DF000680200207C0200206000002064000020C7
:100E0000546D72510000000010B516E000F008FDAE
:100E10000C48C068C468201D00F0B7FC0A48006890
:100E2000401E0949086009480068401E07490860DB
:100E300000F020FD204600F05FF80448006800281C
:100E4000E4D110BD0002002034000020300000205A
:100E500070B504460D46206C70B1216CE068014409
:100E6000E160D4E90210884201D32168E16028469C
:100E7000226CE168FFF76BFA70BD2DE9F041044682
:100E80000F4615464FF00008A66B206C48B9206845
:100E900000282CD1A06801F0EBFB80460020A06068
:100EA00025E07DB93946226C6068FFF750FA216C65
:100EB000606808446060D4E90101884217D3206863
:100EC000606014E03946226CE068FFF740FA216C5C
:100ED000E068411AE1602168E068884203D2216C31
:100EE000A068411AE160022D01D106B1761E701C86
:100EF000A0634046BDE8F08110B50446206B00F0C9
:100F0000D7FC204600F0D4FC10BD00000146084A82
:100F1000126812680AB9012200E000220A600A6819
:100F200022B9034A1268D268106800E000207047B6
:100F30006000002030B54FF49633174800F00704E6
:100F40002CB1C01D20F00700134C041B1B1B0246D4
:100F5000124C22600024114D6C60D018083820F02B
:100F600007000F4C206000240D4D2D686C600C4D67
:100F70002D682C601146441A4C60094C24680C60A2
:100F8000084D4C682C60084D4C682C604FF00044B4
:100F9000064D2C6030BD000090020020740000203F
:100FA0007C000020840000208000002088000020B9
:100FB00000BFFFF729FF064800680128F9D94FF064
:100FC000805004490860BFF34F8FBFF36F8FF0E785
:100FD0006001002004ED00E02DE9F04106460D46D9
:100FE00017469846069C0DB9246000E02760E6632A
:100FF00025640121204600F0BBFF84F84C80BDE849
:10100000F0812DE9F05F82460E4690469B460A9F8E
:101010000C9C56B900BF502080F31188BFF34F8F4E
:10102000BFF36F8F00BF00BFFEE74FEA8801A52224
:10103000206BFFF7D1F9A8F10100216B01EB8009CA
:1010400029F0070909F0070008B9012000E0002095
:1010500050B900BF502080F31188BFF34F8FBFF30A
:101060006F8F00BF00BFFEE7002507E0715D04F150
:1010700034004155705D00B902E06D1C0A2DF5D3B6
:1010800000BF00213D200155052F00D30427E76252
:10109000A7640020E064201D00F098FB04F1180014
:1010A00000F094FB2461C7F10500A0616462002098
:1010B000206584F854005A465146484600F028FB03
:1010C00020600B9808B10B980460BDE8F09F000009
:1010D00010B5002407E004EB84010F4A02EB810005
:1010E00000F067FB641C052CF5D30C4800F061FB95
:1010F0000B4800F05EFB0B4800F05BFB0A4800F079
:1011000058FB0A4800F055FB0448094908600448A8
:101110000849086010BD000060010020C4010020E3
:10112000D8010020EC010020000200201402002061
:10113000280000202C00002010B50146164800E0D1
:10114000006803688B42FBD30246436813448B421A
:1011500004D143684C682344436001460A464B6807
:1011600013440468A34211D10C4C03682468A342C1
:1011700008D04B680468646823444B6003681B68AC
:101180000B6005E0054B1B680B6001E003680B601A
:10119000884200D0016010BD740000207C00002057
:1011A0002DE9F04104460D4616461F464FF0000853
:1011B00065602461B5420CD8F01BA169884202D356
:1011C0004FF0010811E0211D0948006800F001FB03
:1011D0000BE0BE4204D2BD4202D34FF0010804E04E
:1011E000211D0448006800F0F4FA4046BDE8F08193
:1011F000640000206000002070B5054600F010FB80
:10120000A86B08B9012400E0002400F033FB20465D
:1012100070BD70B5054600F003FBA86BE96B884212
:1012200001D1012400E0002400F024FB204670BD21
:10123000F8B505460F4616480068C068C468201D0A
:1012400000F0A3FAE06901281DD1A06941192B46DD
:101250003A462046FFF7A4FFA8B1002003462A46DD
:1012600001460090204601F061FB064656B900BFDA
:10127000502080F31188BFF34F8FBFF36F8F00BFF3
:1012800000BFFEE700BF2046616A8847F8BD000046
:101290006000002070B586B06AE00398002867DB24
:1012A000059C606908B9012000E0002010B9201DEC
:1012B00000F06BFA02A800F0BBF8054603980A2874
:1012C00054D2DFE800F009050731334F0608323405
:1012D00000BF00BF00BF00BF0498A2698118034689
:1012E0002A462046FFF75CFFE8B12046616A88473E
:1012F000E069012817D1002000900498A1694218E4
:1013000000231946204601F011FB064656B900BFDE
:10131000502080F31188BFF34F8FBFF36F8F00BF52
:1013200000BFFEE700BF22E000BF20E000BF04983E
:10133000A061A06908B1012000E0002050B900BF01
:10134000502080F31188BFF34F8FBFF36F8F00BF22
:1013500000BFFEE7A06941192B462A462046FFF749
:101360001FFF04E0204600F0A3FA00E000BF00BF2A
:10137000002203A90348006800F096FF00288CD1E2
:1013800006B070BD68000020F8B505460C4600F0B8
:10139000A5FC684600F04CF80646009820BB44B90E
:1013A000B54206D801F014FA31462846FFF740FF4F
:1013B0001CE03CB10E480068006808B9012000E05C
:1013C00000200446A91B22460A48006800F020FBC2
:1013D00001F0FEF950B94FF0805007490860BFF3A3
:1013E0004F8FBFF36F8F01E001F0F2F9F8BD0000FD
:1013F000640000206800002004ED00E00A4909684C
:10140000096809B9012100E0002121B14FF0FF3145
:10141000064A116006E004490968C968C868034AB9
:10142000416811607047000028000020540000202F
:1014300070B5044601F072F8054607480068854219
:1014400004D200F00BF80120206001E000202060B1
:1014500001480560284670BD700000202DE9F84362
:1014600032E024480068C068056822480068C06807
:10147000C468201D00F089F92046616A8847E06948
:10148000012821D1A0694619AE4207D966602461BE
:10149000211D1848006800F09CF915E00020034663
:1014A0002A4601460090204601F040FA074657B907
:1014B00000BF502080F31188BFF34F8FBFF36F8FB1
:1014C00000BF00BFFEE700BF0A480068006808B917
:1014D000012000E000200028C3D00648D0F800809A
:1014E00005480068034908600348C0F80080BDE86B
:1014F000F883000060000020640000200E480068AF
:10150000401C08B9012000E0002050B900BF502065
:1015100080F31188BFF34F8FBFF36F8F00BF00BF01
:10152000FEE700BF502080F31188BFF34F8FBFF359
:101530006F8F00BF00BFFEE78C00002008B500BF22
:101540006846FFF7E3FC044620460099FFF71CFFBE
:10155000FFF7A0FEF4E770B5044600F061F994F9D6
:10156000455010E0606A08B9012000E0002038B959
:1015700004F1240001F0E0F818B100F023FB00E0D2
:1015800003E0681E45B2002DECDC00BFFF2084F8AC
:10159000450000F06FF900F043F994F9445010E071
:1015A000206908B9012000E0002048B904F11000CA
:1015B00001F0C2F808B100F005FB681E45B200E07A
:1015C00001E0002DECDC00BFFF2084F8440000F0B7
:1015D00051F970BD2DE9F04104464FF0000800F0CC
:1015E0007DFB4648006808B9FFF7A4FC4448006842
:1015F000204000286BD1D4B1083404F00700B0B10A
:1016000004F00700C0F10800044404F0070008B922
:10161000012000E0002050B900BF502080F3118865
:10162000BFF34F8FBFF36F8F00BF00BFFEE7002CEB
:101630004DD034480068844249D8334E304605685E
:1016400001E02E462D686868A04202D22868002872
:10165000F7D12A480068854239D0306800F108087F
:10166000286830606868001B102819D92F1907F006
:10167000070008B9012000E0002050B900BF502049
:1016800080F31188BFF34F8FBFF36F8F00BF00BF90
:10169000FEE76868001B78606C603846FFF74CFD19
:1016A000184968680968081A1649086008460068F9
:1016B00016490968884203D2124800681349086035
:1016C0000F4968680968084368600020286001F0D5
:1016D0007FF808F0070008B9012000E0002050B9A9
:1016E00000BF502080F31188BFF34F8FBFF36F8F7F
:1016F00000BF00BFFEE74046BDE8F0817C0000204F
:101700008800002080000020740000208400002059
:10171000001F4FF080730360001F21F0010303607E
:10172000001F054B036014380260001F6FF00203B6
:101730000360203870470000FD1400081CB5044603
:1017400000F06EF80020012103468022CDE9001050
:1017500005A1084800F0A2FE0748006800F0ACF9B7
:1017600000F088F81CBD00006C6564315F74617323
:101770006B000000F90B00080000002010B5B42039
:10178000FFF7D4F9FFF7D2F810BD01460A69D1E995
:1017900001309860D1E9010358605068884201D156
:1017A00088685060002008611068401E1060106852
:1017B000704700F1080141604FF0FF31816000F196
:1017C0000801C160016100210160704700210161D1
:1017D000704710B502460B685C1C0CB9106907E035
:1017E00002F1080000E04068446824689C42FAD98D
:1017F00044684C604C68A160886041600A6114686C
:10180000641C146010BD42684A6093688B609368E2
:1018100059609160086103685B1C036070470000B9
:1018200000BF502080F31188BFF34F8FBFF36F8F3D
:1018300000BF0E480068401C0C490860084600685C
:10184000012812D10A480068C0B208B9012000E09E
:10185000002050B900BF502080F31188BFF34F8F94
:10186000BFF36F8F00BF00BFFEE770478C00002002
:1018700004ED00E00D48006850B900BF502080F32F
:101880001188BFF34F8FBFF36F8F00BF00BFFEE71C
:1018900006480068401E054908600846006820B9EF
:1018A000002080F3118800BF00BF70478C0000202B
:1018B00070B506463546002E3FD0083D2C461F49E0
:1018C00060680968084008B1012000E0002050B9B4
:1018D00000BF502080F31188BFF34F8FBFF36F8F8D
:1018E00000BF00BFFEE7206808B9012000E000202B
:1018F00050B900BF502080F31188BFF34F8FBFF362
:101900006F8F00BF00BFFEE70C49606809680840A0
:1019100098B1206888B9094960680968884360609F
:1019200000F0DCF906496068096808440449086069
:101930002046FFF701FC00F04BFF70BD880000203F
:101940008000002000204FF0E021086188610648F7
:1019500000684FF47A71B0FBF1F0401E4FF0E021C7
:1019600048610720086170470400002070B5FEF749
:10197000C9FC0446102C16D304F1E02090F8F05373
:1019800015480078854201DB012000E0002050B9B5
:1019900000BF502080F31188BFF34F8FBFF36F8FCC
:1019A00000BF00BFFEE70D48006800F4E0600C498E
:1019B0000968884201D8012000E0002050B900BF2A
:1019C000502080F31188BFF34F8FBFF36F8F00BF9C
:1019D00000BFFEE770BD0000900000200CED00E0AD
:1019E00094000020024600200BE0084B53F83030F2
:1019F00033B9064B43F8301003EBC0035A6002E0E2
:101A0000401C0828F1D300BF7047000028020020C6
:101A10002DE9F04105460E4617462C46FFF700FF1C
:101A200094F94400401C10B9002084F8440094F953
:101A30004500401C10B9002084F84500FFF71AFF4C
:101A4000A06B28B93A46314604F1240000F0DCF8D6
:101A50002046FFF780FDBDE8F081000070B5044628
:101A60000025D4B11248006808B9012000E0002028
:101A700050B900BF502080F31188BFF34F8FBFF3E0
:101A80006F8F00BF00BFFEE700F028F9002120465D
:101A9000FFF7E0F800F09CFE05463DB94FF080509E
:101AA00004490860BFF34F8FBFF36F8F70BD000014
:101AB0005C00002004ED00E070B50546FFF7B0FEC5
:101AC00015B93048006800E028460446201DFFF79D
:101AD0005CFE78B9E06A00EB80002B4951F82000E9
:101AE00040B994F82C1001208840284909688143A6
:101AF00026480160A06A18B104F11800FFF745FEFE
:101B000023480068401C224908601E48006884423F
:101B100009D1211D1F48FFF776FE1F480068401CB1
:101B20001D49086009E01D480068401E1B49086007
:101B30002046FFF7E1F9FFF761FCFFF79BFE18482D
:101B40000068E8B10F480068844219D11548006860
:101B500008B9012000E0002050B900BF502080F3F8
:101B60001188BFF34F8FBFF36F8F00BF00BFFEE739
:101B70004FF080500C490860BFF34F8FBFF36F8F59
:101B800070BD000024000020600100203C00002007
:101B9000500000200002002030000020340000200F
:101BA000400000205C00002004ED00E003490968CB
:101BB0000160034909684160704700004C00002043
:101BC00038000020012001490860704748000020CB
:101BD00070B504460D4654B900BF502080F31188FB
:101BE000BFF34F8FBFF36F8F00BF00BFFEE7054805
:101BF000016818312046FFF7ECFD01212846FFF768
:101C000029F870BD2400002070B505460E46144624
:101C100055B900BF502080F31188BFF34F8FBFF339
:101C20006F8F00BF00BFFEE70648016818312846E5
:101C3000FFF7E9FD0CB14FF0FF3621463046FFF7C4
:101C400009F870BD240000201CB51D4800210B467A
:101C50008222CDE900101BA11C4800F01FFC0446A5
:101C6000012C02D100F036FE0446012C15D100BF34
:101C7000502080F31188BFF34F8FBFF36F8F00BFE9
:101C80004FF0FF301249086001201249086000201F
:101C90001149086000F070F810E0601C08B10120E4
:101CA00000E0002050B900BF502080F31188BFF33E
:101CB0004F8FBFF36F8F00BF00BFFEE71CBD00005A
:101CC0005800002049444C4500000000B10F0008B6
:101CD0005400002040000020380000200248006826
:101CE000401C0149086070475C0000201D480068E6
:101CF00018B101201C49086032E000201A49086030
:101D00001A480068B0FA80F0C0F11F0101EB8100B1
:101D1000174A52F8200008B1012000E0002050B915
:101D200000BF502080F31188BFF34F8FBFF36F8F38
:101D300000BF00BFFEE701EB81020D4B03EB820009
:101D400042685268426000F108024368934202D13F
:101D50004268526842604268D268064B1A6000BF0F
:101D6000704700005C000020480000203C0000207C
:101D700060010020240000201CB552480068524930
:101D8000884201D0012000E0002050B900BF50205F
:101D900080F31188BFF34F8FBFF36F8F00BF00BF79
:101DA000FEE7484800684849491E884201D00120A2
:101DB00000E0002050B900BF502080F31188BFF32D
:101DC0004F8FBFF36F8F00BF00BFFEE73F4908464C
:101DD00000780190FF200A461070084600780090B5
:101DE0009DF8000000F0F0009DF80020904201D125
:101DF000012000E0002050B900BF502080F311887E
:101E0000BFF34F8FBFF36F8F00BF00BFFEE79DF89A
:101E1000000000F050002E4A107007202D4A10607C
:101E200009E02C480068401E2A4A10609DF8000016
:101E30004006000E00909DF8000000F08000802811
:101E4000EFD024480068C0F10700042801D1012028
:101E500000E0002050B900BF502080F31188BFF38C
:101E60004F8FBFF36F8F00BF00BFFEE719480068B8
:101E70000002184A10601046008800F4E06010600C
:101E8000124A019810700F482030006840F470002A
:101E90000C49203108600846006840F07040086036
:101EA000FFF750FD00200C490860FEF7F3F90B48DE
:101EB000006840F0404009490860FEF7D7F900206B
:101EC0001CBD000000ED00E071C20F4100E400E025
:101ED00090000020940000208C00002034EF00E0EF
:101EE00010B500BF502080F31188BFF34F8FBFF3B0
:101EF0006F8F00BF00F018FB18B14FF080500449FD
:101F0000086000BF002080F3118800BF10BD0000F2
:101F100004ED00E02DE9F84305460E4690460DB16C
:101F2000012000E0002050B900BF502080F311884C
:101F3000BFF34F8FBFF36F8F00BF00BFFEE70EB937
:101F4000002701E005FB06F707F15000FFF742FB11
:101F500004464CB1A14609F1500943464A46314670
:101F600028460094FFF738F82046BDE8F8830000C3
:101F700070B505460E462C4654B900BF502080F37C
:101F80001188BFF34F8FBFF36F8F00BF00BFFEE715
:101F9000FFF746FCD4E90F12206801FB0200A060A5
:101FA0000020A06320686060E06B401E226C216806
:101FB00000FB0211E160FF2084F8440084F8450032
:101FC0009EB9206908B9012000E00020A8B904F1F9
:101FD000100000F0B1FB80B14FF08050094908605B
:101FE000BFF34F8FBFF36F8F07E004F11000FFF7CF
:101FF000E0FB04F12400FFF7DCFBFFF73BFC0120D2
:1020000070BD000004ED00E02DE9FF4383B00646FB
:1020100088461D464FF00009344654B900BF502091
:1020200080F31188BFF34F8FBFF36F8F00BF00BFE6
:10203000FEE7B8F1000F01D1206C08B9012000E0E3
:10204000002050B900BF502080F31188BFF34F8F9C
:10205000BFF36F8F00BF00BFFEE7022D02D1E06B20
:10206000012801D1012000E0002050B900BF50201C
:1020700080F31188BFF34F8FBFF36F8F00BF00BF96
:10208000FEE700F03BFA08B9059808B9012000E026
:10209000002050B900BF502080F31188BFF34F8F4C
:1020A000BFF36F8F00BF00BFFEE700BFFFF7B8FBB5
:1020B000A06BE16B884201D3022D28D12A4641460C
:1020C0002046FEF7DAFE0746606A08B9012000E004
:1020D000002068B904F1240000F02EFB88B14FF015
:1020E000805032490860BFF34F8FBFF36F8F08E015
:1020F0003FB14FF080502D490860BFF34F8FBFF3C1
:102100006F8FFFF7B7FB012007B0BDE8F08305989C
:1021100018B9FFF7AFFB0020F6E7B9F1000F04D1C3
:1021200001A8FFF743FD4FF00109FFF7A3FBFFF7FD
:10213000D5FDFFF775FB94F94400401C10B9002051
:1021400084F8440094F94500401C10B9002084F83C
:102150004500FFF78FFB05A901A800F059F9F0B978
:102160002046FFF756F8A0B104F110000599FFF7DB
:102170002FFD2046FFF7EFF900F02AFB002895D14C
:102180004FF0805009490860BFF34F8FBFF36F8F46
:102190008CE72046FFF7DFF900F01AFB86E72046C0
:1021A000FFF7D9F900F014FB0020ADE704ED00E0E3
:1021B0002DE9F05F07468A4690461E463C4654B9D4
:1021C00000BF502080F31188BFF34F8FBFF36F8F94
:1021D00000BF00BFFEE7BAF1000F01D1206C08B9C3
:1021E000012000E0002050B900BF502080F311888A
:1021F000BFF34F8FBFF36F8F00BF00BFFEE7022E0C
:1022000002D1E06B012801D1012000E0002050B98B
:1022100000BF502080F31188BFF34F8FBFF36F8F43
:1022200000BF00BFFEE7FFF7A1FB00BF5021EFF3A7
:10223000118081F31188BFF34F8FBFF36F8F00BF01
:102240000546A06BE16B884201D3022E23D194F99D
:1022500045B0324651462046FEF70FFE0BF1010015
:1022600088B9606A08B9012000E0002080B904F153
:10227000240000F061FA58B1B8F1000F08D0012035
:10228000C8F8000004E00BF1010040B284F84500FA
:102290004FF0010901E04FF0000900BF85F31188FC
:1022A00000BF4846BDE8F09F2DE9F74183B00546E1
:1022B0000E464FF000082C4654B900BF502080F362
:1022C0001188BFF34F8FBFF36F8F00BF00BFFEE7D2
:1022D0000EB9206C08B9012000E0002050B900BF01
:1022E000502080F31188BFF34F8FBFF36F8F00BF73
:1022F00000BFFEE700F002F908B9059808B901200F
:1023000000E0002050B900BF502080F31188BFF3D7
:102310004F8FBFF36F8F00BF00BFFEE700BFFFF717
:102320007FFAA76BF7B131462046FEF791FD781E84
:10233000A063206908B9012000E0002060B904F121
:10234000100000F0F9F938B14FF080502F490860C3
:10235000BFF34F8FBFF36F8FFFF78CFA012006B0EA
:10236000BDE8F081059818B9FFF784FA0020F6E778
:10237000B8F1000F04D101A8FFF718FC4FF00108D5
:10238000FFF778FAFFF7AAFCFFF74AFA94F944003E
:10239000401C10B9002084F8440094F94500401C0A
:1023A00010B9002084F84500FFF764FA05A901A8D8
:1023B00000F02EF8F0B92046FEF71EFFA0B104F1A0
:1023C00024000599FFF704FC2046FFF7C4F800F04D
:1023D000FFF90028A3D14FF080500C490860BFF3EB
:1023E0004F8FBFF36F8F9AE72046FFF7B4F800F0E6
:1023F000EFF994E72046FFF7AEF800F0E9F9204640
:10240000FEF7FAFE00288AD00020A8E704ED00E0DD
:1024100070B505460C4655B900BF502080F31188B1
:10242000BFF34F8FBFF36F8F00BF00BFFEE754B9FC
:1024300000BF502080F31188BFF34F8FBFF36F8F21
:1024400000BF00BFFEE7FFF7EBF9124802686868BB
:10245000131A2068401C08B9002617E00E492868A6
:102460000968884204D06868904201D801260DE0CE
:102470002068984207D92068C01A20602846FFF7D4
:1024800095FB002602E0002020600126FFF7F2F90C
:10249000304670BD380000204C0000202DE9FF4F71
:1024A00085B0804689461746DDE912ABB800FFF7D4
:1024B00091F8064656B15820FFF78CF804460CB147
:1024C000266304E03046FFF7F3F900E000247CB116
:1024D0000020CDE900ABCDE902403A4649464046EE
:1024E000089BFEF78EFD2046FEF700FC012501E06B
:1024F0004FF0FF35284609B0BDE8F08F054909685F
:1025000009B9012005E00449096809B9022000E081
:1025100000207047400000205C000020014908684E
:1025200070470000380000202DE9F0414FF000080E
:1025300044480068002877D143480068451C424859
:10254000056015BB41480068006808B9012000E03B
:10255000002050B900BF502080F31188BFF34F8F87
:10256000BFF36F8F00BF00BFFEE7384807683848E9
:102570000068364908603648076036480068401CE5
:1025800034490860FEF73AFF00BF334800688542CF
:102590003CD300BF2D480068006808B9012000E066
:1025A000002020B14FF0FF302B4908602DE0274874
:1025B0000068C068C4686668B54202D226480660F2
:1025C00023E0201DFFF7E1F8A06A18B104F118001C
:1025D000FFF7DBF894F82C10012088401F490968A8
:1025E00008431E490860E16A01EB81011C4A02EBC5
:1025F0008100211DFFF707F91A49E06A0968C96AD5
:102600008842C7D34FF00108C4E700BF15480068EF
:10261000C06A00EB8000124951F82000012801D95E
:102620004FF0010805E0FFE70F480068401C0E4925
:1026300008600E48006808B14FF001084046BDE848
:10264000F08100005C0000203800002028000020FD
:102650002C0000204C000020540000203C000020F2
:1026600060010020240000204400002048000020D9
:1026700070B505462C460026002D55D02B48006825
:10268000844201D1012000E0002050B900BF502059
:1026900080F31188BFF34F8FBFF36F8F00BF00BF70
:1026A000FEE7E06C50B900BF502080F31188BFF303
:1026B0004F8FBFF36F8F00BF00BFFEE7E06C401E7F
:1026C000E064A16CE06A88422ED0E06C60BB201D03
:1026D000FFF75BF878B9E06A00EB8000144951F825
:1026E000200040B994F82C10012088401149096855
:1026F000814310480160A06CE062E06AC0F105000F
:10270000A06194F82C10012088400A490968084308
:1027100008490860E16A01EB8101054A02EB81008A
:10272000211DFFF770F80126304670BD24000020FF
:10273000600100203C00002070B50646F068C468C7
:1027400054B900BF502080F31188BFF34F8FBFF3FF
:102750006F8F00BF00BFFEE704F11800FFF715F808
:1027600015480068A8B9201DFFF70FF894F82C1041
:102770000120884011490968084310490860E16A4E
:1027800001EB81010E4A02EB8100211DFFF73BF8AE
:1027900004E004F118010B48FFF735F80A49E06A34
:1027A0000968C96A884204D90125012007490860DF
:1027B00000E00025284670BD5C0000203C000020A1
:1027C00060010020EC0100202400002048000020CF
:1027D00070B5002400263648006850B900BF50206C
:1027E00080F31188BFF34F8FBFF36F8F00BF00BF1F
:1027F000FEE7FFF715F82E480068401E2C490860D8
:102800000846006800284FD12A48006800284BD0AD
:1028100024E02948C068C46804F11800FEF7B5FF39
:10282000201DFEF7B2FF94F82C10012088402349A8
:102830000968084321490860E16A01EB8101204AE7
:1028400002EB8100211DFEF7DEFF1E49E06A0968E8
:10285000C96A884202D301201B49086016480068F3
:1028600008B9012000E000200028D2D00CB1FEF70A
:10287000C5FD1648056865B100BFFFF755FE10B1EC
:102880000120114908606D1E002DF6D100200F496E
:1028900008600D48006838B1012630070C4908600F
:1028A000BFF34F8FBFF36F8FFEF7E4FF304670BD6D
:1028B0005C00002034000020EC0100203C000020DF
:1028C0006001002024000020480000204400002077
:1028D00004ED00E01CB50024FEF764FA0E48006821
:1028E00058B10E48022100234FF48272CDE9001046
:1028F0000BA10D48FFF7D2FD044654B900BF50208C
:1029000080F31188BFF34F8FBFF36F8F00BF00BFFD
:10291000FEE720461CBD0000680000206C0000207F
:10292000546D7220537663003D1500082DE9FE4377
:1029300004460D4616461F46DDF828804FF0000974
:1029400054B900BF502080F31188BFF34F8FBFF3FD
:102950006F8F00BF00BFFEE71448006810B30095FA
:1029600001960294062D15DAFFF7C8FD022808D15A
:102970000023424669460D480068FFF745FB814643
:1029800010E000231A46694608480068FFF73CFB40
:10299000814607E000233A46694604480068FFF78D
:1029A00007FC81464846BDE8FE8300006800002021
:1029B0004FF04070E1EE100A70470000DC2900087B
:1029C0000000002098000000E8010008742A0008B8
:1029D0009800002058420100040200080000000096
:1029E0000095BA0A00000000000000000102030484
:1029F00006070809000000000000000000000000B9
:102A000000000000000000000000000000000000C6
:102A100000000000000000000000000000000000B6
:102A200000000000000000000000000000000000A6
:102A30000000000000000000000000000000000096
:102A40000000000000000000000000000000000086
:102A50000000000000000000000000000000000076
:102A60000000000000000000AAAAAAAA00000000BE
:042A70000000000062
:04000005080001AD41
:00000001FF
