:020000040800F2
:10000000A84901204D030008C9100008C1100008CC
:10001000C51000088D050008431900080000000005
:100020000000000000000000000000008D02000839
:10003000E10F000800000000E90200082914000890
:1000400067030008670300086703000867030008E8
:1000500067030008670300086703000867030008D8
:10006000670300086703000867030008650C0008C1
:1000700067030008670300086703000867030008B8
:1000800067030008670300086703000829060008E3
:10009000910500086703000867030008670300086C
:1000A0006703000867030008670300086703000888
:1000B0006703000867030008670300086703000878
:1000C0006703000867030008670300086703000868
:1000D0006703000867030008670300083D15000870
:1000E0006703000867030008670300086703000848
:1000F0006703000867030008670300086703000838
:100100006703000867030008670300086703000827
:100110006703000867030008670300086703000817
:100120006703000867030008670300086703000807
:1001300067030008670300086703000867030008F7
:1001400067030008670300086703000867030008E7
:1001500067030008670300088D0C0008FD15000800
:1001600067030008670300086703000867030008C7
:100170006703000867030008670300080000000029
:10018000670300086703000867030008A11400085C
:100190006703000867030008670300086703000897
:1001A00000000000000000006703000800F002F8F3
:1001B00000F05CF80AA090E8000C82448344AAF1A5
:1001C0000107DA4501D100F051F8AFF2090EBAE8A3
:1001D0000F0013F0010F18BFFB1A43F0010318477B
:1001E000384A0000584A00000A444FF0000C10F84A
:1001F000013B13F0070408BF10F8014B1D1108BFA5
:1002000010F8015B641E05D010F8016B641E01F844
:10021000016BF9D113F0080F1EBF10F8014BAD1C94
:100220000C1B09D16D1E58BF01F801CBFAD505E0B2
:1002300014F8016B01F8016B6D1EF9D59142D6D30C
:10024000704700000023002400250026103A28BF34
:1002500078C1FBD8520728BF30C148BF0B60704738
:100260001FB504F0C7FC1FBD10B510BD00F060F94C
:100270001146FFF7F5FF02F027F900F07EF903B40D
:10028000FFF7F2FF03BC01F05EFB00002C4B196886
:100290000868B0E8F04F80F30988BFF36F8F4FF024
:1002A000000080F3118870470000000008480068D3
:1002B000006880F308884FF0000080F3148862B66D
:1002C00061B6BFF34F8FBFF36F8F00DF00BF00BF7A
:1002D00008ED00E0DFF80C00016841F470010160F6
:1002E000704700BF88ED00E0EFF30980BFF36F8F28
:1002F000134B1A681EF0100F08BF20ED108A20E97A
:10030000F04F106009B44FF0500080F31188BFF334
:100310004F8FBFF36F8F03F047FD4FF0000080F366
:10032000118809BC19680868B0E8F04F1EF0100F7A
:1003300008BFB0EC108A80F30988BFF36F8F704755
:10034000B8000020EFF3058070470000094880479F
:1003500009480047FEE7FEE7FEE7FEE7FEE7FEE7A7
:10036000FEE7FEE7FEE7FEE704480549054A064BBF
:100370007047000039140008AD010008A8350120BD
:10038000A8490120A8450120A84501207047032A5B
:1003900040F2308010F0030C00F0158011F8013BA2
:1003A000BCF1020F624498BF11F801CB00F8013B89
:1003B00038BF11F8013BA2F1040298BF00F801CB4D
:1003C00038BF00F8013B11F0030300F02580083A24
:1003D000C0F0088051F8043B083A51F804CBA0E87B
:1003E0000810F5E7121D5CBF51F8043B40F8043BD0
:1003F000AFF30080D20724BF11F8013B11F801CB05
:1004000048BF11F8012B24BF00F8013B00F801CBD5
:1004100048BF00F8012B704710B5203AC0F00B80A0
:10042000B1E81850203AA0E81850B1E81850A0E8F8
:100430001850BFF4F5AF5FEA027C24BFB1E8185052
:10044000A0E8185044BF18C918C0BDE810405FEAC2
:10045000827C24BF51F8043B40F8043B08BF70473E
:10046000D20728BF31F8023B48BF11F8012B28BF43
:1004700020F8023B48BF00F8012B704702F0FF0351
:1004800043EA032242EA024200F002B84FF00002BF
:100490000429C0F0128010F0030C00F01B80CCF196
:1004A000040CBCF1020F18BF00F8012BA8BF20F804
:1004B000022BA1EB0C0100F00DB85FEAC17C24BF58
:1004C00000F8012B00F8012B48BF00F8012B704702
:1004D0004FF0000200B5134694469646203922BFDD
:1004E000A0E80C50A0E80C50B1F12001BFF4F7AF28
:1004F000090728BFA0E80C5048BF0CC05DF804EB0A
:10050000890028BF40F8042B08BF704748BF20F877
:10051000022B11F0804F18BF00F8012B7047704775
:10052000704770477047000000487047443501200D
:100530007546FFF7F9FFAE4605006946534620F0C1
:100540000700854618B020B5FFF70EFFBDE8204034
:100550004FF000064FF000074FF000084FF0000B7F
:1005600021F00701AC46ACE8C009ACE8C009ACE832
:10057000C009ACE8C0098D46704710B50446AFF31A
:1005800000802046BDE81040FFF779BE00BFFEE7BF
:1005900010B5214A0021214800F04FFA1E4800689A
:1005A000A0F2012010B1012834D119E01C48006AE2
:1005B000401C1B4908620846006A0A2804D81649EC
:1005C000174801F069FF03E01349154801F0F0FEF8
:1005D00013488068242802D100201149886019E05E
:1005E0001048006A401C0F4908620846006A0A2841
:1005F00004D809490B4801F04FFF03E006490948B8
:1006000001F0D6FE07488068242802D10020054961
:10061000886000BF00BF10BD2C01002000640040B6
:10062000400100206401002010B50121044800F0C1
:10063000E1F818B10121024800F004F810BD0000F3
:1006400000640040B1F5007F3AD00FDC202928D0AB
:1006500006DC01291CD004291DD0082940D11DE049
:10066000402921D0B1F5807F3AD126E0B1F5004F85
:1006700031D006DCB1F5806F25D0B1F5006F2FD1F8
:1006800024E0B1F5803F12D0B1F5003F28D111E050
:10069000154A826025E00822C26022E01022C26072
:1006A0001FE0082202611CE01022026119E008220A
:1006B000426016E01022426013E00422426010E023
:1006C000042242600DE0042242600AE000228261BE
:1006D0000422426005E0002282610422426000E0C0
:1006E00000BF00BF704700000101010010B50021EC
:1006F000837A012202FA03F13D4A126842F00102B4
:100700003B4B1A603A4A1C3212688A43384B1C33FE
:100710001A60027BCAB9364A0C3212688A43344BDB
:100720000C331A604288C38842EA0343304A40329D
:10073000847A42F834300288838842EA03432C4AA0
:100740004032847A02EBC4025360027B012A19D141
:10075000274A0C3212680A43254B0C331A60428830
:10076000038842EA0343224A4032847A42F8343012
:10077000C288838842EA03431D4A4032847A02EBEE
:10078000C4025360C27A3AB9194A121D12688A43E8
:10079000174B1B1D1A6006E0154A121D12680A430A
:1007A000134B1B1D1A60028932B9114A14321268A8
:1007B0008A430F4B14331A600289012A06D10C4A6E
:1007C000143212680A430A4B14331A60427B012A1E
:1007D00006D1074A1C3212680A43054B1C331A60C3
:1007E000034A126822F00102014B1A6010BD00009A
:1007F0000066004070B504460D460026606928403A
:10080000002871D0B5F5807F5CD010DC082D35D084
:1008100006DC012D20D0022D24D0042D72D127E03A
:10082000102D31D0202D35D0402D6BD138E0B5F5CD
:10083000004F60D009DCB5F5007F49D0B5F5806F79
:100840004CD0B5F5006F5DD14FE0B5F5803F2DD0B0
:10085000B5F5003F56D12FE0A0682D4900F0F8F91A
:10086000064651E0E068032100F0F2F906464BE04D
:10087000E068082100F0ECF9064645E0E068102148
:1008800000F0E6F906463FE02069032100F0E0F9B8
:10089000064639E02069082100F0DAF9064633E01F
:1008A0002069102100F0D4F906462DE06068082187
:1008B00000F0CEF9064627E06068102100F0C8F984
:1008C000064621E0A069012100F0C2F906461BE0BE
:1008D000A069022100F0BCF9064615E0A0690421D8
:1008E00000F0B6F906460FE00FE0A069702100F0B5
:1008F000AFF9064608E06068042100F0A9F9064651
:1009000002E0FFE7002600BF00E00026304670BD91
:10091000010101001AB143690B43436102E04369DD
:100920008B434361704730B50246002000231468B2
:1009300024F002041460146844F00104146000E020
:100940005B1C546804F001041CB94FF6FF74A34209
:10095000F6D1546804F001040CB900206CE08C79E5
:10096000012C04D1146844F08004146003E014687E
:1009700024F080041460CC79012C04D1146844F074
:100980004004146003E0146824F0400414600C7AFE
:10099000012C04D1146844F02004146003E01468AE
:1009A00024F0200414604C7A012C04D1146844F023
:1009B0001004146003E0146824F0100414608C7AAE
:1009C000012C04D1146844F00804146003E0146896
:1009D00024F008041460CC7A012C04D1146844F08B
:1009E0000404146003E0146824F0040414608C7898
:1009F000A407CD7844EA05640D7944EA05444D79AD
:100A000044EA05540D886D1E2C43D461146824F00B
:100A100001041460002300E05B1C546804F001042E
:100A20001CB14FF6FF74A342F6D1546804F00104E0
:100A30000CB1002000E0012030BD10B500F5D873E6
:100A400003EB01131B6803F004031372137A53B909
:100A500000F5D87303EB01131B6840F2FF7404EA3E
:100A60005353136009E000F5D87303EB01131B68BF
:100A70006FF0604404EAD303536000F5D87303EBCE
:100A800001131B6803F00203537200F5D87303EBE4
:100A900001135B6803F00F03937200F5D87303EB47
:100AA00001135B681B0AD37400F5D87303EB0113C1
:100AB0009B68D37200F5D87303EB01139B681C0A83
:100AC000147300F5D87303EB01139B681C0C54736B
:100AD00000F5D87303EB01139B681B0E937300F5AD
:100AE000D87303EB0113DB68D37300F5D87303EB02
:100AF0000113DB681C0A147400F5D87303EB0113AF
:100B0000DB681C0C547400F5D87303EB0113DB682D
:100B10001B0E937421B9C36843F02003C36003E044
:100B2000036943F02003036110BD10B502460020A5
:100B3000936803F08063B3F1806F00D110E0936895
:100B400003F00063B3F1006F01D1012008E0936866
:100B500003F08053B3F1805F01D1022000E0042054
:100B6000042874D002F5C07303EB00131B6803F074
:100B7000010402F5C07303EB00131C600B7A7BB910
:100B80004B7A0C8843EA445302F5C07404EB00141A
:100B90002468234302F5C07404EB0014236010E0C2
:100BA0000B7A4C6843EAC4034C7A234302F5C074C1
:100BB00004EB00142468234302F5C07404EB001412
:100BC00023608B7A03F00F038B7202F5C07303EB83
:100BD00000135B6823F00F0402F5C07303EB0013EE
:100BE0005C6002F5C07303EB00135B688C7A2343EF
:100BF00002F5C07404EB001463608B7B1C064B7B16
:100C000044EA03440B7B44EA0323CC7A234302F5F2
:100C1000C07404EB0014A3608B7C1C064B7C44EA7C
:100C200003440B7C44EA0323CC7B234302F5C074CA
:100C300004EB0014E36002F5C07303EB00131B68C0
:100C400043F0010402F5C07303EB00131C6010BDF8
:100C50000246002002EA01030BB1012000E000205F
:100C60007047000010B50749074800F03BF938B15C
:100C70000449054800F034F80021034800F04AF820
:100C800010BD0000208000101060024010B5054922
:100C9000054800F005F920B14FF03D51024800F041
:100CA00005F810BD00800028B86402400246094BD8
:100CB0009A4201D2084801E00648103801F000537A
:100CC0001BB1064B0B40C36002E0044B0B4083603A
:100CD0007047000010640240006002407D0F7D0FED
:100CE0000246094B9A4201D2084801E006481038F2
:100CF00001F000531BB1064B0B40C36002E0044BF4
:100D00000B408360704700001064024000600240A6
:100D10007D0F7D0F21B1026842F00102026003E005
:100D2000026822F00102026070470000016821F0B1
:100D3000010101600021016041608160C1600161C9
:100D4000212141614A49884204D13D21484A103A53
:100D500091608CE046491831884205D14FF47461A6
:100D6000434A103A916082E041493031884205D1CE
:100D70004FF474113E4A103A916078E03C49483192
:100D8000884205D14FF07461394A103A91606EE0A3
:100D900037496031884204D13649354A103AD1602A
:100DA00065E033497831884204D13349304A103AFA
:100DB000D1605CE02E499031884204D12F492C4A01
:100DC000103AD16053E02A49A831884205D14FF04A
:100DD0003D51274A103AD16049E02949884204D15F
:100DE0003D21274A083A116041E0254918318842DF
:100DF00005D14FF47461224A083A116037E0204966
:100E00003031884205D14FF474111D4A083A1160FF
:100E10002DE01B494831884205D14FF07461184AD2
:100E2000083A116023E016496031884204D1114923
:100E3000134A121F11601AE011497831884204D117
:100E40000D490F4A121F116011E00D49903188427F
:100E500004D10A490A4A121F116008E00849A83162
:100E6000884204D14FF03D51054A121F116070476E
:100E7000106002403D000020400F002000003D2097
:100E800010640240014600200A6802F001020AB123
:100E9000012000E0002070470146486880B270479A
:100EA00030B503460A46002000240B4DAB4201D268
:100EB0000A4901E00849103902F000550DB14C68AB
:100EC00000E00C68064D2C4004EA02050DB101203B
:100ED00000E0002030BD00001064024000600240CD
:100EE0007D0F7D0F70B50246002000240025124EB4
:100EF000B24201D2114B01E00F4B103B104E0E409D
:100F000036B11E2606EAD124166806EA040502E078
:100F1000566906F0800501F000560EB15C6800E0ED
:100F20001C68084E344004EA010616B10DB10120D8
:100F300000E0002070BD000010640240006002402C
:100F40003C0F3C0F7D0F7D0F10B501F080034BB1BE
:100F500022B1436943F08003436103E0436923F016
:100F60008003436180290BD02AB1036801F01E047D
:100F70002343036004E0036801F01E04A3430360FD
:100F800010BD000010B500220268134B1A40CC6857
:100F90000B6823434C6923438C692343CC69234367
:100FA0000C6A23434C6A23438C6A23434C6B2343D0
:100FB0008C6B23431A430260426922F00702D1E995
:100FC0000B3423431A4342610B6943604B688360CF
:100FD0008B68C36010BD00003F801CF0416070470B
:100FE0007047F0B50A4600210023002400BF3DE011
:100FF000012505FA01F3156805EA03049C4234D182
:1010000005684F000326BE40B543056015794E00C4
:10101000B5400668354305601579012D02D0157974
:10102000022D16D185684F000326BE40B54385606A
:1010300055794E00B5408668354385604568012680
:101040008E40B5434560456896798E40B6B23543CB
:101050004560C5684F000326BE40B543C560D579DD
:101060004E00B540C6683543C560491C1029BFD342
:10107000F0BDF0B5002300244D07ED0E02FA05F394
:10108000CE1000F1200555F826504E07F70E0F261A
:10109000BE40B543CF1000F1200646F82750CE10D1
:1010A00000F1200555F8265045EA0304CE1000F162
:1010B000200545F82640F0BD418370470183704705
:1010C00000BFFEE700BFFEE77047000070B50021DB
:1010D00000230F22C4781CB3174C246804F4E06486
:1010E000C4F5E064C4F30721C1F10404E3B20A418A
:1010F00044789C40E1B28478144021430C07210ECF
:101100000E4C05786155047804F01F050124AC40AD
:1011100005786D11AD0005F1E025C5F8004109E045
:10112000047804F01F050124AC40054D06787611C3
:1011300045F8264070BD00000CED00E000E400E042
:1011400080E100E002490143024A1160704700005B
:101150000000FA050CED00E029B1064A12680243CE
:10116000044B1A6004E0034A12688243014B1A6080
:10117000704700003038024029B1064A1268024325
:10118000044B1A6004E0034A12688243014B1A6060
:10119000704700004038024029B1064A12680243F5
:1011A000044B1A6004E0034A12688243014B1A6040
:1011B000704700002038024029B1064A12680243F5
:1011C000044B1A6004E0034A12688243014B1A6020
:1011D000704700004438024029B1064A12680243B1
:1011E000044B1A6004E0034A12688243014B1A6000
:1011F0007047000024380240F0B50021002200248E
:10120000022500260223324F3F6807F00C0121B16E
:10121000042905D0082937D105E02E4F076036E0B4
:101220002D4F076033E02A4F3F1F3F68C7F38056BA
:10123000274F3F1F3F6807F03F036EB1264FB7FBB4
:10124000F3F7DFF88CC0ACF1040CDCF800C0CCF391
:10125000881C07FB0CF40CE01E4FB7FBF3F7DFF81C
:1012600070C0ACF1040CDCF800C0CCF3881C07FBA8
:101270000CF4174F3F1F3F68C7F301477F1C7D00E9
:10128000B4FBF5F7076002E0124F076000BF00BF34
:101290000F4F3F6807F0F0010909104F7A5C0768AB
:1012A000D74047600A4F3F6807F4E051890A0B4F67
:1012B0007A5C4768D7408760054F3F6807F4604114
:1012C000490B064F7A5C4768D740C760F0BD000005
:1012D000083802400024F400001BB700A8000020DA
:1012E0000CB50020019000904148006840F4803027
:1012F0003F49086000BF3E48006800F4003000909D
:101300000198401C0190009818B90198B0F5A04FC1
:10131000F1D13748006800F4003010B1012000908E
:1013200001E0002000900098012860D13048403052
:10133000006840F080502E49403108602D48006818
:1013400040F440402B49086029480830006828498B
:10135000083108600846006840F40040086008460C
:10136000006840F4A05008602348091F0860081F67
:10137000006840F08070091F086000BF1C480068CA
:1013800000F000700028F9D01A48006840F480305E
:101390001849086000BF1748406800F480300028F2
:1013A000F9D01448006840F400301249086000BFCA
:1013B0001048406800F400300028F9D040F2057071
:1013C0000E4908600A480830006820F00300084908
:1013D000083108600846006840F00200086000BF5D
:1013E00003480830006800F00C000828F8D10CBD54
:1013F00000380240007000400C5A4007003C024098
:10140000042808D14FF0E021096941F004014FF0B0
:10141000E022116107E04FF0E021096921F00401A9
:101420004FF0E0221161704710B503F089F90128EF
:1014300001D002F077FE10BD10B51548006840F4E9
:101440007000134908601348006840F0010011491A
:10145000086000200F49083108600E4800680E49F6
:1014600008400C4908600D48091D0860081F006805
:1014700020F48020091F0860002006490C31086014
:10148000FFF72EFF4FF0006001498039086010BD62
:1014900088ED00E000380240FFFFF6FE1030002427
:1014A00070B500BF40F224411D4800F08BF9B0B385
:1014B00000211C48FFF72EFC19480088C5B21848C7
:1014C000001D0088C5B21748FFF7E6FC16490988D9
:1014D000081A84B200BF1348FFF7D4FC0028FAD1E1
:1014E000114801880F48FFF779FD10490D48FFF7B3
:1014F000DDFB0F48407800EE100AB8EE400A0D48B8
:1015000080ED000A0A48807800EE100AB8EE400A22
:10151000094880ED000A01210248FFF7FBFB70BD7E
:10152000007C0040A0600240044C000800003D2008
:1015300082020020080000200C00002010B540F2BC
:1015400025511D4800F03EF910B31B4800F0F4F996
:10155000C4B21A48008800F40040C8B9174800888F
:1015600000F4804060B10A2C03D0002013490880A9
:1015700020E01248008840F400401049088019E03B
:101580000D2C06D10D48008840F480400B4908809E
:1015900010E00A480088C0F30D0009490C540748C0
:1015A0000088401C0549088008460088C72801DDDE
:1015B0000020088010BD0000004800402C000020E2
:1015C0008801002010B5044600210B48FFF7A2FB5C
:1015D00000BF0948FFF756FC0028FAD1214606480B
:1015E000FFF7FCFC4FF03D510348FFF75FFB012183
:1015F0000148FFF78FFB10BDB864024070B500BF13
:10160000002440F22441204800F0DCF8002839D0C2
:101610001D480088C5B21C48001D0088C5B20021C5
:101620001A48FFF777FB1948FFF736FC1849098875
:10163000081A18490880164801881448FFF7CEFC9C
:1016400015491248FFF732FB05E01448005D1449C4
:101650000855601CC4B20F4801880088401E0D4A1E
:1016600010800029F1D12046FFF7ACFF0121074887
:10167000FFF750FB0B48006808B9012000E000208C
:101680000849086070BD0000001401404064024039
:10169000FE4B00080400002000003D105002002016
:1016A0005A0200209002434221B1828942F4005242
:1016B000828104E082894DF6FF731A40828170476F
:1016C0001AB1838A0B43838202E0838A8B4383822D
:1016D0007047000010B504463248844208D1012109
:1016E0001020FFF779FD00211020FFF775FD57E06E
:1016F0002D48844209D101214804FFF74DFD002106
:101700004FF40030FFF748FD4AE02848844209D1F1
:1017100001218804FFF740FD00214FF48020FFF7EE
:101720003BFD3DE02248844209D10121C804FFF776
:1017300033FD00214FF40020FFF72EFD30E01D485F
:10174000844209D101210805FFF726FD00214FF44D
:101750008010FFF721FD23E01748844208D10121C2
:101760002020FFF739FD00212020FFF735FD17E08D
:101770001248844209D101218807FFF70DFD00219D
:101780004FF08040FFF708FD0AE00D48844207D182
:1017900001214005FFF700FD00216005FFF7FCFC7B
:1017A00010BD00000010014000440040004800400F
:1017B000004C004000500040001401400078004000
:1017C000007C004070B50246002400230025002064
:1017D00040F66A16B14200D100BFC1F3421501F0D4
:1017E0001F03012606FA03F3012D02D19689334027
:1017F00006E0022D02D1168A334001E0968A33407A
:101800000C12012606FA04F41688344013B10CB108
:10181000012000E0002070BDF0B503460024002642
:101820000025002040F66A17B94200D100BF1846D3
:10183000C1F3421401F01F06012707FA06F5012C37
:1018400001D10C3004E0022C01D1103000E0143042
:101850001AB107682F43076002E00768AF430760CB
:10186000F0BD00002DE9FF4705460E460024A146C5
:1018700000BFA046B08900B100BF2C8A24F44054B8
:10188000F08804432C82AC8941F20C608443B08818
:1018900031890843718908430443AC81AC8A24F43C
:1018A0004074B0890443AC826846FFF7A5FC204829
:1018B000854202D01F48854202D1DDF80C9001E03C
:1018C000DDF80890A88900F4004040B109EBC90098
:1018D00000EB091031684900B0FBF1F707E009EBB4
:1018E000C90000EB091031688900B0FBF1F76420F2
:1018F000B7FBF0F004012009642101FB1078A889EE
:1019000000F4004040B1322000EBC800B0FBF1F021
:1019100000F00700044308E0322000EB08106421C7
:10192000B0FBF1F000F00F0004432C81BDE8FF870D
:10193000001001400014014001468888C0F30800EF
:10194000704700BFFEE700BF7047D0ED000AF4EE1D
:10195000C00AF1EE10FA01DD80ED000AD0ED000AB8
:10196000B1EE401AF4EEC10AF1EE10FA03D2F1EE34
:10197000400AC0ED000A7047D0ED000AF4EEC00A3C
:10198000F1EE10FA01DD80ED000AD0ED000AB1EEB3
:10199000401AF4EEC10AF1EE10FA03D2F1EE400A59
:1019A000C0ED000A7047000000B587B0012148066D
:1019B000FFF7E2FB00208DF816008DF817000120DC
:1019C0008DF8180000208DF819008DF81A008DF898
:1019D0001B008DF812000520ADF8100001208DF8D5
:1019E000130004208DF8140002208DF8150004A9BE
:1019F0000E48FEF798FF00208DF80A0001208DF8B0
:101A00000D000020ADF808008DF80C00ADF80000C6
:101A1000ADF80200ADF80400ADF806008DF80B003B
:101A20006846FEF763FE07B000BD0000006400409A
:101A300000B58FB001214805FFF78EFB0121880515
:101A4000FFF78AFB5F48FFF771F900BF5D48FFF7BA
:101A500019FA0028FAD14FF0206000905A480190FE
:101A60005A480290402003900A20049000200590DC
:101A70004FF48060069000200790089009904FF482
:101A800080300A9000200B9003200C9000200D90D5
:101A90000E9069464B48FFF775FA01214948FFF758
:101AA00039F948487838FFF741F900BF4548783898
:101AB000FFF7E8F90028F9D10A2004900006009009
:101AC000002003900B9003200C90414802900020CE
:101AD0000D9008904FF480600690002009903A48DD
:101AE000019000200E90079005904FF480300A90EE
:101AF000694634487838FFF745FA0121314878388B
:101B0000FFF708F93348FFF711F900BF3148FFF735
:101B1000B9F90028FAD14FF0206000902E480190CA
:101B20002E480290402003901E2004900020059033
:101B30004FF48060069000200790089009904FF4C1
:101B400080300A9000200B9003200C9000200D9014
:101B50000E9069461F48FFF715FA1E489030FFF7B0
:101B6000E5F800BF1B489030FFF78CF90028F9D149
:101B70001E2004904FF020600090002003900B90F6
:101B800003200C901648029000200D9008904FF40E
:101B900080600690002009900F48019000200E9070
:101BA000079005904FF480300A90694609489030BC
:101BB000FFF7E8F9012107489030FFF7ABF80FB0C5
:101BC00000BD0000B8640240041401405A02002025
:101BD0005002002010600240047C0040640200209B
:101BE000820200201CB501210820FFF7B5FA01216F
:101BF0001020FFF7B1FA01214020FFF7ADFA0121D3
:101C00002020FFF7A9FA01210802FFF7A5FA012118
:101C10008020FFF7A1FA01208DF8040000208DF844
:101C200006007E20009001208DF8070003208DF82B
:101C3000050069466D48FFF7D4F97E216B48FFF730
:101C40003DFA02208DF8040000208DF806004FF4C4
:101C50008440009001208DF8070002208DF80500D7
:101C600069466248FFF7BDF9082209215F48FFF77E
:101C700000FA08220E215D48FFF7FBF903200090CF
:101C800002208DF8040000208DF806008DF8070072
:101C900003208DF8050069465548FFF7A2F9082290
:101CA00000215348FFF7E5F9082201215048FFF7CA
:101CB000E0F94FF47070009001208DF804000020CE
:101CC0008DF8060003208DF8050001208DF807002F
:101CD00069464848FFF785F94FF480714548FFF79A
:101CE000EBF94FF430714348FFF7E8F902208DF823
:101CF000040000208DF806004FF4406000900020A2
:101D00008DF8070003208DF8050069463A48FFF773
:101D100068F902220B213848FFF7ABF902220A21A9
:101D20003548FFF7A6F902208DF8040000208DF851
:101D300006004FF48050009000208DF8070003202B
:101D40008DF8050069462C48FFF74BF902220C215B
:101D50002948FFF78EF902208DF8040000208DF845
:101D600006000120009000208DF8070003208DF868
:101D7000050069462148FFF734F9022200211F4877
:101D8000FFF777F90320009002208DF8040000206F
:101D90008DF8060003208DF8050001208DF807005E
:101DA00069461748FFF71DF9092200211448FFF77B
:101DB00060F9092201211248FFF75BF901208DF833
:101DC000040000208DF806001420009002208DF8F9
:101DD000070003208DF8050069460748FFF701F961
:101DE00014210548FFF768F91CBD000000180240E7
:101DF0000010024000140240001C0240002002407B
:101E0000000C024008B54FF44070FFF79BF94720E3
:101E10008DF8000001208DF8030009208DF80100E5
:101E200000208DF802006846FFF750F9012240F2C9
:101E300024412948FFF7F0FC46208DF800000120DE
:101E40008DF8030009208DF8010000208DF80200B4
:101E50006846FFF73BF9012210212048FFF774F88C
:101E600053208DF8000003208DF8010001208DF82B
:101E700003006846FFF72AF9012240F2244118487E
:101E8000FFF7CAFC0B208DF8000001208DF803003D
:101E900008208DF801006846FFF718F9114912482B
:101EA000FEF71EFF012210210F48FFF74DF8142006
:101EB0008DF8000001208DF8030009208DF8010045
:101EC00000208DF802006846FFF700F90122022188
:101ED0000648FEF71FFD08BD00140140B86402402B
:101EE000007C004000800028106002400064004038
:101EF0001FB501212020FFF75FF90121C807FFF777
:101F00003BF94FF4E13000900020ADF80C000C20BC
:101F1000ADF80A000020ADF80800ADF80600ADF8F5
:101F2000040069461A48FFF79DFC01224021184829
:101F3000FFF7C6FB012280211548FFF7C1FB0121F5
:101F40001348FFF7B1FB1348FFF7C4FB4FF4E13030
:101F500000900020ADF80400ADF80600ADF80800D0
:101F6000ADF80C000C20ADF80A0069460948FFF7EF
:101F700079FC012240210748FFF7A2FB01228021C2
:101F80000448FFF79DFB01210248FFF78DFB1FBDB1
:101F900000140140007C004010B5044604F5A8710F
:101FA00004F1080000F0AEFA04F5FA7104F1AC0097
:101FB00000F0A8FA94ED1B0ABDEEC00A10EE100A5C
:101FC00000B2A4F8280594ED440ABDEEC00A10EE54
:101FD000100A00B2A4F82A0510BD000040F6B8307F
:101FE00001F09AFD00F0BAF884E0434801F03CFBB0
:101FF000414801F0D5FB4048FFF7CEFF3E4AB2F919
:102000002A15B2F9280501F003FB3C4890ED001AAF
:102010003B48D0ED000A3B4890ED000A3A4800F0FA
:102020004EFD3A4890ED001A3948D0ED000A394883
:1020300090ED000A3448A43000F041FD364890EDA0
:10204000001A3648D0ED000A354890ED000A3548B0
:1020500000F035FD344890ED001A3448D0ED000A08
:10206000334890ED000A2F48A43000F028FD314895
:1020700090ED001A3048D0ED000A304890ED000A8B
:102080002148A43800F01BFD2D4890ED000A1A48A5
:1020900080EDED0A2B4890ED000A2248A43080ED37
:1020A0001E0A294890ED000ABCEEC00A124880EDD5
:1020B000F50A264890ED000ABCEEC00A1948A43083
:1020C00080ED260A224890ED000A0B4880EDF10AC7
:1020D000204890ED000A1348A43080ED220A1E48E3
:1020E000006808B9012000E000201B4908600A20B0
:1020F00001F012FD79E70000A00200203800002066
:10210000340000203000002038050020440000206A
:10211000400000203C0000205C000020580000200F
:102120005400002080060020680000206400002089
:1021300060000020900000208C000020880000201B
:10214000480000206C0000204C000020700000209F
:1021500084000020800000209402434208B541F230
:1021600088309FED471ADFED470AB1EE040A43F6C7
:102170009823022203210090434800F0A7FC4FF46B
:102180007A709FED3F1ADFED3E0A9FED400A40F660
:10219000B8330222032100903D4800F097FC41F241
:1021A00088309FED371ADFED370AB1EE040A43F6A7
:1021B00098230222032100903348A43000F086FCCB
:1021C0004FF47A709FED2E1ADFED2D0A9FED2F0A46
:1021D00040F6B8330222032100902D48A43000F0CD
:1021E00075FC00209FED261ADFED260AB1EE040AE9
:1021F0001E23022203210090264800F067FC0A20DB
:102200009FED1F1ADFED1E0A9FED230A1E230222F7
:10221000032100901F48A43000F058FC00209FEDDF
:10222000181ADFED180AB1EE040A1E230222032158
:1022300000901A4800F04AFC0A209FED111ADFEDC9
:10224000100A9FED100A1E2302220321009013485A
:10225000A43000F03BFC9FED120A0B48083880EDDB
:10226000760A9FED0F0A80ED9F0A00F00DF90649EE
:102270000839086000F00CF903490839486008BDC6
:1022800000000000CDCCCC3DA80200200000C842D8
:10229000F003002038050020CDCCCCBD8006002006
:1022A0009A99993ED0ED000AF5EEC00AF1EE10FAC7
:1022B00004D2D0ED000AF1EE600A01E0D0ED000A90
:1022C000F4EEC00AF1EE10FA04D2DFED050AC0ED1B
:1022D000000A03E0D0ED000AC0ED000A70470000DC
:1022E0000000000070B504460420FFF789F80C4890
:1022F000047025464FF47A7045430120094908804F
:102300004FF0E020006940F002004FF0E02108614A
:1023100008464561006940F00100086170BD000099
:10232000240000202600002070B5044602F008FAC0
:10233000012810D00B480088844206D30948008841
:10234000B4FBF0F5284601F0E7FB06480088B4FB33
:10235000F0F100FB11444FF47A7104FB01F000F03E
:1023600003F870BD2600002070B5034600224FF030
:10237000E02675690D4E367803FB06F44FF0E02633
:10238000B16910E04FF0E026B06988420BD0884276
:1023900002D20E1A324402E02E1A0E443244014692
:1023A000A24200D300E0EDE700BF70BD2400002092
:1023B000028842800A7BCB7A42EA032202800288AA
:1023C0004388D21AB2F5805F03DD8268521E8260B4
:1023D00008E002884388D21A12F5805F02DA826828
:1023E000521C8260028800EE102AB8EE400ADFED2F
:1023F000120A20EE200A80ED050A0388826803EBAA
:102400004232C26090ED030AB8EEC00ADFED0A0A5C
:1024100020EE200ABDEEC00A80ED040A8B7B4A7BC9
:1024200043EA022212B282800B7CCA7B43EA022278
:1024300012B2C28070470000A005343D104991EDF2
:10244000010AB1EE400AD0ED030A20EE200A0D4940
:10245000D1ED000A90ED001A00EE810AD1ED010ADB
:1024600090ED021A00EE810A80ED010A90ED010A5A
:1024700080ED030A90ED000A80ED020A704700002B
:10248000084C0008104C000800487047400100202C
:1024900000487047640100200A7BCB7A42EA03229D
:1024A00002800288028370470BE00648006808B982
:1024B000012000E00020034908604FF47A7001F029
:1024C0002BFBF2E7840243421CB501F04BF9642078
:1024D000FFF72AFF0648022100230A02CDE9001077
:1024E00004A1074802F0FCF801F00CFC00201CBD20
:1024F0000000002073746172745F7461736B00007C
:10250000D536000800B50246D2F88C00032872D1F7
:1025100091ED030AD1ED040A30EE600A81ED070A5D
:1025200091ED220AB5EEC00AF1EE10FA07D0D1ED16
:10253000220AB0EE600A01F11C00FFF7B3FE91ED34
:10254000000AD1ED070A20EE200A81ED080A91ED7C
:102550001E0AB5EEC00AF1EE10FA0AD191ED090A91
:10256000D1ED010A91ED071A00EE810A81ED090A09
:1025700017E091ED070AD1ED1E0AB4EEE00AF1EE84
:1025800010FA0AD291ED090AD1ED010A91ED071A6C
:1025900000EE810A81ED090A03E09FEDFE0A81ED5C
:1025A000090A91ED070AD1ED060A30EE600AD1ED75
:1025B000020A20EE200A81ED0C0AD1ED260AF8EE7F
:1025C000600AB0EE600A01F12400FFF7BEF991ED58
:1025D0001E0AB5EEC00AF1EE10FA0DD191ED080A0F
:1025E000D1ED090A30EE200AD1ED0C0A30EE200AB6
:1025F00081ED190A2AE0A5E091ED070AB5EEC00ABF
:10260000F1EE10FA04D291ED070AB1EE400A01E0B2
:1026100091ED070AD1ED1E0AB4EEE00AF1EE10FAD0
:102620000CD291ED080AD1ED090A30EE200AD1ED65
:102630000C0A30EE200A81ED190A07E091ED080A34
:10264000D1ED0C0A30EE200A81ED190AD1ED250AF0
:10265000F8EE600AB0EE600A01F16400FFF775F968
:1026600091ED070A81ED060AD2F89000022802D007
:10267000D2F8900040B991ED190AD2ED040A30EE7B
:10268000600A82ED070A0BE0D2F89000012807D11A
:1026900092ED030AD2ED040A30EE600A82ED070AD9
:1026A00092ED220AB5EEC00AF1EE10FA07D0D2ED93
:1026B000220AB0EE600A02F11C00FFF7F3FD92ED72
:1026C000000AD2ED070A20EE200A82ED080A92EDF8
:1026D000090AD2ED010A92ED071A00EE810A82ED95
:1026E000090A92ED070AD2ED060A30EE600AD2ED31
:1026F000020A20EE200A82ED0C0AD2ED260AF8EE3C
:10270000600AB0EE600A02F12400FFF71EF992EDB4
:10271000080AD2ED090A30EE200AD2ED0C0A30EE9A
:10272000200A82ED190AD2ED250AF8EE600AB0EE11
:10273000600A02F16400FFF708F992ED070A82EDE2
:10274000060A87E1D2F88C0004287CD191ED030AB7
:10275000D1ED040A30EE600A81ED070A91ED070A17
:10276000D1ED060A30EE600AD1ED000A20EE200A13
:1027700081ED080A91ED010AD1ED070A20EE200A49
:1027800081ED090A91ED070AD1ED060AB0EE001AB3
:1027900001EE600AD1ED050A30EE200AD1ED020A01
:1027A00020EE200A81ED0C0AD1ED260AF8EE600A2F
:1027B000B0EE600A01F12400FFF7C7F891ED080AB6
:1027C000D1ED090A30EE200AD1ED0C0A30EE200AD4
:1027D00081ED1A0A91ED1C0AD1ED1A0A30EE200A99
:1027E00081ED1B0AD1ED250AF8EE600AB0EE600A11
:1027F00001F16C00FFF7A9F891ED1B0A81ED1C0AAD
:1028000091ED060A81ED050A91ED070A81ED060AB0
:1028100091ED1B0AD2ED040A30EE600A82ED070A40
:1028200092ED070AD2ED060A30EE600AD2ED000AF8
:1028300020EE200A82ED080A92ED010AD2ED070A85
:1028400020EE200A00E048E082ED090A92ED070A36
:10285000D2ED060AB0EE001A01EE600AD2ED050ACA
:1028600030EE200AD2ED020A20EE200A82ED0C0A98
:10287000D2ED260AF8EE600AB0EE600A02F12400FA
:10288000FFF763F892ED080AD2ED090A30EE200A4C
:10289000D2ED0C0A30EE200A82ED1A0A92ED1C0AE3
:1028A000D2ED1A0A30EE200A82ED1B0AD2ED250A7B
:1028B000F8EE600AB0EE600A02F16C00FFF745F82E
:1028C00092ED1B0A82ED1C0A92ED060A82ED050AC2
:1028D00092ED070A82ED060ABCE0D2F88C000528CA
:1028E0007DD191ED030AD1ED040A30EE600A81ED4D
:1028F000070A91ED150AD1ED070A91ED171A00EEBE
:10290000810A81ED150AD1ED260AF8EE600AB0EED3
:10291000600A01F15400FFF718F891ED070AD1EDB4
:10292000060A30EE600AD1ED170A80EE201A81ED1A
:10293000161A91ED000AD1ED070A20EE200A81ED6A
:10294000080A91ED010AD1ED150A20EE200A81ED69
:10295000090A91ED020AD1ED160A20EE200A81ED56
:102960000C0A91ED080AD1ED090A30EE200AD1EDEA
:102970000C0A30EE200A81ED180AD1ED250AF8EE96
:10298000600AB0EE600A01F16000FEF7DEFF91ED33
:10299000070A01E00000000081ED060A91ED180A27
:1029A000D2ED040A30EE600A82ED070A92ED150AB4
:1029B000D2ED070A92ED171A00EE810A82ED150A90
:1029C000D2ED260AF8EE600AB0EE600A02F1540079
:1029D000FEF7BBFF92ED070AD2ED060A00E039E0F0
:1029E00030EE600AD2ED170A80EE201A82ED161A38
:1029F00092ED000AD2ED070A20EE200A82ED080AC5
:102A000092ED010AD2ED150A20EE200A82ED090AA4
:102A100092ED020AD2ED160A20EE200A82ED0C0A8F
:102A200092ED080AD2ED090A30EE200AD2ED0C0A26
:102A300030EE200A82ED180AD2ED250AF8EE600A7F
:102A4000B0EE600A02F16000FEF77FFF92ED070A28
:102A500082ED060AD2F88C00032810D1D2F890003B
:102A6000012803D0D2F89000022802D192ED190A71
:102A700000BDD2F8900080B991ED190AF8E7D2F8BC
:102A80008C00042802D192ED1B0AF1E7D2F88C00E9
:102A9000052802D192ED180AEAE71FED420AE7E79E
:102AA00010B5029C1C30C46783670167426700ED64
:102AB000070A40ED060A00ED051A1C3810BD80ED2E
:102AC000000AC0ED010A80ED021A70472DE9F041BD
:102AD0002DED048B82B004460D4616461F46B0EE1F
:102AE000408AF0EE608AB0EE419ADDF830800C4802
:102AF00044F89C0F0B486060CDF8008054F89CC9E6
:102B0000B0EE491AF0EE680AB0EE480A3B4632468B
:102B100029462046E04702B0BDEC048BBDE8F081B9
:102B2000A12A0008BF2A00082DE9F04105460E46FB
:102B30001C4807681C480068001D00F085FE50B95D
:102B40001948006890F82C1001208840174909683E
:102B5000814316480160681C38B936B112480168D3
:102B6000091D134800F0AEFE1AE07C190E480068FB
:102B70004460BC4207D20C480168091D0D4800683A
:102B800000F086FE0CE008480168091D0A4800684C
:102B900000F07EFE09480068844201D207480460C4
:102BA000BDE8F081CC000020B8000020D00000205B
:102BB000C8080020C0000020BC000020E800002061
:102BC00010B5044600F08AFE24480068401C2349E2
:102BD00008602348006840B921480460084600683E
:102BE00001280DD100F0DEF90AE01E48006838B96E
:102BF0001B480068C06AE16A884201D8184804602E
:102C000019480068401C184908600846006820649C
:102C100094F82C100120884014490968084313498E
:102C20000860E16A01EB8101114A02EB8100211D7C
:102C300000F048FE00F07CFE0A48006868B10848D1
:102C40000068C06AE16A884207D24FF080500949A3
:102C50000860BFF34F8FBFF36F8F10BDC800002017
:102C6000B8000020D4000020E4000020D0000020A4
:102C70001408002004ED00E010B500F02FFE10480D
:102C80000068D0B90F4800F0F3FD0F4800F0F0FDE8
:102C90000C480E4908600C480D49086000220C21C0
:102CA0000A2001F059FA064908600846006820B178
:102CB00008A10348006800F0F3FE00F039FE10BDE3
:102CC000FC0000201C09002030090020F400002036
:102CD000F8000020546D72510000000010B516E09D
:102CE00000F0FCFD0C48C068C468201D00F0ACFD7D
:102CF0000A480068401E0949086009480068401EEB
:102D00000749086000F014FE204600F05FF8044810
:102D100000680028E4D110BDB4080020C8000020DD
:102D2000C400002070B504460D46206C70B1216CC3
:102D3000E0680144E160D4E90210884201D32168CF
:102D4000E1602846226CE168FDF721FB70BD2DE9AA
:102D5000F04104460F4615464FF00008A66B206C64
:102D600048B9206800282CD1A06801F0A3FD804656
:102D70000020A06025E07DB93946226C6068FDF72F
:102D800006FB216C606808446060D4E90101884258
:102D900017D32068606014E03946226CE068FDF7C4
:102DA000F6FA216CE068411AE1602168E068884227
:102DB00003D2216CA068411AE160022D01D106B155
:102DC000761E701CA0634046BDE8F08110B5044635
:102DD000206B00F0CBFD204600F0C8FD10BD0000C8
:102DE0000146084A126812680AB9012200E000226E
:102DF0000A600A6822B9034A1268D268106800E0C3
:102E000000207047F400002030B54FF49633174887
:102E100000F007042CB1C01D20F00700134C041B68
:102E20001B1B0246124C22600024114D6C60D0180E
:102E3000083820F007000F4C206000240D4D2D684D
:102E40006C600C4D2D682C601146441A4C60094C86
:102E500024680C60084D4C682C60084D4C682C6050
:102E60004FF00044064D2C6030BD000044090020A6
:102E7000080100201001002018010020140100208A
:102E80001C01002000BFFFF729FF06480068012849
:102E9000F9D94FF0805004490860BFF34F8FBFF35A
:102EA0006F8FF0E71408002004ED00E02DE9F041F9
:102EB00006460D4617469846069C0DB9246000E06C
:102EC0002760E66325640121204601F073F984F848
:102ED0004C80BDE8F0812DE9F05F82460E469046B9
:102EE0009B460A9F0C9C56B900BF502080F3118866
:102EF000BFF34F8FBFF36F8F00BF00BFFEE74FEAF6
:102F00008801A522206BFDF7B9FAA8F10100216B19
:102F100001EB800929F0070909F0070008B9012031
:102F200000E0002050B900BF502080F31188BFF3AB
:102F30004F8FBFF36F8F00BF00BFFEE7002507E094
:102F4000715D04F134004155705D00B902E06D1C03
:102F50000A2DF5D300BF00213D200155052F00D3D8
:102F60000427E762A7640020E064201D00F08DFCC8
:102F700004F1180000F089FC2461C7F10500A0618C
:102F800064620020206584F854005A465146484641
:102F900000F028FB20600B9808B10B980460BDE896
:102FA000F09F000010B5002407E004EB84010F4AF5
:102FB00002EB810000F05CFC641C052CF5D30C488E
:102FC00000F056FC0B4800F053FC0B4800F050FC9E
:102FD0000A4800F04DFC0A4800F04AFC0448094940
:102FE000086004480849086010BD0000140800206B
:102FF000780800208C080020A0080020B4080020D9
:10300000C8080020BC000020C000002010B5014608
:10301000164800E0006803688B42FBD30246436811
:1030200013448B4204D143684C68234443600146F7
:103030000A464B6813440468A34211D10C4C036840
:103040002468A34208D04B680468646823444B603A
:1030500003681B680B6005E0054B1B680B6001E013
:1030600003680B60884200D0016010BD0801002099
:10307000100100202DE9F04104460D4616461F467A
:103080004FF0000865602461B5420CD8F01BA169BF
:10309000884202D34FF0010811E0211D0948006861
:1030A00000F0F6FB0BE0BE4204D2BD4202D34FF06B
:1030B000010804E0211D0448006800F0E9FB4046D7
:1030C000BDE8F081F8000020F400002070B505464E
:1030D00000F004FCA86B08B9012400E0002400F013
:1030E00027FC204670BD70B5054600F0F7FBA86BC5
:1030F000E96B884201D1012400E0002400F018FCB3
:10310000204670BDF8B505460F4616480068C068F1
:10311000C468201D00F098FBE06901281DD1A0695A
:1031200041192B463A462046FFF7A4FFA8B10020DC
:1031300003462A4601460090204601F019FD064646
:1031400056B900BF502080F31188BFF34F8FBFF3F3
:103150006F8F00BF00BFFEE700BF2046616A88474F
:10316000F8BD0000F400002070B586B06AE0039856
:10317000002867DB059C606908B9012000E0002099
:1031800010B9201D00F060FB02A800F0BBF8054656
:1031900003980A2854D2DFE800F009050731334FBD
:1031A0000608323400BF00BF00BF00BF0498A26908
:1031B000811803462A462046FFF75CFFE8B1204607
:1031C000616A8847E069012817D1002000900498BF
:1031D000A169421800231946204601F0C9FC0646A1
:1031E00056B900BF502080F31188BFF34F8FBFF353
:1031F0006F8F00BF00BFFEE700BF22E000BF20E0EE
:1032000000BF0498A061A06908B1012000E000207F
:1032100050B900BF502080F31188BFF34F8FBFF328
:103220006F8F00BF00BFFEE7A06941192B462A46F9
:103230002046FFF71FFF04E0204600F097FB00E068
:1032400000BF00BF002203A90348006801F04EF947
:1032500000288CD106B070BDFC000020F8B50546F2
:103260000C4600F099FD684600F04CF806460098C0
:1032700020BB44B9B54206D801F0CCFB3146284604
:10328000FFF740FF1CE03CB10E480068006808B939
:10329000012000E000200446A91B22460A480068DD
:1032A00000F014FC01F0B6FB50B94FF08050074914
:1032B0000860BFF34F8FBFF36F8F01E001F0AAFBEF
:1032C000F8BD0000F8000020FC00002004ED00E044
:1032D0000A490968096809B9012100E0002121B102
:1032E0004FF0FF31064A116006E004490968C968D9
:1032F000C868034A4168116070470000BC000020A4
:10330000E800002070B5044601F02AFA0546074897
:103310000068854204D200F00BF80120206001E033
:103320000020206001480560284670BD040100208F
:103330002DE9F84332E024480068C0680568224857
:103340000068C068C468201D00F07EFA2046616AEB
:103350008847E069012821D1A0694619AE4207D902
:1033600066602461211D1848006800F091FA15E09C
:10337000002003462A4601460090204601F0F8FB53
:10338000074657B900BF502080F31188BFF34F8F15
:10339000BFF36F8F00BF00BFFEE700BF0A480068A1
:1033A000006808B9012000E000200028C3D00648CA
:1033B000D0F8008005480068034908600348C0F859
:1033C0000080BDE8F8830000F4000020F800002031
:1033D0000E480068401C08B9012000E0002050B9E8
:1033E00000BF502080F31188BFF34F8FBFF36F8F62
:1033F00000BF00BFFEE700BF502080F31188BFF37D
:103400004F8FBFF36F8F00BF00BFFEE7200100208A
:1034100008B500BF6846FFF7E3FC04462046009964
:10342000FFF71CFFFFF7A0FEF4E770B5044600F0BD
:1034300055FA94F9455010E0606A08B9012000E09F
:10344000002038B904F1240001F098FA18B100F016
:1034500017FC00E003E0681E45B2002DECDC00BF65
:10346000FF2084F8450000F063FA00F037FA94F981
:10347000445010E0206908B9012000E0002048B95C
:1034800004F1100001F07AFA08B100F0F9FB681EAF
:1034900045B200E001E0002DECDC00BFFF2084F825
:1034A000440000F045FA70BD2DE9F04104464FF0AC
:1034B000000800F071FC4648006808B9FFF7A4FC5A
:1034C00044480068204000286BD1D4B1083404F08F
:1034D0000700B0B104F00700C0F10800044404F094
:1034E000070008B9012000E0002050B900BF5020BB
:1034F00080F31188BFF34F8FBFF36F8F00BF00BF02
:10350000FEE7002C4DD034480068844249D8334E41
:103510003046056801E02E462D686868A04202D258
:1035200028680028F7D12A480068854239D03068D9
:1035300000F10808286830606868001B102819D955
:103540002F1907F0070008B9012000E0002050B94A
:1035500000BF502080F31188BFF34F8FBFF36F8FF0
:1035600000BF00BFFEE76868001B78606C603846EB
:10357000FFF74CFD184968680968081A1649086081
:103580000846006816490968884203D21248006854
:10359000134908600F49686809680843686000209B
:1035A000286001F037FA08F0070008B9012000E0B0
:1035B000002050B900BF502080F31188BFF34F8F17
:1035C000BFF36F8F00BF00BFFEE74046BDE8F0814C
:1035D000100100201C01002014010020080100201F
:1035E00018010020001F4FF080730360001F21F0BE
:1035F00001030360001F054B036014380260001FC5
:103600006FF002030360203870470000D1330008D8
:1036100030B585B004460D464FF400700090002090
:103620008DF808008DF8090008208DF80A00200A9E
:103630008DF80B00E1B28DF80C10290A8DF80D10F1
:10364000E9B28DF80E1000218DF80F108DF81010D2
:103650008DF811108DF8121069460248FDF765FAD1
:1036600005B030BD0064004010B50446174890ED29
:10367000000A84EDD20A164890ED000A04F2844054
:1036800080ED030A04F54F7104F52670FEF73AFF4A
:1036900004F2844104F57870FEF734FF94EDBF0A1C
:1036A00084ED570A04F5787090ED190A84ED800ACC
:1036B000B3EE0E0A04F5AE70FEF75EF9B3EE0E0A35
:1036C00004F50070FEF758F910BD000078000020E6
:1036D0007C0000201CB5044600F000F90020012108
:1036E00003468022CDE900100FA1124800F0F8FF38
:1036F0000020032103464FF48072CDE900100EA193
:10370000114800F0EDFF1148032100238022CDE98C
:1037100000100FA1114800F0E3FF1148006800F00D
:1037200029FA00F005F91CBD6C6564315F746173A2
:103730006B000000A9240008636F6E74726F6C5FE9
:103740007461736B00000000DD1F00089C00002006
:10375000766973696F6E5F7461736B00653F000813
:103760000000002010B5B420FEF7BCFDFEF73AFAC9
:10377000FEF7BEFBFEF75CF9FEF716F9FEF742FB1B
:1037800004210648FDF79AFC4FF42F70FEF7ECFD7C
:1037900010210248FDF792FC10BD0000001C024001
:1037A0000168B1F9041000EE101AB8EEC00A80EDFD
:1037B000060A01688968C1EB413102681288114428
:1037C0000268128B891A00EE101AB8EEC00ADFEDFB
:1037D0001C0A20EE200A80ED580A4168B1F9041055
:1037E00000EE101AB8EEC00A80ED2F0A4168896811
:1037F000C1EB41314268128811444268128B891A28
:1038000000EE101AB8EEC00ADFED0D0A20EE200A15
:1038100080ED810A0B4991ED000A80EDD30A91ED0C
:10382000020A00F2844181ED040A064991ED080A7A
:1038300080EDAA0A91ED090A80EDFC0A70470000AC
:103840000005A03ACC07002001460A69D1E9013001
:103850009860D1E9010358605068884201D18868B6
:103860005060002008611068401E106010687047AA
:1038700000F1080141604FF0FF31816000F1080163
:10388000C160016100210160704700210161704742
:1038900010B502460B685C1C0CB9106907E002F118
:1038A000080000E04068446824689C42FAD94468F3
:1038B0004C604C68A160886041600A611468641CB7
:1038C000146010BD42684A6093688B6093685960C9
:1038D0009160086103685B1C0360704700BF502063
:1038E00080F31188BFF34F8FBFF36F8F00BF0E4877
:1038F0000068401C0C49086008460068012812D185
:103900000A480068C0B208B9012000E0002050B9A0
:1039100000BF502080F31188BFF34F8FBFF36F8F2C
:1039200000BF00BFFEE770472001002004ED00E06B
:103930000D48006850B900BF502080F31188BFF3D4
:103940004F8FBFF36F8F00BF00BFFEE706480068D0
:10395000401E054908600846006820B9002080F331
:10396000118800BF00BF70472001002070B50646D7
:103970003546002E3FD0083D2C461F496068096837
:10398000084008B1012000E0002050B900BF5020DD
:1039900080F31188BFF34F8FBFF36F8F00BF00BF5D
:1039A000FEE7206808B9012000E0002050B900BF00
:1039B000502080F31188BFF34F8FBFF36F8F00BF8C
:1039C00000BFFEE70C4960680968084098B12068AC
:1039D00088B90949606809688843606000F0DCF9CB
:1039E0000649606809680844044908602046FFF7F2
:1039F0000DFB01F00FF870BD1C0100201401002028
:103A000000204FF0E02108618861064800684FF40B
:103A10007A71B0FBF1F0401E4FF0E02148610720C1
:103A2000086170471000002070B5FCF78BFC04465D
:103A3000102C16D304F1E02090F8F05315480078CC
:103A4000854201DB012000E0002050B900BF50207A
:103A500080F31188BFF34F8FBFF36F8F00BF00BF9C
:103A6000FEE70D48006800F4E0600C4909688842F0
:103A700001D8012000E0002050B900BF502080F3A1
:103A80001188BFF34F8FBFF36F8F00BF00BFFEE7FA
:103A900070BD0000240100200CED00E02801002092
:103AA000024600200BE0084B53F8303033B9064B88
:103AB00043F8301003EBC0035A6002E0401C0828B2
:103AC000F1D300BF70470000DC0800202DE9F04171
:103AD00005460E4617462C46FFF700FF94F94400B2
:103AE000401C10B9002084F8440094F94500401CA3
:103AF00010B9002084F84500FFF71AFFA06B28B921
:103B00003A46314604F1240000F0DCF82046FFF785
:103B10008CFCBDE8F081000070B504460025D4B1EE
:103B20001248006808B9012000E0002050B900BF29
:103B3000502080F31188BFF34F8FBFF36F8F00BF0A
:103B400000BFFEE700F028F900212046FEF7ECFF59
:103B500000F060FF05463DB94FF080500449086011
:103B6000BFF34F8FBFF36F8F70BD0000F0000020D8
:103B700004ED00E070B50546FFF7B0FE15B930481A
:103B8000006800E028460446201DFFF75DFE78B976
:103B9000E06A00EB80002B4951F8200040B994F80E
:103BA0002C1001208840284909688143264801607B
:103BB000A06A18B104F11800FFF746FE2348006818
:103BC000401C224908601E480068844209D1211D1A
:103BD0001F48FFF777FE1F480068401C1D4908601A
:103BE00009E01D480068401E1B4908602046FFF799
:103BF000EDF8FFF76DFBFFF79BFE18480068E8B192
:103C00000F480068844219D11548006808B901209E
:103C100000E0002050B900BF502080F31188BFF3AE
:103C20004F8FBFF36F8F00BF00BFFEE74FF0805094
:103C30000C490860BFF34F8FBFF36F8F70BD00005A
:103C4000B800002014080020D0000020E40000206C
:103C5000B4080020C4000020C8000020D4000020C8
:103C6000F000002004ED00E0034909680160034909
:103C70000968416070470000E0000020CC0000208F
:103C80000120014908607047DC00002070B504463F
:103C90000D4654B900BF502080F31188BFF34F8FF9
:103CA000BFF36F8F00BF00BFFEE705480168183102
:103CB0002046FFF7EDFD01212846FEF735FF70BDD8
:103CC000B800002070B505460E46144655B900BF31
:103CD000502080F31188BFF34F8FBFF36F8F00BF69
:103CE00000BFFEE70648016818312846FFF7EAFDE5
:103CF0000CB14FF0FF3621463046FEF715FF70BD80
:103D0000B80000201CB51D4800210B468222CDE9D9
:103D100000101BA11C4800F0E3FC0446012C02D15A
:103D200000F0FAFE0446012C15D100BF502080F3AC
:103D30001188BFF34F8FBFF36F8F00BF4FF0FF307D
:103D400012490860012012490860002011490860EA
:103D500000F034F910E0601C08B1012000E0002000
:103D600050B900BF502080F31188BFF34F8FBFF3CD
:103D70006F8F00BF00BFFEE71CBD0000EC000020FD
:103D800049444C4500000000852E0008E800002052
:103D9000D4000020CC00002002480068401C0149EB
:103DA00008607047F00000201D48006818B101202D
:103DB0001C49086032E000201A4908601A4800686F
:103DC000B0FA80F0C0F11F0101EB8100174A52F8F0
:103DD000200008B1012000E0002050B900BF5020B1
:103DE00080F31188BFF34F8FBFF36F8F00BF00BF09
:103DF000FEE701EB81020D4B03EB82004268526843
:103E0000426000F108024368934202D1426852685E
:103E100042604268D268064B1A6000BF70470000DB
:103E2000F0000020DC000020D0000020140800205A
:103E3000B8000020474890ED000A80ED010A90ED9F
:103E4000020A80ED030A444840794449C870424858
:103E5000007988704048C07848703F488078087082
:103E6000084690ED000A3B4880ED000A3A48407A47
:103E7000C8703948007A88703748C0794870364829
:103E800080790870084690ED000A324880ED020AF9
:103E900090ED000AD0ED010A30EE600AB5EEC00ADE
:103EA000F1EE10FA08D290ED000AD0ED010A30EEE2
:103EB000600AB1EE400A06E0264890ED000AD0ED17
:103EC000010A30EE600ADFED260AB4EEE00AF1EEF8
:103ED00010FA04DD1F4890ED010A80ED000A1D482C
:103EE00090ED020AD0ED030A30EE600AB5EEC00A8A
:103EF000F1EE10FA08D290ED020AD0ED030A30EE8E
:103F0000600AB1EE400A06E0124890ED020AD0EDD8
:103F1000030A30EE600ADFED120AB4EEE00AF1EEB9
:103F200010FA04DD0B4890ED030A80ED020A0948FF
:103F300090ED000AD0ED010A30EE600A80ED060A2D
:103F400090ED020AD0ED030A30EE600A80ED070A18
:103F500070470000CC07002082020020A000002053
:103F60000000C84222E0FFF765FF114890ED060A05
:103F7000104880ED000A0E4890ED070A0E4880EDCB
:103F8000000A0C48FEF75AFA0B48FEF757FA0948A0
:103F900090ED010A064880ED080A074890ED010AF5
:103FA000034880ED090A0F20FFF7B6FDDBE70000AC
:103FB000CC070020F4070020040800201CB552485C
:103FC00000685249884201D0012000E0002050B929
:103FD00000BF502080F31188BFF34F8FBFF36F8F66
:103FE00000BF00BFFEE7484800684849491E8842B4
:103FF00001D0012000E0002050B900BF502080F324
:104000001188BFF34F8FBFF36F8F00BF00BFFEE774
:104010003F49084600780190FF200A461070084684
:10402000007800909DF8000000F0F0009DF800205E
:10403000904201D1012000E0002050B900BF502083
:1040400080F31188BFF34F8FBFF36F8F00BF00BFA6
:10405000FEE79DF8000000F050002E4A1070072087
:104060002D4A106009E02C480068401E2A4A106062
:104070009DF800004006000E00909DF8000000F042
:1040800080008028EFD024480068C0F10700042891
:1040900001D1012000E0002050B900BF502080F382
:1040A0001188BFF34F8FBFF36F8F00BF00BFFEE7D4
:1040B000194800680002184A10601046008800F491
:1040C000E0601060124A019810700F4820300068BC
:1040D00040F470000C49203108600846006840F048
:1040E00070400860FFF78CFC00200C490860FCF76A
:1040F000F1F80B48006840F0404009490860FCF7BF
:10410000D5F800201CBD000000ED00E071C20F4199
:1041100000E400E02401002028010020200100200C
:1041200034EF00E010B500BF502080F31188BFF3DA
:104130004F8FBFF36F8F00BF00F018FB18B14FF027
:1041400080500449086000BF002080F3118800BF40
:1041500010BD000004ED00E02DE9F84305460E46D1
:1041600090460DB1012000E0002050B900BF502062
:1041700080F31188BFF34F8FBFF36F8F00BF00BF75
:10418000FEE70EB9002701E005FB06F707F1500036
:10419000FFF78AF904464CB1A14609F1500943469C
:1041A0004A46314628460094FEF780FE2046BDE888
:1041B000F883000070B505460E462C4654B900BF82
:1041C000502080F31188BFF34F8FBFF36F8F00BF74
:1041D00000BFFEE7FFF782FBD4E90F12206801FB66
:1041E0000200A0600020A06320686060E06B401EB9
:1041F000226C216800FB0211E160FF2084F844007A
:1042000084F845009EB9206908B9012000E000202B
:10421000A8B904F1100000F0B1FB80B14FF080505C
:1042200009490860BFF34F8FBFF36F8F07E004F1B8
:104230001000FFF71DFB04F12400FFF719FBFFF747
:1042400077FB012070BD000004ED00E02DE9FF4385
:1042500083B0064688461D464FF00009344654B9DF
:1042600000BF502080F31188BFF34F8FBFF36F8FD3
:1042700000BF00BFFEE7B8F1000F01D1206C08B904
:10428000012000E0002050B900BF502080F31188C9
:10429000BFF34F8FBFF36F8F00BF00BFFEE7022D4C
:1042A00002D1E06B012801D1012000E0002050B9CB
:1042B00000BF502080F31188BFF34F8FBFF36F8F83
:1042C00000BF00BFFEE700F03BFA08B9059808B947
:1042D000012000E0002050B900BF502080F3118879
:1042E000BFF34F8FBFF36F8F00BF00BFFEE700BF6C
:1042F000FFF7F4FAA06BE16B884201D3022D28D1BD
:104300002A4641462046FEF722FD0746606A08B964
:10431000012000E0002068B904F1240000F02EFB29
:1043200088B14FF0805032490860BFF34F8FBFF320
:104330006F8F08E03FB14FF080502D490860BFF308
:104340004F8FBFF36F8FFFF7F3FA012007B0BDE87F
:10435000F083059818B9FFF7EBFA0020F6E7B9F1FA
:10436000000F04D101A8FFF77FFC4FF00109FFF710
:10437000DFFAFFF711FDFFF7B1FA94F94400401C92
:1043800010B9002084F8440094F94500401C10B98D
:10439000002084F84500FFF7CBFA05A901A800F03A
:1043A00059F9F0B92046FEF79EFEA0B104F11000C5
:1043B0000599FFF76BFC2046FFF737F800F02AFB62
:1043C000002895D14FF0805009490860BFF34F8F06
:1043D000BFF36F8F8CE72046FFF727F800F01AFB3A
:1043E00086E72046FFF721F800F014FB0020ADE738
:1043F00004ED00E02DE9F05F07468A4690461E4630
:104400003C4654B900BF502080F31188BFF34F8F52
:10441000BFF36F8F00BF00BFFEE7BAF1000F01D1FD
:10442000206C08B9012000E0002050B900BF5020E6
:1044300080F31188BFF34F8FBFF36F8F00BF00BFB2
:10444000FEE7022E02D1E06B012801D1012000E03D
:10445000002050B900BF502080F31188BFF34F8F68
:10446000BFF36F8F00BF00BFFEE7FFF7DDFA00BFAD
:104470005021EFF3118081F31188BFF34F8FBFF309
:104480006F8F00BF0546A06BE16B884201D3022EFF
:1044900023D194F945B0324651462046FEF757FCE9
:1044A0000BF1010088B9606A08B9012000E0002022
:1044B00080B904F1240000F061FA58B1B8F1000F9E
:1044C00008D00120C8F8000004E00BF1010040B260
:1044D00084F845004FF0010901E04FF0000900BFEA
:1044E00085F3118800BF4846BDE8F09F2DE9F741EC
:1044F00083B005460E464FF000082C4654B900BF65
:10450000502080F31188BFF34F8FBFF36F8F00BF30
:1045100000BFFEE70EB9206C08B9012000E00020C2
:1045200050B900BF502080F31188BFF34F8FBFF305
:104530006F8F00BF00BFFEE700F002F908B90598D1
:1045400008B9012000E0002050B900BF502080F3DE
:104550001188BFF34F8FBFF36F8F00BF00BFFEE71F
:1045600000BFFFF7BBF9A76BF7B131462046FEF756
:10457000D9FB781EA063206908B9012000E0002063
:1045800060B904F1100000F0F9F938B14FF0805033
:104590002F490860BFF34F8FBFF36F8FFFF7C8F944
:1045A000012006B0BDE8F081059818B9FFF7C0F901
:1045B0000020F6E7B8F1000F04D101A8FFF754FB83
:1045C0004FF00108FFF7B4F9FFF7E6FBFFF786F9B4
:1045D00094F94400401C10B9002084F8440094F978
:1045E0004500401C10B9002084F84500FFF7A0F9F1
:1045F00005A901A800F02EF8F0B92046FEF766FDE7
:10460000A0B104F124000599FFF740FB2046FEF716
:104610000CFF00F0FFF90028A3D14FF080500C49A7
:104620000860BFF34F8FBFF36F8F9AE72046FEF706
:10463000FCFE00F0EFF994E72046FEF7F6FE00F0EE
:10464000E9F92046FEF742FD00288AD00020A8E7BD
:1046500004ED00E070B505460C4655B900BF50208A
:1046600080F31188BFF34F8FBFF36F8F00BF00BF80
:10467000FEE754B900BF502080F31188BFF34F8F7D
:10468000BFF36F8F00BF00BFFEE7FFF727F91248A7
:1046900002686868131A2068401C08B9002617E0F1
:1046A0000E4928680968884204D06868904201D899
:1046B00001260DE02068984207D92068C01A2060C2
:1046C0002846FFF7D1FA002602E0002020600126EC
:1046D000FFF72EF9304670BDCC000020E00000202E
:1046E0002DE9FF4F85B0804689461746DDE912ABBC
:1046F000B800FEF7D9FE064656B15820FEF7D4FEA4
:1047000004460CB1266304E03046FFF72FF900E0C1
:1047100000247CB10020CDE900ABCDE902403A464F
:1047200049464046089BFEF7D6FB2046FEF748FA6E
:10473000012501E04FF0FF35284609B0BDE8F08FB4
:104740000549096809B9012005E00449096809B962
:10475000022000E000207047D4000020F00000207C
:104760000149086870470000CC0000202DE9F041A5
:104770004FF0000844480068002877D1434800689B
:10478000451C4248056015BB41480068006808B9EF
:10479000012000E0002050B900BF502080F31188B4
:1047A000BFF34F8FBFF36F8F00BF00BFFEE73848E6
:1047B0000768384800683649086036480760364858
:1047C0000068401C34490860FEF782FD00BF334892
:1047D000006885423CD300BF2D480068006808B9D6
:1047E000012000E0002020B14FF0FF302B4908608D
:1047F0002DE027480068C068C4686668B54202D2E8
:104800002648066023E0201DFFF71EF8A06A18B1B5
:1048100004F11800FFF718F894F82C1001208840D4
:104820001F49096808431E490860E16A01EB8101DC
:104830001C4A02EB8100211DFFF744F81A49E06A87
:104840000968C96A8842C7D34FF00108C4E700BFAE
:1048500015480068C06A00EB8000124951F820003A
:10486000012801D94FF0010805E0FFE70F48006873
:10487000401C0E4908600E48006808B14FF001085E
:104880004046BDE8F0810000F0000020CC00002090
:10489000BC000020C0000020E0000020E800002054
:1048A000D000002014080020B8000020D80000200C
:1048B000DC00002070B505462C460026002D55D0A2
:1048C0002B480068844201D1012000E0002050B94B
:1048D00000BF502080F31188BFF34F8FBFF36F8F5D
:1048E00000BF00BFFEE7E06C50B900BF502080F36E
:1048F0001188BFF34F8FBFF36F8F00BF00BFFEE77C
:10490000E06C401EE064A16CE06A88422ED0E06C4E
:1049100060BB201DFEF798FF78B9E06A00EB8000CD
:10492000144951F8200040B994F82C100120884017
:1049300011490968814310480160A06CE062E06A97
:10494000C0F10500A06194F82C10012088400A49AC
:104950000968084308490860E16A01EB8101054ADA
:1049600002EB8100211DFEF7ADFF0126304670BD30
:10497000B800002014080020D000002070B50646C2
:10498000F068C46854B900BF502080F31188BFF3A9
:104990004F8FBFF36F8F00BF00BFFEE704F1180019
:1049A000FEF752FF15480068A8B9201DFEF74CFF1E
:1049B00094F82C10012088401149096808431049D7
:1049C0000860E16A01EB81010E4A02EB8100211DC2
:1049D000FEF778FF04E004F118010B48FEF772FFC0
:1049E0000A49E06A0968C96A884204D90125012098
:1049F0000749086000E00025284670BDF00000204F
:104A0000D000002014080020A0080020B8000020DA
:104A1000DC00002070B5002400263648006850B93C
:104A200000BF502080F31188BFF34F8FBFF36F8F0B
:104A300000BF00BFFEE7FEF751FF2E480068401E92
:104A40002C4908600846006800284FD12A480068B1
:104A500000284BD024E02948C068C46804F118003D
:104A6000FEF7F2FE201DFEF7EFFE94F82C10012059
:104A7000884023490968084321490860E16A01EB3D
:104A80008101204A02EB8100211DFEF71BFF1E4918
:104A9000E06A0968C96A884202D301201B4908609C
:104AA0001648006808B9012000E000200028D2D094
:104AB0000CB1FEF70DFC1648056865B100BFFFF7A5
:104AC00055FE10B10120114908606D1E002DF6D170
:104AD00000200F4908600D48006838B101263007F2
:104AE0000C490860BFF34F8FBFF36F8FFEF720FFB5
:104AF000304670BDF0000020C8000020A008002053
:104B0000D000002014080020B8000020DC000020A5
:104B1000D800002004ED00E01CB50024FEF7ACF83E
:104B20000E48006858B10E48022100234FF48272EB
:104B3000CDE900100BA10D48FFF7D2FD044654B992
:104B400000BF502080F31188BFF34F8FBFF36F8FEA
:104B500000BF00BFFEE720461CBD0000FC00002097
:104B600000010020546D7220537663001134000858
:104B70002DE9FE4304460D4616461F46DDF8288003
:104B80004FF0000954B900BF502080F31188BFF3E3
:104B90004F8FBFF36F8F00BF00BFFEE71448006860
:104BA00010B3009501960294062D15DAFFF7C8FDA3
:104BB000022808D10023424669460D480068FFF7E5
:104BC00045FB814610E000231A4669460848006804
:104BD000FFF73CFB814607E000233A46694604485C
:104BE0000068FFF707FC81464846BDE8FE830000E9
:104BF000FC0000204FF04070E1EE100A70470A0000
:104C00000A001E001E0000000000803F90A058BF58
:104C1000BF7D9D3DBF7D9D3D384C000800000020BC
:104C20002C010000E8010008804C00082C01002045
:104C30007C4801004402000801118495BA0AE00989
:104C400001020304060708096380400712A0410A15
:104C5000D7233D1B1842242AC02919240D15C15001
:104C60008D1724E3C8C21AC814612D3333333F04AF
:104C700001102990091494015A1AAA018100000018
:04000005080001AD41
:00000001FF
