:020000040800F2
:10000000E049012025030008972400088F240008F8
:1000100093240008E9150008EB2F000800000000F9
:100020000000000000000000000000006502000861
:100030002122000800000000C10200083528000845
:100040003F0300083F0300083F0300083F03000888
:100050003F0300083F03000825220008AD220008E6
:100060003F0300083F0300083F030008A51E0008E7
:100070003F0300083F0300083F0300083F03000858
:100080003F0300083F0300083F0300083116000843
:10009000ED1500083F0300083F0300083F03000878
:1000A0003F0300083F0300083F0300083F03000828
:1000B0003F0300083F0300083F0300083F03000818
:1000C0003F0300083F0300083F0300083F03000808
:1000D0003F0300083F0300083F030008E52B00082A
:1000E0003F0300083F0300083F0300083F030008E8
:1000F0003F0300083F0300083F0300083F030008D8
:100100003F0300083F0300083F0300083F030008C7
:100110003F0300083F0300083F0300083F030008B7
:100120003F0300083F0300083F0300083F030008A7
:100130003F0300083F0300083F0300083F03000897
:100140003F0300084D1600083F0300083F03000866
:100150003F0300083F030008CD1E0008A52C00083F
:100160003F0300083F0300083F0300083F03000867
:100170003F0300083F0300083F03000800000000A1
:100180003F0300083F0300083F030008792B0008E5
:100190003F0300083F0300083F0300083F03000837
:1001A00000000000000000003F03000800F002F81B
:1001B00000F049F80AA090E8000C82448344AAF1B8
:1001C0000107DA4501D100F03EF8AFF2090EBAE8B6
:1001D0000F0013F0010F18BFFB1A43F0010318477B
:1001E000A4780000C4780000103A24BF78C878C111
:1001F000FAD8520724BF30C830C144BF04680C602D
:10020000704700000023002400250026103A28BF74
:1002100078C1FBD8520728BF30C148BF0B60704778
:10022000662907F04483002070471FB507F035FBAF
:1002300000F0A0FC04000020002106F01BFEE0609E
:100240001FBD10B510BD00F099FD1146FFF7EDFF81
:1002500004F00AFA00F0B7FD03B4FFF7F2FF03BCA5
:1002600003F0C1FB2C4B19680868B0E8F04F80F32D
:100270000988BFF36F8F4FF0000080F3118870473B
:100280000000000008480068006880F308884FF00C
:10029000000080F3148862B661B6BFF34F8FBFF3DE
:1002A0006F8F00DF00BF00BF08ED00E0DFF80C003B
:1002B000016841F470010160704700BF88ED00E003
:1002C000EFF30980BFF36F8F134B1A681EF0100F06
:1002D00008BF20ED108A20E9F04F106009B44FF0FC
:1002E000500080F31188BFF34F8FBFF36F8F05F07D
:1002F0009FFE4FF0000080F3118809BC1968086860
:10030000B0E8F04F1EF0100F08BFB0EC108A80F379
:100310000988BFF36F8F704794000020EFF30580CA
:10032000704700000948804709480047FEE7FEE79C
:10033000FEE7FEE7FEE7FEE7FEE7FEE7FEE7FEE795
:1003400004480549054A064B704700004528000847
:10035000AD010008E0350120E0490120E045012021
:10036000E0450120704700000FB41CB5084B06AAF9
:100370007B4469460090059800F0E3FB04460020AA
:10038000694600F0F1FB20461CBC5DF814FB000040
:10039000F507000070B5044685690068C10601D5FF
:1003A000302600E02026C00707D070BDD4E9012127
:1003B00030469047206A401C20626D1EF6D570BD05
:1003C00070B5044685690078C00707D170BDD4E9CF
:1003D000012120209047206A401C20626D1EF6D526
:1003E00070BD00002DE9F05F894604464FF0000A19
:1003F000DFF874B1FB44C0F820A02046E1688847CC
:10040000002874D0252806D0D4E901219047206A1D
:10041000401C2062F1E700265F462046E1688847DD
:100420002028054607DB312D05D2781910F8200C5D
:1004300008B10643F1E7B00701D526F00406C4F879
:100440001CA00027C4F818A02A2D09D0284603F0C4
:10045000C3FA38B304EB8708303DC8F8185019E0E8
:1004600059F8041B204604EB87029161E168884734
:10047000012F054618D1E069002820DA26F0200671
:100480001DE0D8F8180000EB800005EB4000303884
:10049000C8F818002046E1688847054603F09CFA32
:1004A0000028EED1012F0AD02E2D08D12046E16878
:1004B00088477F1C0546022F46F02006C4DBA06952
:1004C000002803DA404246F00106A061F00701D09F
:1004D00026F010066C2D0BD0682D09D04C2D39D08C
:1004E0006A2D35D0742D35D07A2D33D016E038E012
:1004F000E1682F4620468847B842054609D16C2F4F
:1005000026D04FF48060E1680643204688470546C0
:1005100004E06C2F1AD04FF4807006430DB3A5F1A0
:100520004100192802D8203546F400664A4629467B
:10053000204626604E46FFF773FE80B101280BD09F
:10054000F61D26F0070000F1080956E74020E4E711
:100550008020D8E70020D6E706F104094DE72846B9
:1005600052E7206ABDE8F09FC2740000032A40F2FF
:10057000308010F0030C00F0158011F8013BBCF145
:10058000020F624498BF11F801CB00F8013B38BF5D
:1005900011F8013BA2F1040298BF00F801CB38BF6B
:1005A00000F8013B11F0030300F02580083AC0F089
:1005B000088051F8043B083A51F804CBA0E8081031
:1005C000F5E7121D5CBF51F8043B40F8043BAFF364
:1005D0000080D20724BF11F8013B11F801CB48BFBE
:1005E00011F8012B24BF00F8013B00F801CB48BFF4
:1005F00000F8012B704710B5203AC0F00B80B1E82D
:100600001850203AA0E81850B1E81850A0E8185047
:10061000BFF4F5AF5FEA027C24BFB1E81850A0E850
:10062000185044BF18C918C0BDE810405FEA827C6A
:1006300024BF51F8043B40F8043B08BF7047D20781
:1006400028BF31F8023B48BF11F8012B28BF20F822
:10065000023B48BF00F8012B704702F0FF0343EA5A
:10066000032242EA024200F002B84FF000020429DD
:10067000C0F0128010F0030C00F01B80CCF1040CD1
:10068000BCF1020F18BF00F8012BA8BF20F8022B05
:10069000A1EB0C0100F00DB85FEAC17C24BF00F8AB
:1006A000012B00F8012B48BF00F8012B70474FF0D9
:1006B000000200B5134694469646203922BFA0E8B2
:1006C0000C50A0E80C50B1F12001BFF4F7AF0907BE
:1006D00028BFA0E80C5048BF0CC05DF804EB8900AF
:1006E00028BF40F8042B08BF704748BF20F8022BF2
:1006F00011F0804F18BF00F8012B7047704770470A
:100700007047704710B500F039FA006810BD10B599
:10071000044600F033FA046010BD70472DE9FF4F26
:100720000C461E464FF0FF378BB0D2E90001DDF8D2
:1007300060800A908A46C1F30A5505B93D460021FA
:1007400008464FF00000BAF1000F00F4400005DA4F
:1007500000EB80004FF4400101EA50004FEA90594D
:10076000B9F1010F00DDB9460A9850EA4A000ED0EF
:1007700044F61050A5F2FF3545432F14B8F1000F91
:100780001ED07542291E1EDDC9F100021CE0B8F121
:10079000010F4FF0000001D0302103E0F24305E0EB
:1007A0002154401CB042FBDB304600220021215482
:1007B0000B99C1F80880C1E900200FB0BDE8F08FA7
:1007C000BD1B6D1CDEE74A4600DA694206A800F050
:1007D0005FFA06AB93E8070003AB83E807005046D7
:1007E0000A9900F039FB8DE80700A0F500501F388A
:1007F00000900398002D0ADD42F21F014A4608448A
:10080000002303A90390684600F0A2FD09E0A0F5CB
:1008100000504A461F38002303A90390684600F0A1
:10082000ACFD8DE807000004000C03D04FF0FF3052
:10083000410800E01046B8F1000F03D000220092FA
:1008400015461EE0751E05D400F09CF93032625545
:100850006D1EF9D5B3460122084302D000227F1C49
:1008600004E02078302801D100227F1E002A099759
:1008700084D01DE0112D07DA00F084F93032625582
:100880006D1C50EA0102F5D1084302D00098C8B1AE
:100890000EE00021681E05E0235C625C6354225474
:1008A000401E491C8142F7DBAB46A81B401E099045
:1008B000002004F80B000B98099AC0F80880C0E9E2
:1008C000002B7AE711264FF0000857E72DE9F04F8B
:1008D00088460446D21D22F0070191B0D1E90001FB
:1008E000CDE90A0102F083FB02460B98C00F01D04C
:1008F0002D2007E02068810701D52B2002E0202170
:1009000001EAC000032A099001D0072A05DB03464B
:100910004146204600F07CF90BE12078800601D5A5
:10092000E06900E00620B8F1650F814606D0B8F115
:10093000660F18D0B8F1670F70D131E00020B9F11F
:10094000110F009001DB112301E009F101030AAA54
:1009500001A90CA8FFF7E2FEDDE90C70002609F101
:100960000105834647E001204B4600904FF00047C9
:100970000AAA01A90CA8FFF7D1FEDDE90DB00C9978
:100980005D46002610B909F101000D18B9EB05000C
:1009900003D4C0F1FF3609F10105A5EB09002BE0F6
:1009A000B9F1010F01DA4FF001090020B9F1110F7F
:1009B0000090484601DD112300E003460AAA01A980
:1009C0000CA8FFF7ABFEDDE90C704D460026834610
:1009D000207800070AD4AB4500DA5D4601A8012D56
:1009E00004DD411911F8011C302907D04F4502DA06
:1009F00017F1040F04DA012082460FE06D1EEEE7C6
:100A0000002F02DCED1B3E4403E0781CA84200DD11
:100A10007D1CB81B00F1010A4FF000472078000749
:100A200003D4AA4501DB4FF0FF3A0021B7F1004F94
:100A30000DF143088DF8431024D002202B23002F02
:100A400001DA7F422D230A21021EA0F1010000DC01
:100A50005FB197FBF1FC97FBF1F201FB1C7C1746A1
:100A60000CF1300C08F801CDEEE7A8F1010003709D
:100A70002188090501D5452100E06521A0F1010883
:100A800000F8011C09980FA9A1EB0807FF1D00B190
:100A90000120411901EBEA70A1693844081A401E8F
:100AA000A0612078C00602D42046FFF773FC0998A5
:100AB00028B1D4E901219047206A401C20622078A7
:100AC000C00622D52046FFF765FC1EE0002E04DBA1
:100AD000B34502DD01A8805D00E03020D4E90121AA
:100AE0009047206A401C2062761CAAF101005FEA50
:100AF000000A0AD100F03EF8C0680168405CD4E901
:100B000001219047206A401C2062281EA5F10105A2
:100B1000DCDC07E0D4E9012118F8010B9047206ADA
:100B2000401C2062381EA7F10107F3DC2046FFF7C6
:100B300047FC032011B041E601694A1C02610878B4
:100B4000704700B58FB0CDE901310021059105490D
:100B50007944CDE9031011466846FFF743FC0FB016
:100B600000BD0000E5FFFFFF0A6802F8010B0A6004
:100B70007047000000487047A035012000487047CA
:100B80008035012030B5B0F10A024FEA900E71F1C4
:100B900000034EEA817EB0EB0E0061EB91014FEA5B
:100BA000101E4EEA017E10EB0E0041EB11114FEAD0
:100BB000102E4EEA016E10EB0E0041EB11214FEAB0
:100BC000104E4EEA014E10EB0E0041EB1141401861
:100BD00041F100014FEAD00040EA41704FEAD101F3
:100BE00010EB80054FEA810444EA907444EB010461
:100BF0006D1944EB0404521BA3414FF0000348BF9E
:100C00000A3200D530BD401C41F1000130BD00006A
:100C10002DE9F0411F46044603260168072A01F426
:100C2000006004DB08B116A505E016A503E008B1D5
:100C300015A500E015A521F010002060A069C01ED8
:100C4000A0610FB1401EA0612046FFF7A3FB4FB18A
:100C5000D4E9012138469047206A401C2062C01C1C
:100C6000206206E0206AFAE7D4E9012115F8010BB9
:100C70009047761EF8D22046FFF7A2FBBDE8F08130
:100C80004E414E006E616E00494E4600696E660030
:100C90002DE9F047814616468AB0354878440DC89C
:100CA0008DE80D0032487844801C03AC0DC884E800
:100CB0000D0041F69B300844372190FBF1F290FB88
:100CC000F1F5A5F1800501FB12041B3C02D564423D
:100CD000012000E00020DFF898A080460027FA44B9
:100CE000AAF1BE0A0EE0E0070AD03246684607EBDA
:100CF000470101230AEB810100F03FFB8DE807006B
:100D000064107F1C002CEED1194F7F44AE3F19E0D8
:100D1000E80715D007EB04100DF1180A90E80E0053
:100D20008AE80E00C068F04201D198190890324656
:100D3000012306A903A800F020FB03AB83E807000A
:100D40006D10641C002DE3D14FF00103324669465B
:100D5000B8F1000F03A802D000F0FAFA01E000F0A9
:100D60000CFBC9E90001C9F808200AB0BDE8F0870A
:100D7000CC6D000000487047803501207546FFF7B4
:100D8000F9FFAE4605006946534620F00700854648
:100D900018B020B5FFF7D4FABDE820404FF00006A8
:100DA0004FF000074FF000084FF0000B21F0070153
:100DB000AC46ACE8C009ACE8C009ACE8C009ACE896
:100DC000C0098D46704710B50446AFF30080204639
:100DD000BDE81040FFF740BA4FF0013C50F8042B3B
:100DE00051F8043B9A4221D1A2EB0C03934313EA3E
:100DF000CC1317D150F8042B51F8043B9A4215D16B
:100E0000A2EB0C03934313EACC130BD150F8042B41
:100E100051F8043B9A4209D1A2EB0C03934313EA25
:100E2000CC13DBD04FF00000704700BFD01A01BADE
:100E3000B1FA81F101F0180122FA01F0CB40C1F1C1
:100E40002001DBB2C0B2C01A2CFA01F3D11A9143CF
:100E500011EAC311E6D170475FEA400C08BF91F078
:100E6000000F4FEA8C234FEAC12243EA51514FEA67
:100E70001C5018BF00F5F0404FEA300018BF41F099
:100E800000415FEA6C5C00F02980BCF1FF3F08BFC5
:100E900040F080407047130C06BF12044FF0100C56
:100EA0004FF0000C130E04BF12020CF1080C130FCC
:100EB00004BF12010CF1040C930F04BF92000CF15B
:100EC000020CD30F04BF52000CF1010C11464FF07D
:100ED0000002A0F11F00A0EB0C00704711F0004FC2
:100EE00008BF704731F000413FF4D5AF0B0C06BF8F
:100EF00009044FF0100C4FF0000C0B0E04BF090258
:100F00000CF1080C0B0F04BF09010CF1040C8B0F42
:100F100004BF89000CF1020CCB0F04BF49000CF197
:100F2000010CCCF12003A0EB0C0022FA03F302FA2F
:100F30000CF241EA030100F10100704720F07F4C00
:100F400080EA030023F07F47ACEB070303F57C53F3
:100F500000F0004003F1FF032DE980494FEA154BF3
:100F600009B44FEA144325EA0B4E24EA03480FF272
:100F7000042606EB132749083E785FEA320203FB9A
:100F80000667C7F5000707FB06F64FEA54374FEA36
:100F9000D64606F1020607FB066CCCF1005C4FEA70
:100FA0001C472CEA074C07FB06F40CFB06F504EB88
:100FB00015464FEA961634BF00204FF000404FEA26
:100FC000D13706FB07FC4FEA1C4C0CFB0BF7D21B7E
:100FD00003FB0CF761EB07010CFB0EF7B0EB0740CE
:100FE00072EB17420CFB08F734BFA2EB0742B2EBDF
:100FF000074261EB17414FEA0C444FEA910706FBA9
:1010000007FC4FEA1C4C0CFB0BF7B0EBC74072EB34
:10101000573203FB0CF734BFA2EBC742B2EBC74217
:1010200061EB57310CFB0EF7B0EBC70072EB577258
:101030000CFB08F734BFA2EBC702B2EBC70261EBAF
:101040005771039F4FEA816141EA921104EBCC048E
:101050004FEAD1374FEA826206FB07FC42EA901260
:101060004FEA80604FEA1C4C0CFB0BF7D21B03FBD2
:101070000CF761EB07010CFB0EF7B0EB074072EBCE
:1010800017420CFB08F734BFA2EB0742B2EB074252
:1010900061EB17414FEA8C554FEA910704EB9C2412
:1010A00006FB07FC4FEA1C4C0CFB0BF7B0EBC740F0
:1010B00072EB573203FB0CF734BFA2EBC742B2EB23
:1010C000C74261EB57310CFB0EF7B0EBC70072EB78
:1010D00057720CFB08F734BFA2EBC702B2EBC70292
:1010E00061EB577115EB4C254FEA816141EA921192
:1010F0004FEA82624FEAD13742EA901206FB07FCC0
:1011000044F100044FEA80604FEA1C4C0CFB0BF7E3
:10111000D21B03FB0CF761EB07010CFB0EF7B0EBE6
:10112000074072EB17420CFB08F734BFA2EB0742F3
:10113000B2EB074261EB174115EB1C154FEA813109
:1011400041EA92414FEA823242EA90424FEA8030CD
:101150004FEA0C7644F1000448EA03434EEA0B4898
:101160004FF0000EB2EB080C71EB030724BF624690
:1011700039464EEB0E0E4FF0000B0018524149411C
:101180004BEB0B0BB2EB080C71EB03077BF1000B85
:1011900024BF624639464EEB0E0E4FF0000B00188E
:1011A000524149414BEB0B0BB2EB080C71EB0307BF
:1011B0007BF1000B24BF624639464EEB0E0E51EA1E
:1011C000020718BF46F0010616EB0E7655F1000235
:1011D00054F1000103D5BDE88901BDE80088BDE8F0
:1011E0008901BDE80048B619524141EB0101A3F164
:1011F0000103704780807F7E7D7C7B7A797877766B
:1012000076757473727171706F6E6E6D6C6C6B6AE3
:101210006A69686867666665646463636261616081
:10122000605F5F5E5E5D5D5C5C5B5B5A5A595958FE
:101230005857575656555555545453535252525168
:10124000515050504F4F4F4E4E4D4D4D4C4C4C4BBE
:101250004B4B4A4A4A494949484848474747474605
:101260004646454545444444444343434342424241
:1012700042414141002B9C4630D477002BD01CB515
:101280004FEA370703B44FF010004FF01001BAF1E6
:10129000000F06D0BCF1000FDCBF40F0080040F0AA
:1012A00008014FF000000FBCBDE810400BF1010B2E
:1012B000BBF1010F08BF5FEA170722BF12F101025D
:1012C00011F101014FF0004143F1000300F0004033
:1012D00043EA00007047F9D35708D0E746EA0646CC
:1012E00013F1400F4FEA16461FDD13F1200FDFBF49
:1012F00016430A46002120335B42BED0C3F12007CB
:1013000046EA064602FA07F74FEA164646EA070695
:10131000C3F1200722FA03F201FA07F721FA03F1D9
:101320004FF0000342EA0702A7E746EA020646EA50
:1013300006464FEA164646EA0106BCBF46EA06469E
:10134000360C4FF000034FF000024FF0000194E71D
:101350002DE9804C9A46934670B491E8380007C84E
:1013600031EA400C48BF34EA430C03D5FFF7E6FDF1
:10137000FFF780FFF0BCBDE8008C2DE9804C9A4659
:10138000934670B491E8380007C810F0804F08BF4A
:1013900013F0804F03D100F005F8FFF76BFFF0BCAE
:1013A000BDE8008C20F07F4780EA030023F07F4CEB
:1013B00007EB0C03A3F57C5300F00040A3F1FE0300
:1013C00092F0000F00F0B38095F0000F00F07780EE
:1013D0002DE901494FEA11404FEA144621EA00483D
:1013E00000FB06FC24EA064708FB06F607FB08F8A4
:1013F00000FB07F718EB06484CEB164C4FEA124B74
:1014000018EB07484FEA15464CEB174022EA0B4E03
:101410000BFB06FC25EA06470EFB06F607FB0EFE55
:101420000BFB07F71EEB064E4CEB164C4FF000067D
:101430001EEB074E4CEB174B18EB0B0840F100006E
:1014400018EB0E0B58EB000840F100008F1A4FF01C
:1014500000013CBFC943661B14BFB5EB040C00215F
:101460003CBFC943F61B4FEA17444EEA8E0E27EAEB
:1014700004454FEA1C4704FB07622CEA074C05FBB6
:1014800007F70CFB05F604FB0CFC16EB074642EBDA
:10149000174216EB0C4642EB1C421BEB060658EBC0
:1014A0000202414146EA9E0601D5BDE80189B6190E
:1014B000524141EB0101A3F10103BDE801894FEA6B
:1014C00014454FEA114724EA054621EA074C05FB7B
:1014D00007F406FB07F70CFB06F105FB0CFC11EB10
:1014E000074144EB17444FEA124711EB0C4144EB20
:1014F0001C4422EA074C05FB07F206FB07F70CFB2E
:1015000006F605FB0CFC16EB074642EB174216EB02
:101510000C4642EB1C456A1854F1000148BF704765
:10152000B619524141EB0101A3F10103704795F057
:10153000000F37D04FEA11424FEA144721EA024622
:1015400024EA074C02FB07F106FB07F70CFB06F445
:1015500002FB0CFC14EB074441EB17414FEA154723
:1015600014EB0C4441EB1C4125EA074C02FB07F548
:1015700006FB07F70CFB06F602FB0CFC16EB074616
:1015800045EB174516EB0C4645EB1C42121951F181
:10159000000148BF7047B619524141EB0101A3F168
:1015A000010370474FEA14454FEA114724EA054604
:1015B00021EA074C05FB07F106FB07F70CFB06F2D7
:1015C0004FF0000605FB0CFC12EB074241EB174104
:1015D00012EB0C4251EB1C4148BF7047921841EB93
:1015E0000101A3F10103704700BFFEE710B50C4AEB
:1015F00000210C4800F041FB09480068A0F20520DA
:1016000010B101280AD104E00549074802F07EFF25
:1016100004E00349054802F079FF00BF00BF10BD98
:101620001C01002000640040300100205401002013
:1016300010B50121044800F0FDF918B1012102485C
:1016400000F020F910BD00000064004010B5804A91
:101650000121804800F011FB7D480068A0F20140A4
:10166000002864D001287DD004285FD17848C07A52
:101670007949097860F30511774801707448C07A98
:1016800001097548007861F3430073490870084602
:101690000078C0F34200052822D2DFE800F00309F9
:1016A0000F151B009FED6D0A6B4880ED0D0A17E0CA
:1016B0009FED6B0A684880ED0D0A11E09FED690A05
:1016C000654880ED0D0A0BE09FED670A624880EDEA
:1016D0000D0A05E09FED650A5F4880ED0D0A00BF29
:1016E00000BF5D480078C0F3011030B101280AD076
:1016F00002280ED0032818D111E09FED5D0A56484C
:1017000080ED0E0A11E09FED5B0A534880ED0E0A52
:101710000BE09FED590A504880ED0E0A05E09FED61
:10172000570A4D4880ED0E0A00BF00BF8EE04A48C0
:10173000007800F00100B0B34548807A062833D124
:101740004348827A00F10B0143480830FEF70EFF50
:101750004148B0F9080000EE100AB8EEC00ADFED0B
:10176000480A00E069E020EE200A3B4880ED040AC8
:10177000B0F90A0000EE100AB8EEC00ADFED400A28
:1017800020EE200A344880ED050AB0F90C0000EE86
:10179000100AB8EEC00ADFED3A0A20EE200A2E4801
:1017A00080ED060A48E0FFE72B48007800F00100D2
:1017B000F0BB2748807A08283ED12548827A00F17C
:1017C0000B0125481C30FEF7D1FE2348B0F91C0060
:1017D00000EE100AB8EEC00ADFED290A20EE200A5A
:1017E0001D4880ED090AB0F91E0000EE100AB8EE9F
:1017F000C00ADFED230A20EE200A174880ED0A0A0E
:10180000B0F9200000EE100AB8EEC00ADFED1C0AA5
:1018100020EE200A104880ED0B0AB0F9220000EEFD
:10182000100AB8EEC00ADFED160A20EE200A00E02A
:1018300002E0094880ED0C0A08E0074804490B3132
:101840000A68C0F802208988C18000BF00BF10BDAF
:1018500008010020006800401C03002058A08B3ABB
:1018600058A00B3A58A08B3958A00B3958A08B3888
:10187000E7416B3A3333EB3A33336B3B3333EB3B78
:1018800017B7D138B1F5007F3AD00FDC202928D026
:1018900006DC01291CD004291DD0082940D11DE0F7
:1018A000402921D0B1F5807F3AD126E0B1F5004F33
:1018B00031D006DCB1F5806F25D0B1F5006F2FD1A6
:1018C00024E0B1F5803F12D0B1F5003F28D111E0FE
:1018D000154A826025E00822C26022E01022C26020
:1018E0001FE0082202611CE01022026119E00822B8
:1018F000426016E01022426013E00422426010E0D1
:10190000042242600DE0042242600AE0002282616B
:101910000422426005E0002282610422426000E06D
:1019200000BF00BF704700000101010010B5002199
:10193000837A012202FA03F13D4A126842F0010261
:101940003B4B1A603A4A1C3212688A43384B1C33AC
:101950001A60027BCAB9364A0C3212688A43344B89
:101960000C331A604288C38842EA0343304A40324B
:10197000847A42F834300288838842EA03432C4A4E
:101980004032847A02EBC4025360027B012A19D1EF
:10199000274A0C3212680A43254B0C331A604288DE
:1019A000038842EA0343224A4032847A42F83430C0
:1019B000C288838842EA03431D4A4032847A02EB9C
:1019C000C4025360C27A3AB9194A121D12688A4396
:1019D000174B1B1D1A6006E0154A121D12680A43B8
:1019E000134B1B1D1A60028932B9114A1432126856
:1019F0008A430F4B14331A600289012A06D10C4A1C
:101A0000143212680A430A4B14331A60427B012ACB
:101A100006D1074A1C3212680A43054B1C331A6070
:101A2000034A126822F00102014B1A6010BD000047
:101A30000066004070B504460D46002660692840E7
:101A4000002871D0B5F5807F5CD010DC082D35D032
:101A500006DC012D20D0022D24D0042D72D127E0E8
:101A6000102D31D0202D35D0402D6BD138E0B5F57B
:101A7000004F60D009DCB5F5007F49D0B5F5806F27
:101A80004CD0B5F5006F5DD14FE0B5F5803F2DD05E
:101A9000B5F5003F56D12FE0A0682D4900F0F8F9C8
:101AA000064651E0E068032100F0F2F906464BE0FB
:101AB000E068082100F0ECF9064645E0E0681021F6
:101AC00000F0E6F906463FE02069032100F0E0F966
:101AD000064639E02069082100F0DAF9064633E0CD
:101AE0002069102100F0D4F906462DE06068082135
:101AF00000F0CEF9064627E06068102100F0C8F932
:101B0000064621E0A069012100F0C2F906461BE06B
:101B1000A069022100F0BCF9064615E0A069042185
:101B200000F0B6F906460FE00FE0A069702100F062
:101B3000AFF9064608E06068042100F0A9F90646FE
:101B400002E0FFE7002600BF00E00026304670BD3F
:101B5000010101001AB143690B43436102E043698B
:101B60008B434361704730B5024600200023146860
:101B700024F002041460146844F00104146000E0CE
:101B80005B1C546804F001041CB94FF6FF74A342B7
:101B9000F6D1546804F001040CB900206CE08C7993
:101BA000012C04D1146844F08004146003E014682C
:101BB00024F080041460CC79012C04D1146844F022
:101BC0004004146003E0146824F0400414600C7AAC
:101BD000012C04D1146844F02004146003E014685C
:101BE00024F0200414604C7A012C04D1146844F0D1
:101BF0001004146003E0146824F0100414608C7A5C
:101C0000012C04D1146844F00804146003E0146843
:101C100024F008041460CC7A012C04D1146844F038
:101C20000404146003E0146824F0040414608C7845
:101C3000A407CD7844EA05640D7944EA05444D795A
:101C400044EA05540D886D1E2C43D461146824F0B9
:101C500001041460002300E05B1C546804F00104DC
:101C60001CB14FF6FF74A342F6D1546804F001048E
:101C70000CB1002000E0012030BD10B500F5D87394
:101C800003EB01131B6803F004031372137A53B9B7
:101C900000F5D87303EB01131B6840F2FF7404EAEC
:101CA0005353136009E000F5D87303EB01131B686D
:101CB0006FF0604404EAD303536000F5D87303EB7C
:101CC00001131B6803F00203537200F5D87303EB92
:101CD00001135B6803F00F03937200F5D87303EBF5
:101CE00001135B681B0AD37400F5D87303EB01136F
:101CF0009B68D37200F5D87303EB01139B681C0A31
:101D0000147300F5D87303EB01139B681C0C547318
:101D100000F5D87303EB01139B681B0E937300F55A
:101D2000D87303EB0113DB68D37300F5D87303EBAF
:101D30000113DB681C0A147400F5D87303EB01135C
:101D4000DB681C0C547400F5D87303EB0113DB68DB
:101D50001B0E937421B9C36843F02003C36003E0F2
:101D6000036943F02003036110BD10B50246002053
:101D7000936803F08063B3F1806F00D110E0936843
:101D800003F00063B3F1006F01D1012008E0936814
:101D900003F08053B3F1805F01D1022000E0042002
:101DA000042874D002F5C07303EB00131B6803F022
:101DB000010402F5C07303EB00131C600B7A7BB9BE
:101DC0004B7A0C8843EA445302F5C07404EB0014C8
:101DD0002468234302F5C07404EB0014236010E070
:101DE0000B7A4C6843EAC4034C7A234302F5C0746F
:101DF00004EB00142468234302F5C07404EB0014C0
:101E000023608B7A03F00F038B7202F5C07303EB30
:101E100000135B6823F00F0402F5C07303EB00139B
:101E20005C6002F5C07303EB00135B688C7A23439C
:101E300002F5C07404EB001463608B7B1C064B7BC3
:101E400044EA03440B7B44EA0323CC7A234302F5A0
:101E5000C07404EB0014A3608B7C1C064B7C44EA2A
:101E600003440B7C44EA0323CC7B234302F5C07478
:101E700004EB0014E36002F5C07303EB00131B686E
:101E800043F0010402F5C07303EB00131C6010BDA6
:101E90000246002002EA01030BB1012000E000200D
:101EA0007047000010B50749074800F03BF938B10A
:101EB0000449054800F034F80021034800F04AF8CE
:101EC00010BD0000208000101060024010B50549D0
:101ED000054800F005F920B14FF03D51024800F0EF
:101EE00005F810BD00800028B86402400246094B86
:101EF0009A4201D2084801E00648103801F0005328
:101F00001BB1064B0B40C36002E0044B0B408360E7
:101F10007047000010640240006002407D0F7D0F9A
:101F20000246094B9A4201D2084801E0064810389F
:101F300001F000531BB1064B0B40C36002E0044BA1
:101F40000B40836070470000106402400060024054
:101F50007D0F7D0F21B1026842F00102026003E0B3
:101F6000026822F00102026070470000016821F05F
:101F7000010101600021016041608160C160016177
:101F8000212141614A49884204D13D21484A103A01
:101F900091608CE046491831884205D14FF4746154
:101FA000434A103A916082E041493031884205D17C
:101FB0004FF474113E4A103A916078E03C49483140
:101FC000884205D14FF07461394A103A91606EE051
:101FD00037496031884204D13649354A103AD160D8
:101FE00065E033497831884204D13349304A103AA8
:101FF000D1605CE02E499031884204D12F492C4AAF
:10200000103AD16053E02A49A831884205D14FF0F7
:102010003D51274A103AD16049E02949884204D10C
:102020003D21274A083A116041E02549183188428C
:1020300005D14FF47461224A083A116037E0204913
:102040003031884205D14FF474111D4A083A1160AD
:102050002DE01B494831884205D14FF07461184A80
:10206000083A116023E016496031884204D11149D1
:10207000134A121F11601AE011497831884204D1C5
:102080000D490F4A121F116011E00D49903188422D
:1020900004D10A490A4A121F116008E00849A83110
:1020A000884204D14FF03D51054A121F116070471C
:1020B000106002403D000020400F002000003D2045
:1020C00010640240014600200A6802F001020AB1D1
:1020D000012000E0002070470146486880B2704748
:1020E00030B503460A46002000240B4DAB4201D216
:1020F0000A4901E00849103902F000550DB14C6859
:1021000000E00C68064D2C4004EA02050DB10120E8
:1021100000E0002030BD000010640240006002407A
:102120007D0F7D0F70B50246002000240025124E61
:10213000B24201D2114B01E00F4B103B104E0E404A
:1021400036B11E2606EAD124166806EA040502E026
:10215000566906F0800501F000560EB15C6800E09B
:102160001C68084E344004EA010616B10DB1012086
:1021700000E0002070BD00001064024000600240DA
:102180003C0F3C0F7D0F7D0F10B501F080034BB16C
:1021900022B1436943F08003436103E0436923F0C4
:1021A0008003436180290BD02AB1036801F01E042B
:1021B0002343036004E0036801F01E04A3430360AB
:1021C00010BD000010B500220268134B1A40CC6805
:1021D0000B6823434C6923438C692343CC69234315
:1021E0000C6A23434C6A23438C6A23434C6B23437E
:1021F0008C6B23431A430260426922F00702D1E943
:102200000B3423431A4342610B6943604B6883607C
:102210008B68C36010BD00003F801CF041607047B8
:102220007047000010B52DED068B00F00AF9164935
:1022300008600846008815490988401A00B2144908
:1022400008800846B0F9000005F097F841EC1A0B39
:1022500053EC1A2B9FED0F0B51EC100B04F006FF03
:102260009FED0E0B53EC102B05F0B2F804F024FE9A
:102270000C49086000200C490860012000F022F899
:10228000BDEC068B10BD00000C00002008000020F3
:1022900010000020CBA145B6F3FDB43F00000000C4
:1022A00080842E41140000200400002010B500F0AE
:1022B000C8F803490860022000F004F810BD0000CF
:1022C000080000200149086070470000143C0140EC
:1022D000002123498279002A3AD00A46126803680D
:1022E0009A430B461A600A1D126803689A430B1D35
:1022F0001A60027911440A6803681A430A60184A8E
:102300000832126803689A43154B08331A601A1D85
:10231000126803689A43124B0C331A604279102AF0
:102320000ED11A1F126803681A430D4B08331A6046
:102330001A1D126803681A43094B0C331A600DE02A
:102340000749427911440A6803681A430A6005E0A4
:10235000027911440A6803689A430A6070470000D2
:10236000003C0140F0B50A4600210023002400BFD4
:102370003DE0012505FA01F3156805EA03049C42D6
:1023800034D105684F000326BE40B543056015797A
:102390004E00B5400668354305601579012D02D021
:1023A0001579022D16D185684F000326BE40B5432E
:1023B000856055794E00B54086683543856045682F
:1023C00001268E40B5434560456896798E40B6B289
:1023D00035434560C5684F000326BE40B543C56020
:1023E000D5794E00B540C6683543C560491C1029F3
:1023F000BFD3F0BDF0B5002300244D07ED0E02FA67
:1024000005F3CE1000F1200555F826504E07F70EC3
:102410000F26BE40B543CF1000F1200646F82750E6
:10242000CE1000F1200555F8265045EA0304CE10E1
:1024300000F1200545F82640F0BD41837047018337
:1024400070472DE9F04704F0CBFA002504464FF021
:10245000E02040694FF0E0218969401A4FF47A7119
:1024600048434FF0E0214969B0FBF1F000214FF4FF
:102470007A7CA046A8FB0C2A05FB0CA304FB0133C5
:10248000861841EB030730463946BDE8F08700BFA8
:10249000FEE700BFFEE7704770B5002100230F2262
:1024A000C4781CB3174C246804F4E064C4F5E064F9
:1024B000C4F30721C1F10404E3B20A4144789C400B
:1024C000E1B28478144021430C07210E0E4C0578AC
:1024D0006155047804F01F050124AC4005786D11A6
:1024E000AD0005F1E025C5F8004109E0047804F0ED
:1024F0001F050124AC40054D0678761145F82640AD
:1025000070BD00000CED00E000E400E080E100E0C0
:1025100002490143024A1160704700000000FA05B9
:102520000CED00E029B1064A12680243044B1A6020
:1025300004E0034A12688243014B1A6070470000AE
:102540003038024029B1064A12680243044B1A602F
:1025500004E0034A12688243014B1A60704700008E
:102560004038024029B1064A12680243044B1A60FF
:1025700004E0034A12688243014B1A60704700006E
:102580002038024029B1064A12680243044B1A60FF
:1025900004E0034A12688243014B1A60704700004E
:1025A0004438024029B1064A12680243044B1A60BB
:1025B00004E0034A12688243014B1A60704700002E
:1025C00024380240F0B50021002200240225002614
:1025D0000223324F3F6807F00C0121B1042905D0D6
:1025E000082937D105E02E4F076036E02D4F0760F0
:1025F00033E02A4F3F1F3F68C7F38056274F3F1FE6
:102600003F6807F03F036EB1264FB7FBF3F7DFF8E3
:102610008CC0ACF1040CDCF800C0CCF3881C07FBC8
:102620000CF40CE01E4FB7FBF3F7DFF870C0ACF111
:10263000040CDCF800C0CCF3881C07FB0CF4174F2B
:102640003F1F3F68C7F301477F1C7D00B4FBF5F7D0
:10265000076002E0124F076000BF00BF0F4F3F68E6
:1026600007F0F0010909104F7A5C0768D74047600E
:102670000A4F3F6807F4E051890A0B4F7A5C4768BC
:10268000D7408760054F3F6807F46041490B064F0C
:102690007A5C4768D740C760F0BD00000838024048
:1026A0000024F400001BB7008400002030B5002295
:1026B0008B071C0F0F2303FA04F20B4B8C1053F8FB
:1026C00024309343084C8D1044F8253023468C1059
:1026D00053F824308C07240F00FA04F42343024CEF
:1026E0008D1044F8253030BD083801400CB500206D
:1026F000019000904148006840F480303F490860F4
:1027000000BF3E48006800F4003000900198401C73
:102710000190009818B90198B0F5A04FF1D1374851
:10272000006800F4003010B10120009001E00020AA
:1027300000900098012860D130484030006840F097
:1027400080502E49403108602D48006840F44040D8
:102750002B4908602948083000682849083108607A
:102760000846006840F4004008600846006840F4ED
:10277000A05008602348091F0860081F006840F047
:102780008070091F086000BF1C48006800F00070DE
:102790000028F9D01A48006840F4803018490860D1
:1027A00000BF1748406800F480300028F9D0144872
:1027B000006840F400301249086000BF10484068CB
:1027C00000F400300028F9D040F205700E4908608E
:1027D0000A480830006820F0030008490831086002
:1027E0000846006840F00200086000BF0348083057
:1027F000006800F00C000828F8D10CBD0038024039
:10280000007000400C5A4007003C0240042808D1E8
:102810004FF0E021096941F004014FF0E02211611D
:1028200007E04FF0E021096921F004014FF0E022B8
:102830001161704710B504F0C3F8012801D003F00E
:10284000B1FD10BD10B51548006840F47000134983
:1028500008601348006840F001001149086000203A
:102860000F49083108600E4800680E4908400C49BD
:1028700008600D48091D0860081F006820F48020CA
:10288000091F0860002006490C310860FFF72EFF81
:102890004FF0006001498039086010BD88ED00E00C
:1028A00000380240FFFFF6FE1030002421B10288FC
:1028B00042F08002028004E002884FF67F731A40E3
:1028C0000280704721B1028842F00102028004E0D8
:1028D00002884FF6FE731A400280704770B50024DC
:1028E00000220023058C4FF6FF6635400584028CDC
:1028F0008388848B4FF68F752C404FF6FC752C40E7
:102900000D882C434FF6FF552A408D894FF6FF76F0
:1029100006EA05252A434D8806EA05252A43154D72
:10292000A84202D0144DA8421DD14FF2FF752A4093
:10293000CD894FF6FF7606EA05252A434FF6FF3587
:102940002A408D8806EA05252A434EF6FF752B405E
:102950004DF6FF752B400D8A06EA05152B434D8A6F
:1029600006EA05152B43838084838D68C563028442
:1029700070BD000000000140000401400A46002133
:10298000818B4FF6F7731940114381837047000024
:1029900070B5002200230024058C4EF6FF763540EA
:1029A0000584038C8488828B48F6FF752A404FF695
:1029B000FF452A400D884FF6FF7606EA05252A4393
:1029C0004DF6FF752B408D8906EA05352B434D8862
:1029D00006EA05352B430A4DA84202D0094DA8420C
:1029E00008D14BF6FF752C400D8A4FF6FF7606EAAC
:1029F00085152C43848082838D680564038470BDB3
:102A000000000140000401400A460021818B4FF282
:102A1000FF7319404FF6FF7303EA022319438183C2
:102A20007047000000220288184B98420ED0184BC5
:102A300098420BD0B0F1804F08D0164B984205D089
:102A4000154B984202D0154B984204D14FF68F7324
:102A50001A404B881A43124B984207D0114B9842A8
:102A600004D04FF6FF431A400B891A4302804B688B
:102A7000C3620B880385054B984202D0044B9842F1
:102A800001D18B7A038601238382704700000140C5
:102A9000000401400004004000080040000C004019
:102AA000001000400014004010B52DED0E8BB0EE6C
:102AB000408A9FED2A0A28EE000A10EE101A0846F6
:102AC00004F07AFE41EC1D0BB0EE4D0AF0EE6D0AFB
:102AD00000F00AFBB0EE40CAF0EE60CA9FED200B9A
:102AE00053EC102B51EC1C0B04F072FC41EC1A0B54
:102AF0009FED1A0A28EE000A10EE101A084604F09C
:102B00005BFE41EC1E0BB0EE4E0AF0EE6E0A00F0DA
:102B100087FAB0EE40DAF0EE60DA9FED130B53EC7B
:102B2000102B51EC1D0B04F053FC41EC1C0B9FEDE2
:102B3000100B53EC102B04F049FD41EC1B0B53EC34
:102B40001A2B04F04FFD41EC190B04F0B5F908EE17
:102B5000900AB0EE680ABDEC0E8B10BD2A72883B5D
:102B600000000080147E5640000000A070ED584028
:102B7000000000A099B9624070B500BF40F2244146
:102B8000144800F073F920B300211348FFF7E2F96D
:102B900010480088C5B20F48001D0088C5B20E4815
:102BA000FFF79AFA0D490988081A84B200BF0A484B
:102BB000FFF788FA0028FAD1084801880648FFF78D
:102BC0002DFB07490448FFF791F901210248FFF75F
:102BD000C1F970BD007C0040A0600240B8780008D8
:102BE00000003D2010B540F225511D4800F03EF98F
:102BF00010B31B4800F0F4F9C4B21A48008800F47E
:102C00000040C8B91748008800F4804060B10A2C21
:102C100003D000201349088020E01248008840F4C7
:102C200000401049088019E00D2C06D10D4800889D
:102C300040F480400B49088010E00A480088C0F347
:102C40000D0009490C5407480088401C05490880BC
:102C500008460088C72801DD0020088010BD00005C
:102C600000480040380000207801002010B50446DC
:102C700000210B48FFF76EF900BF0948FFF722FA61
:102C80000028FAD121460648FFF7C8FA4FF03D5117
:102C90000348FFF72BF901210148FFF75BF910BD4D
:102CA000B864024070B500BF002440F224412048BF
:102CB00000F0DCF8002839D01D480088C5B21C4857
:102CC000001D0088C5B200211A48FFF743F91948D2
:102CD000FFF702FA18490988081A184908801648A7
:102CE00001881448FFF79AFA15491248FFF7FEF8D1
:102CF00005E01448005D14490855601CC4B20F4833
:102D000001880088401E0D4A10800029F1D120461C
:102D1000FFF7ACFF01210748FFF71CF90B480068DB
:102D200008B9012000E000200849086070BD0000DB
:102D30000014014040640240B278000818000020EE
:102D400000003D10400200207C020020900243421F
:102D500021B1828942F40052828104E082894DF6D9
:102D6000FF731A40828170471AB1838A0B438382B2
:102D700002E0838A8B4383827047000010B50446CB
:102D80003248844208D101211020FFF70BFC0021BA
:102D90001020FFF707FC57E02D48844209D101219C
:102DA0004804FFF7DFFB00214FF40030FFF7DAFBA8
:102DB0004AE02848844209D101218804FFF7D2FB68
:102DC00000214FF48020FFF7CDFB3DE022488442F4
:102DD00009D10121C804FFF7C5FB00214FF40020F1
:102DE000FFF7C0FB30E01D48844209D101210805EE
:102DF000FFF7B8FB00214FF48010FFF7B3FB23E08F
:102E00001748844208D101212020FFF7CBFB002185
:102E10002020FFF7C7FB17E01248844209D10121A7
:102E20008807FFF79FFB00214FF08040FFF79AFBD8
:102E30000AE00D48844207D101214005FFF792FBCB
:102E400000216005FFF78EFB10BD0000001001405F
:102E50000044004000480040004C0040005000404A
:102E60000014014000780040007C004070B502462C
:102E7000002400230025002040F66A16B14200D14C
:102E800000BFC1F3421501F01F03012606FA03F348
:102E9000012D02D19689334006E0022D02D1168A17
:102EA000334001E0968A33400C12012606FA04F4FE
:102EB0001688344013B10CB1012000E0002070BD31
:102EC000F0B50346002400260025002040F66A17CE
:102ED000B94200D100BF1846C1F3421401F01F06E9
:102EE000012707FA06F5012C01D10C3004E0022C71
:102EF00001D1103000E014301AB107682F43076089
:102F000002E00768AF430760F0BD00002DE9FF470E
:102F100005460E460024A14600BFA046B08900B178
:102F200000BF2C8A24F44054F08804432C82AC89DE
:102F300041F20C608443B0883189084371890843A9
:102F40000443AC81AC8A24F44074B0890443AC825D
:102F50006846FFF737FB2048854202D01F4885426C
:102F600002D1DDF80C9001E0DDF80890A88900F4AA
:102F7000004040B109EBC90000EB0910316849007D
:102F8000B0FBF1F707E009EBC90000EB091031686D
:102F90008900B0FBF1F76420B7FBF0F004012009D1
:102FA000642101FB1078A88900F4004040B1322070
:102FB00000EBC800B0FBF1F000F00700044308E0AC
:102FC000322000EB08106421B0FBF1F000F00F009C
:102FD00004432C81BDE8FF8700100140001401402C
:102FE00001468888C0F30800704700BFFEE703B4BD
:102FF00001984100009850EAC12018BF04204A0DF2
:1030000018BF40F0010040F2FF72B2EB515F08BF01
:1030100040F00200012808BF052002B07047000000
:1030200010B52F499FED2C1B2DED020B84B0059898
:1030300020F000408842D8BF9DED040B2DDD2949CA
:10304000884209D1049840B94FF00100FDF75FFBB9
:1030500000F0A2FC06B010BD05DB9DED040B00F0F6
:103060008FFC06B010BD68469DED040B00F0A0F883
:1030700010F0030004BF9DED021B9DED000B0CD072
:1030800001280ED09DED021B9DED000B022817D0EC
:10309000012000F0DDFB06B010BD00F0A5FA06B07F
:1030A00010BD9DED021B9DED000B012000F0D0FB3B
:1030B00051EC100B03F0F4FE06B041EC100B10BD08
:1030C00000F092FA51EC100B03F0EAFE06B041EC6E
:1030D000100B10BD00000000000000000000000008
:1030E000FB21E93F0000F07F10B52F499FED2C1B1D
:1030F0002DED020B84B0059820F000408842DCBF23
:1031000000209DED040B32DD2849884209D1049846
:1031100040B94FF00100FDF7FAFA00F03DFC06B0AF
:1031200010BD05DB9DED040B00F02AFC06B010BDC0
:1031300068469DED040B00F03BF810F0030011D041
:10314000012818D09DED021B9DED000B02281AD01E
:1031500000F04AFA51EC100B03F0A2FE06B041EC6D
:10316000100B10BD9DED021B9DED000B012000F02A
:103170006FFB06B010BD9DED021B9DED000B00F036
:1031800033FA06B010BD012000F062FB51EC100BC9
:1031900003F086FE06B041EC100B10BD00000000ED
:1031A0000000000000000000FB21E93F0000F07F6C
:1031B0002DE9F14F04462DED020B2DED088B8AB061
:1031C0009FEDE70B80ED020B139EE74826F00045CC
:1031D00085420ADC9DED120B002084ED000B0AB045
:1031E000BDEC088B03B0BDE8F08FE0489FEDE0AB8D
:1031F0009FEDE1BBA84247DDE14F9FEDE39B9FEDD3
:10320000E48B9DED120B53EC1A2B51EC100B002E9E
:103210001CDD04F0E7F941EC100BBD4208D053EC83
:103220001B2B51EC100B04F0DDF9C4E900010BE09D
:1032300053EC192B51EC100B04F0D4F953EC182B70
:1032400004F0D0F9C4E900010120C8E703F066FEEC
:1032500041EC100BBD4208D053EC1B2B51EC100B72
:1032600003F05CFEC4E900010BE053EC192B51ECB8
:10327000100B03F053FE53EC182B03F04FFEC4E980
:1032800000014FF0FF30AAE7C348A84279DB9DED6B
:10329000120B51EC100B01F07DF941EC180B9FED76
:1032A000C00B53EC102B04F093F89FEDBF1B53ECB5
:1032B000112B03F033FE04F031F8074604F05DF8FB
:1032C00041EC190B53EC1A2B04F082F853EC182B39
:1032D00004F07CF941EC180B53EC1B2B51EC190B4F
:1032E00004F076F8DFF8C8A241EC100B4FEA15584D
:1032F0000125FA4453EC102B51EC180B04F072F931
:10330000032DC4E900013DD0C1F30A5005EB45117E
:10331000A8EB00001139814234DA0AEB051BB0EE4C
:1033200048AA9BED000BF0EE68AA53EC102B51EC71
:10333000190B04F04DF841EC1B0B51EC1A0B53EC3C
:103340001B2B04F04FF941EC180B51EC1A0B53EC0A
:10335000182B04F047F953EC1B2B04F043F99BEDB9
:10336000020B41EC1A0B53EC102B51EC190B04F02F
:103370002FF853EC1A2B04F035F941EC100B6D1CAF
:10338000B8E70EE0002EA8BF3846BFF628AF94ED90
:10339000000B51EC100B03F083FDC4E900017842EF
:1033A0001DE7C6F3130040F4801EC6F30A50A0F2D6
:1033B000F530471100F01F05C5F12000DDF848B0D9
:1033C00008900020069007900520EC467949002DD2
:1033D00007EB0002794408BF51F8221009D051F8D8
:1033E000223001EB8201AB404A68089922FA01F1D0
:1033F0001943A1FB0E26A1FB0B131A449A4234BFBA
:103400000123002303EB06080CEB8003D3E901A69C
:103410000E448E4234BF0121002192448A4411B1EE
:10342000924502D903E0924501D2012100E000213A
:10343000C3E901A641444CF82010011EA0F101008F
:10344000C4DC029800F10050850F0298DDE90367A3
:103450008000DDF8148003F090FF41EC1A0B304639
:1034600003F0A2FF9FED541B53EC112B03F0B0FFB0
:1034700041EC1B0B384603F097FF9FED511B53ECBB
:10348000112B03F0A5FF41EC180B404603F08CFF15
:103490009FED4D1B53EC112B03F09AFF41EC190BE0
:1034A00051EC180B53EC192B03F038FD53EC1B2B8C
:1034B00003F034FD53EC1A2B03F030FDCDE9080185
:1034C000002008909DED080B53EC1A2B51EC100BCB
:1034D00004F088F853EC1B2B04F084F853EC182B01
:1034E00004F080F853EC192B04F070F89FED381BB2
:1034F00053EC112B03F06CFF9FED370B41EC180BD5
:1035000053EC102B9DED080B51EC100B03F060FFFA
:1035100053EC182B03F002FD9FED310B41EC180B1F
:1035200053EC102B9DED080B51EC100B03F050FFEA
:1035300053EC182B03F0F2FC41EC100B139810F035
:10354000004F06D06D4251EC100B03F0A9FC41EC8A
:10355000100B284684ED000B41E60000000000003F
:103560000000000000000000FB21E93F7CD9024080
:1035700000004054FB21F93F3163621A61B4D03D31
:10358000FB21F93F000000000000601A61B4D03D4B
:103590007370032E8A19A33BFB2139410000000000
:1035A00083C8C96D305FE43F000000000000E03FC9
:1035B0000A46000058450000000000000000103ED0
:1035C000000000000000103C000000000000103A65
:1035D000182D4454FB21F93D3326A611460B113C0E
:1035E00000000054FB21F93D10B52DED040B2DED2D
:1035F000088B82B0B0EE419AF0EE619A0B9820F001
:1036000000449FED4BABB4F1795F11DA9DED0A0BED
:1036100051EC100B03F082FE002801BFB0EE4A0A05
:10362000F0EE6A0A02B0BDEC088B04BF04B010BD16
:103630009DED0A0B53EC102B51EC100B03F0C8FE60
:1036400041EC180B3C480621B0EE480AF0EE680A3F
:10365000784400F081F853EC182B51EC100B03F078
:10366000B7FE9DED0A0B41EC1B0B53EC192B51ECF3
:10367000100B03F0ADFE41EC190B53EC1B2B51EC7E
:10368000180B03F0A5FE53EC192B03F0ABFF9FEDD5
:103690002C0B41EC190B53EC102B51EC180B03F0D5
:1036A00097FE41EC100B2848844210DA53EC192B9A
:1036B00051EC100B03F096FF53EC1A2B03F086FF2E
:1036C00041EC100B02B0BDEC088B04B010BD1F48DC
:1036D000A042BCBF9FED1E1B8DED001B06DBA4F5B9
:1036E00000100190002000909DED001B51EC100B8C
:1036F00053EC112B03F076FF9DED000B41EC180B02
:1037000053EC102B51EC1A0B03F06CFF41EC1A0B2D
:1037100053EC192B51EC180B03F064FF53EC1A2BEC
:1037200003F054FF41EC100BCCE700000000000058
:10373000000000000000F03F7C420000000000009C
:10374000000000000000E03F3333D33F0000E93FBA
:10375000000000000000D23F70B504462DED028B42
:103760004D1E00EBC500B0EE408AF0EE608A90ED91
:10377000000B35F0060017D053EC182B51EC100B52
:1037800003F026FE41EC100B6D1E04EBC50090ED1E
:10379000001B51EC100B53EC112B03F0BFFB41EC61
:1037A000100B35F00600E7D1022D36D0042D1CD0C9
:1037B000062D1CBFBDEC028B70BD53EC182B51ECD9
:1037C000100B03F005FE94ED0A1B53EC112B03F0D4
:1037D000A5FB53EC182B03F0FBFD94ED081B53ECF9
:1037E000112B03F09BFB41EC100B53EC182B51EC0D
:1037F000100B03F0EDFD94ED061B53EC112B03F0C1
:103800008DFB53EC182B03F0E3FD94ED040B53EC0C
:10381000102B03F083FB41EC100B53EC182B51ECF5
:10382000100B03F0D5FD94ED021B53EC112B03F0AC
:1038300075FB53EC182B03F0CBFD94ED001B53EC00
:10384000112B03F06BFBBDEC028B41EC100B70BD38
:1038500031B504462DED040B2DED0A8BB0EE41BAC7
:10386000F0EE61BA0B989DED0A0B20F00040B0F12C
:10387000795F0DDA51EC100BFFF7B9FB042808BF94
:1038800000F09AF89DED0A0BBDEC0A8B05B030BD37
:1038900053EC102B51EC100B03F09AFD41EC180B7C
:1038A0009DED0A0B53EC182B51EC100B03F090FD1F
:1038B00041EC190B2C48B0EE480AF0EE680A0521DD
:1038C0007844FFF749FF9FED2ACBB0EE40AAF0EE17
:1038D00060AA9CB353EC1C2B51EC190B03F078FD40
:1038E00041EC1C0B53EC1A2B51EC190B03F070FD3F
:1038F0009FED210B41EC190B53EC102B51EC1B0BE2
:1039000003F066FD53EC192B03F06CFE53EC182BFF
:1039100003F05EFD53EC1B2B03F064FE53EC1C2BF9
:1039200003F060FE9DED0A1B53EC112B03F04EFEDD
:10393000BDEC0A8B05B041EC100B30BDFFE753EC3A
:103940001A2B51EC180B03F043FD53EC1C2B03F026
:10395000E5FA53EC192B03F03BFD9DED0A1B53ECEC
:10396000112B03F0DBFAE3E7044100000000000044
:10397000495555555555C5BF000000000000E03FB2
:1039800010B553EC102B51EC100B03F0C7FA41ECBF
:10399000100B10BD000000009FED050B10B553EC9F
:1039A000102B51EC100B03F061FB41EC100B10BD20
:1039B00000000000000000009FED050B10B553EC67
:1039C000102B51EC100B03F003FD41EC100B10BD5C
:1039D000000000000000001030380A2801D2012049
:1039E00070470020704700BF7047D0ED000AF4EE2A
:1039F000C00AF1EE10FA01DD80ED000AD0ED000AF8
:103A0000B1EE401AF4EEC10AF1EE10FA03D2F1EE73
:103A1000400AC0ED000A704770B505460C46002606
:103A20000DB1022C00DC70BD601E81B2284600F092
:103A3000BDFD0646601E2E5400BFF4E70178A5299F
:103A400011D141782A4A11708178C27841EA022165
:103A500009B2274A51800179427941EA022109B22B
:103A6000234A118105E00178A62902D14178204A34
:103A700051701F49B1F9021000EE101AB8EEC00AD9
:103A8000F2EE040A80EE201A194981ED011AB1F90B
:103A90000810C82903DA0021154A118109E01449E8
:103AA000B1F90810B1F5967F03DD4FF49671104A15
:103AB00011810F4991ED010AFBEE0E0AB4EEE00A06
:103AC000F1EE10FA04D2BBEE0E0A81ED010A0DE010
:103AD000074991ED010AF3EE0E0AB4EEE00AF1EEA9
:103AE00010FA03DDB3EE0E0A81ED010A7047000003
:103AF000C004002000B587B001214806FEF722FD72
:103B000001218806FEF71EFD00208DF816008DF8B5
:103B1000170001208DF8180000208DF819008DF88D
:103B20001A008DF81B008DF812000520ADF810006A
:103B300001208DF8130004208DF8140002208DF868
:103B4000150004A92A48FEF70EF800208DF80A0097
:103B500001208DF80D000020ADF808008DF80C0054
:103B6000ADF80000ADF80200ADF80400ADF80600B5
:103B70008DF80B006846FDF7D9FE01208DF817007F
:103B800000208DF818008DF81A008DF816008DF8B9
:103B900019008DF81B008DF812000520ADF81000FB
:103BA00001208DF8130004208DF8140002208DF8F8
:103BB000150004A90F48FDF7D6FF0E208DF80A0066
:103BC00001208DF80D00ADF808008DF80C000020E4
:103BD000ADF80000ADF80200ADF80400ADF8060045
:103BE0008DF80B006846FDF7A1FE07B000BD000090
:103BF000006400400068004000B58FB00121480516
:103C0000FEF790FC01218805FEF78CFC5F48FEF76B
:103C1000ADF900BF5D48FEF755FA0028FAD14FF024
:103C2000206000905A4801905A480290402003902A
:103C30003C200490002005904FF480600690002006
:103C40000790089009904FF480300A9000200B9064
:103C500003200C9000200D900E9069464B48FEF713
:103C6000B1FA01214948FEF775F948487838FEF75E
:103C70007DF900BF45487838FEF724FA0028F9D1CD
:103C80003C2004904FF020600090002003900B90A7
:103C900003200C904048029000200D9008904FF4B3
:103CA00080600690002009903948019000200E9015
:103CB000079005904FF480300A9069463348783871
:103CC000FEF780FA012131487838FEF743F933488E
:103CD000FEF74CF900BF3148FEF7F4F90028FAD19D
:103CE0004FF0206000902E4801902E480290402016
:103CF00003901E200490002005904FF480600690F1
:103D000000200790089009904FF480300A9000201E
:103D10000B9003200C9000200D900E9069461F48D8
:103D2000FEF750FA1D489030FEF720F900BF1B48FF
:103D30009030FEF7C7F90028F9D11E2004904FF00B
:103D400020600090002003900B9003200C901648F8
:103D5000029000200D9008904FF4806006900020A3
:103D600009900F48019000200E90079005904FF4A5
:103D700080300A90694609489030FEF723FA012105
:103D800006489030FEF7E6F80FB000BDB864024078
:103D9000041401407C020020400200201060024018
:103DA000047C0040B8020020D60200201CB501218E
:103DB0000220FEF7B7FB01210820FEF7B3FB01212B
:103DC0001020FEF7AFFB01214020FEF7ABFB0121E5
:103DD0002020FEF7A7FB01210802FEF7A3FB01212B
:103DE0008020FEF79FFB01208DF8040000208DF855
:103DF00006004FF4BF70009001208DF807000320EB
:103E00008DF8050069468D48FEF7ACFA4FF4BF7196
:103E10008A48FEF714FB02208DF8040000208DF87C
:103E200006004FF48440009001208DF80700022026
:103E30008DF8050069468148FEF794FA08220921A9
:103E40007E48FEF7D7FA08220E217C48FEF7D2FA08
:103E50000320009002208DF8040000208DF8060059
:103E60008DF8070003208DF8050069467448FEF7B9
:103E700079FA082200217248FEF7BCFA08220121D3
:103E80006F48FEF7B7FA4FF47070009001208DF87C
:103E9000040000208DF8060003208DF805000120A5
:103EA0008DF8070069466748FEF75CFA4FF48071A9
:103EB0006448FEF7C2FA4FF430716248FEF7BFFA69
:103EC00002208DF8040000208DF806004FF4805089
:103ED000009000208DF8070003208DF8050069464A
:103EE0005948FEF73FFA02220C215748FEF782FAA2
:103EF00002208DF8040000208DF8060001200090BB
:103F000000208DF8070003208DF8050069464F4812
:103F1000FEF728FA022200214C48FEF76BFA032034
:103F2000009002208DF8040000208DF80600032088
:103F30008DF8050001208DF8070069464448FEF71A
:103F400011FA092200214248FEF754FA0922012100
:103F50003F48FEF74FFA02208DF8040000208DF84C
:103F600006004FF44050009001208DF80700032018
:103F70008DF8050069463748FEF7F4F909220C214F
:103F80003448FEF737FA09220D213248FEF732FA9B
:103F90003C20009001208DF8040000208DF80600E0
:103FA00003208DF8050002208DF807006946264899
:103FB000FEF7D8F93C212448FEF73FFA4FF4805031
:103FC000009001208DF8040000208DF806000320E9
:103FD0008DF8050002208DF8070069461C48FEF7A1
:103FE000C1F94FF480511A48FEF727FA01208DF8E5
:103FF000040000208DF806004FF4005000900120CE
:104000008DF8070003208DF8050069460B48FEF780
:10401000A9F94FF400510948FEF711FA0320009066
:1040200000208DF8040003208DF8050001208DF894
:10403000070069460848FEF795F91CBD00180240C4
:104040000010024000140240001C02400020024008
:10405000000C024000040240000002400EB50121A5
:104060008803FEF78FFA4FF44070FEF751FA4720AD
:104070008DF8080001208DF80B0009208DF809004B
:1040800000208DF80A0002A8FEF706FA012240F28D
:1040900024414D48FEF714FF46208DF8080001200A
:1040A0008DF80B0009208DF8090000208DF80A001A
:1040B00002A8FEF7F1F9012210214448FEF764F846
:1040C00053208DF8080003208DF8090001208DF899
:1040D0000B0002A8FEF7E0F9012240F224413C481F
:1040E000FEF7EEFE0B208DF8080001208DF80B0086
:1040F00008208DF8090002A8FEF7CEF935493648A8
:10410000FDF70EFF012210213348FEF73DF8142081
:104110008DF8080001208DF80B0009208DF80900AA
:1041200000208DF80A0002A8FEF7B6F9012202214C
:104130002A48FDF70FFD41208DF8080001208DF879
:104140000B000B208DF8090000208DF80A0002A852
:10415000FEF7A2F9012210212148FDF7FBFC002106
:104160000846FEF7A3FA01210020FEF79FFA03207C
:10417000009000208DF8040008208DF80500012033
:104180008DF806006846FEF7A3F806208DF80800B3
:1041900000208DF8090002208DF80A0001208DF81A
:1041A0000B0002A8FEF778F907208DF8080002201E
:1041B0008DF809008DF80A0001208DF80B0002A887
:1041C000FEF76AF90EBD000000140140B864024019
:1041D000007C004000800028106002400064004025
:1041E0000068004000B589B001210820FEF7AAF957
:1041F00001210220FEF7A6F90020ADF82000ADF85D
:104200001A0044F61F6007905920ADF8180006A95F
:104210001448FEF707FC6020ADF804000020ADF85C
:1042200010000120ADF806004FF4FA70039001A9C8
:104230000C48FEF753FB01A90A48FEF7A9FB082129
:104240000848FEF79BFB08210648FEF7DDFB01212D
:104250000448FEF72BFB01210248FEF733FB09B0AF
:1042600000BD0000000C00401FB501212020FEF71A
:1042700089F90121C807FEF765F94FF4165000903F
:104280000020ADF80C000C20ADF80A000020ADF8BD
:104290000800ADF80600ADF8040069461A48FEF7BC
:1042A00035FE012240211848FEF75EFD01228021E3
:1042B0001548FEF759FD01211348FEF749FD134843
:1042C000FEF75CFD4FF4E13000900020ADF80400F3
:1042D000ADF80600ADF80800ADF80C000C20ADF804
:1042E0000A0069460948FEF711FE012240210748ED
:1042F000FEF73AFD012280210448FEF735FD012139
:104300000248FEF725FD1FBD00140140007C00405F
:1043100040F2DC5001F044FD01F022FB82E0424813
:1043200001F000F8404801F099FB3F4801F0FAFA2B
:104330003D4AB2F95613B2F9540300F0C7FF3A48A8
:10434000407A012806D13848C079012802D00120DE
:104350003549487034484078012856D13248407970
:10436000012822D03048D0F86003401C2E49C1F803
:10437000600301202D49086000202D49C1F89802F2
:104380002948D0F8600341F2883188423DD10120AC
:104390002849086000202849C1F8940201202249D8
:1043A00048710020C1F860032FE01F4840790128C0
:1043B0002BD11D48D0F85C03401C1B49C1F85C039D
:1043C0000846D0F85C03B0F5FA6F09D1002019490E
:1043D000083108604FF480511848FEF730F814E0B7
:1043E0001148D0F85C0340F6B83188420DD1012065
:1043F00010490831086001031048FEF71EF800203C
:1044000009494870C1F85C0348710A480C380068D3
:1044100008B9012000E0002006490C39086001209D
:1044200001F0BEFC7BE70000CC04002094824342F4
:10443000000043429802434200804342000C024085
:1044400070B504460420FEF7E1F90C4804702546D7
:104450004FF47A7045430120094908804FF0E0206D
:10446000006940F002004FF0E02108610846456114
:10447000006940F00100086170BD000030000020BC
:104480003200002070B5044602F09AFA012810D0DC
:104490000B480088844206D309480088B4FBF0F535
:1044A000284601F07DFC06480088B4FBF0F100FBD3
:1044B00011444FF47A7104FB01F000F003F870BD71
:1044C0003200002070B5034600224FF0E0267569E7
:1044D0000D4E367803FB06F44FF0E026B16910E08C
:1044E0004FF0E026B06988420BD0884202D20E1A03
:1044F000324402E02E1A0E4432440146A24200D356
:1045000000E0EDE700BF70BD30000020028842806F
:104510000A7BCB7A42EA0322028002884388D21ABD
:10452000B2F5805F03DD8268521E826008E0028877
:104530004388D21A12F5805F02DA8268521C8260C8
:10454000028800EE102AB8EE400ADFED110A20EED4
:10455000200A80ED050A0388826803EB4232C260BC
:1045600090ED030AB8EEC00ADFED090A20EE200A3A
:1045700080ED040A8B7B4A7B43EA022212B28280DE
:104580000B7CCA7B43EA022212B2C2807047000051
:10459000A005343D82B0CDE9000121F0004001903A
:1045A0009DED000B02B051EC100B704710B50246A8
:1045B000002003E012F8014B2318D8B20B1EA1F122
:1045C0000104A1B2F6D110BD00487047540100208B
:1045D00000487047300100202DED028B9FED160A38
:1045E000B0EE408A4FF4FA7001F0DAFB22E0134893
:1045F000006808B9012000E000201049086000228E
:104600000F49032001F0B6FDB7EE000A38EE000AAC
:10461000B0EE408A9FED0B0AB4EE408AF1EE10FA3C
:1046200005D100F0F7FD9FED040AB0EE408A0520A9
:1046300001F0B6FBDBE70000000000008802434207
:1046400094050020000020420BE00648006808B9ED
:10465000012000E00020034908604FF4FA7001F0E7
:104660009FFBF2E7840243421CB501F03BF9642052
:10467000FFF708FF0648022100230A02CDE90010D7
:1046800004A1074802F06CF901F080FC00201CBD79
:104690000000002073746172745F7461736B0000BA
:1046A0003158000810B5029C1C30C467836701674D
:1046B000426700ED070A40ED060A00ED051A1C38B6
:1046C00010BD80ED000AC0ED010A80ED021A7047AE
:1046D0002DE9F0412DED048B82B004460D461646BF
:1046E0001F46B0EE408AF0EE608AB0EE419ADDF8E7
:1046F00030800C4844F89C0F0B486060CDF8008077
:1047000054F89CC9B0EE491AF0EE680AB0EE480AB7
:104710003B46324629462046E04702B0BDEC048BBA
:10472000BDE8F081A5460008C34600082DE9F04128
:1047300005460E461C4807681C480068001D01F02D
:10474000C7F950B91948006890F82C10012088402A
:1047500017490968814316480160681C38B936B1A9
:1047600012480168091D134801F0F0F91AE07C199C
:104770000E4800684460BC4207D20C480168091D1D
:104780000D48006801F0C8F90CE008480168091DEF
:104790000A48006801F0C0F909480068844201D263
:1047A00007480460BDE8F081A800002094000020C4
:1047B000AC000020040900209C000020980000208C
:1047C000C400002010B5044601F0CCF9244800686C
:1047D000401C234908602348006840B92148046010
:1047E0000846006801280DD100F0DEF90AE01E48F5
:1047F000006838B91B480068C06AE16A884201D87D
:104800001848046019480068401C184908600846A8
:104810000068206494F82C1001208840144909682D
:10482000084313490860E16A01EB8101114A02EB78
:104830008100211D01F08AF901F0BEF90A480068E3
:1048400068B108480068C06AE16A884207D24FF040
:10485000805009490860BFF34F8FBFF36F8F10BDC1
:10486000A400002094000020B0000020C000002020
:10487000AC0000205008002004ED00E010B501F06D
:1048800071F910480068D0B90F4801F035F90F48A8
:1048900001F032F90C480E4908600C480D490860D7
:1048A00000220C210A2001F097FD06490860084605
:1048B000006820B108A10348006801F035FA01F052
:1048C0007BF910BDD8000020580900206C09002099
:1048D000D0000020D4000020546D72510000000070
:1048E00010B516E001F03EF90C48C068C468201D00
:1048F00001F0EEF80A480068401E094908600948BE
:104900000068401E0749086001F056F9204600F093
:104910005FF8044800680028E4D110BDF0080020CA
:10492000A4000020A000002070B504460D46206CB5
:1049300070B1216CE0680144E160D4E90210884262
:1049400001D32168E1602846226CE168FBF70EFE86
:1049500070BD2DE9F04104460F4615464FF00008A2
:10496000A66B206C48B9206800282CD1A06802F002
:10497000E1F880460020A06025E07DB93946226C30
:104980006068FBF7F3FD216C606808446060D4E95F
:104990000101884217D32068606014E03946226C18
:1049A000E068FBF7E3FD216CE068411AE1602168F3
:1049B000E068884203D2216CA068411AE160022DB0
:1049C00001D106B1761E701CA0634046BDE8F0819F
:1049D00010B50446206B01F00DF9204601F00AF9EC
:1049E00010BD00000146084A126812680AB9012287
:1049F00000E000220A600A6822B9034A1268D268FD
:104A0000106800E000207047D000002030B54FF45F
:104A10009633174800F007042CB1C01D20F00700A2
:104A2000134C041B1B1B0246124C22600024114D28
:104A30006C60D018083820F007000F4C206000246C
:104A40000D4D2D686C600C4D2D682C601146441A7C
:104A50004C60094C24680C60084D4C682C60084D73
:104A60004C682C604FF00044064D2C6030BD0000B7
:104A700080090020E4000020EC000020F400002069
:104A8000F0000020F800002000BFFFF729FF0648D3
:104A900000680128F9D94FF0805004490860BFF33D
:104AA0004F8FBFF36F8FF0E75008002004ED00E058
:104AB0002DE9F04106460D4617469846069C0DB96D
:104AC000246000E02760E66325640121204601F0B0
:104AD000B1FC84F84C80BDE8F0812DE9F05F82469E
:104AE0000E4690469B460A9F0C9C56B900BF50202C
:104AF00080F31188BFF34F8FBFF36F8F00BF00BFEC
:104B0000FEE74FEA8801A522206BFBF7A6FDA8F17E
:104B10000100216B01EB800929F0070909F007006A
:104B200008B9012000E0002050B900BF502080F3F8
:104B30001188BFF34F8FBFF36F8F00BF00BFFEE739
:104B4000002507E0715D04F134004155705D00B946
:104B500002E06D1C0A2DF5D300BF00213D20015558
:104B6000052F00D30427E762A7640020E064201D1E
:104B700000F0CFFF04F1180000F0CBFF2461C7F173
:104B80000500A06164620020206584F854005A4644
:104B90005146484600F028FB20600B9808B10B985E
:104BA0000460BDE8F09F000010B5002407E004EBAE
:104BB00084010F4A02EB810000F09EFF641C052C6B
:104BC000F5D30C4800F098FF0B4800F095FF0B4818
:104BD00000F092FF0A4800F08FFF0A4800F08CFFB7
:104BE00004480949086004480849086010BD0000ED
:104BF00050080020B4080020C8080020DC0800206D
:104C0000F008002004090020980000209C000020EB
:104C100010B50146164800E0006803688B42FBD3DC
:104C20000246436813448B4204D143684C682344D2
:104C3000436001460A464B6813440468A34211D1FD
:104C40000C4C03682468A34208D04B68046864686D
:104C500023444B6003681B680B6005E0054B1B6831
:104C60000B6001E003680B60884200D0016010BD5A
:104C7000E4000020EC0000202DE9F04104460D4640
:104C800016461F464FF0000865602461B5420CD8F7
:104C9000F01BA169884202D34FF0010811E0211DE9
:104CA0000948006800F038FF0BE0BE4204D2BD4264
:104CB00002D34FF0010804E0211D0448006800F011
:104CC0002BFF4046BDE8F081D4000020D00000203A
:104CD00070B5054600F046FFA86B08B9012400E056
:104CE000002400F069FF204670BD70B5054600F055
:104CF00039FFA86BE96B884201D1012400E0002450
:104D000000F05AFF204670BDF8B505460F4616481C
:104D10000068C068C468201D00F0DAFEE069012860
:104D20001DD1A06941192B463A462046FFF7A4FF42
:104D3000A8B1002003462A4601460090204602F012
:104D400057F8064656B900BF502080F31188BFF3CC
:104D50004F8FBFF36F8F00BF00BFFEE700BF20463D
:104D6000616A8847F8BD0000D000002070B586B0A9
:104D70006AE00398002867DB059C606908B9012098
:104D800000E0002010B9201D00F0A2FE02A800F0F3
:104D9000BBF8054603980A2854D2DFE800F009055D
:104DA0000731334F0608323400BF00BF00BF00BFD9
:104DB0000498A269811803462A462046FFF75CFF43
:104DC000E8B12046616A8847E069012817D10020D0
:104DD00000900498A169421800231946204602F069
:104DE00007F8064656B900BF502080F31188BFF37C
:104DF0004F8FBFF36F8F00BF00BFFEE700BF22E001
:104E000000BF20E000BF0498A061A06908B10120A4
:104E100000E0002050B900BF502080F31188BFF39C
:104E20004F8FBFF36F8F00BF00BFFEE7A06941192E
:104E30002B462A462046FFF71FFF04E0204600F0DD
:104E4000D9FE00E000BF00BF002203A903480068AC
:104E500001F08CFC00288CD106B070BDD800002079
:104E6000F8B505460C4601F0DBF8684600F04CF852
:104E70000646009820BB44B9B54206D801F00AFFA7
:104E800031462846FFF740FF1CE03CB10E48006861
:104E9000006808B9012000E000200446A91B224652
:104EA0000A48006800F056FF01F0F4FE50B94FF0D8
:104EB000805007490860BFF34F8FBFF36F8F01E049
:104EC00001F0E8FEF8BD0000D4000020D80000206A
:104ED00004ED00E00A490968096809B9012100E008
:104EE000002121B14FF0FF31064A116006E004496C
:104EF0000968C968C868034A4168116070470000C2
:104F000098000020C400002070B5044601F068FD40
:104F1000054607480068854204D200F00BF80120DE
:104F2000206001E00020206001480560284670BD37
:104F3000E00000202DE9F84332E024480068C06812
:104F4000056822480068C068C468201D00F0C0FDE4
:104F50002046616A8847E069012821D1A069461985
:104F6000AE4207D966602461211D1848006800F030
:104F7000D3FD15E0002003462A4601460090204656
:104F800001F036FF074657B900BF502080F3118863
:104F9000BFF34F8FBFF36F8F00BF00BFFEE700BFAF
:104FA0000A480068006808B9012000E000200028D5
:104FB000C3D00648D0F8008005480068034908605F
:104FC0000348C0F80080BDE8F8830000D00000204E
:104FD000D40000200E480068401C08B9012000E001
:104FE000002050B900BF502080F31188BFF34F8FCD
:104FF000BFF36F8F00BF00BFFEE700BF502080F3FC
:105000001188BFF34F8FBFF36F8F00BF00BFFEE764
:10501000FC00002008B500BF6846FFF7E3FC04462B
:1050200020460099FFF71CFFFFF7A0FEF4E770B5DC
:10503000044600F097FD94F9455010E0606A08B905
:10504000012000E0002038B904F1240001F0D6FD71
:1050500018B100F059FF00E003E0681E45B2002DD2
:10506000ECDC00BFFF2084F8450000F0A5FD00F057
:1050700079FD94F9445010E0206908B9012000E05E
:10508000002048B904F1100001F0B8FD08B100F0AB
:105090003BFF681E45B200E001E0002DECDC00BFE4
:1050A000FF2084F8440000F087FD70BD2DE9F04139
:1050B00004464FF0000800F0B3FF4648006808B906
:1050C000FFF7A4FC44480068204000286BD1D4B10D
:1050D000083404F00700B0B104F00700C0F1080084
:1050E000044404F0070008B9012000E0002050B992
:1050F00000BF502080F31188BFF34F8FBFF36F8F35
:1051000000BF00BFFEE7002C4DD034480068844249
:1051100049D8334E3046056801E02E462D68686850
:10512000A04202D228680028F7D12A4800688542A8
:1051300039D0306800F10808286830606868001BC2
:10514000102819D92F1907F0070008B9012000E02D
:10515000002050B900BF502080F31188BFF34F8F5B
:10516000BFF36F8F00BF00BFFEE76868001B786069
:105170006C603846FFF74CFD184968680968081AE2
:10518000164908600846006816490968884203D233
:1051900012480068134908600F49686809680843A5
:1051A00068600020286001F075FD08F0070008B96C
:1051B000012000E0002050B900BF502080F311888A
:1051C000BFF34F8FBFF36F8F00BF00BFFEE74046B6
:1051D000BDE8F081EC000020F8000020F000002085
:1051E000E4000020F4000020001F4FF080730360F3
:1051F000001F21F001030360001F054B03601438FA
:105200000260001F6FF00203036020387047000047
:10521000D54F000810B52DED028B00242148006801
:1052200002F0CAFA41EC180B53EC182B1EA12448CB
:10523000FBF79AF800BF0BE02148005D222805D15A
:10524000601E1F49085C3D2800D003E0601CC4B20A
:10525000322CF1DB00BFFF21194A601C1154A01C45
:105260001154E01C115400211648FCF773FE00BFD6
:105270001448FCF727FF0028FAD14FF03D511148A0
:10528000FCF734FE10490F48FCF74AFE211D0D487B
:10529000FCF7C4FF01210B48FCF75CFEBDEC028B60
:1052A00010BD00001400002070616765302E74335B
:1052B0002E7478743D2225362E32662200000000BE
:1052C0007C020020B864024000F040AF30B585B0E9
:1052D00004460D4640F2FF10009000208DF80800B3
:1052E0008DF8090008208DF80A00200A8DF80B00BF
:1052F000E1B28DF80C10290A8DF80D10E9B28DF885
:105300000E1000218DF80F108DF810108DF811106F
:105310008DF8121069460248FCF727FD05B030BD34
:105320000064004010B50446207AA071E34800787C
:105330002072207A01280BD1A079012808D09FED96
:10534000E00A84ED830A9FEDDF0A84ED310AB3E1C0
:10535000207A02282DD1A07902282AD0D748B0F986
:10536000080000EE100AB8EEC00A84EDD30AD4EDAE
:10537000D30AB0EE600AFDF797FBD34880ED000A30
:105380009FEDD00AD14880ED000A94ED830AD0ED5C
:10539000000A30EE600A84ED830A94ED310ACA48AF
:1053A000D0ED000A30EE600A84ED310A0120607011
:1053B00082E1207A032831D1A07903282ED0BF487A
:1053C00090ED010A84EDD40AB0F9080000EE100A4D
:1053D000B8EEC00A84EDD30AD4EDD30AB0EE600A69
:1053E000FDF762FBB84880ED000A94EDD40AB74897
:1053F00080ED000A94ED830AD0ED000A30EE600AD9
:1054000084ED830A94ED310AAF48D0ED000A30EE06
:10541000600A84ED310A012060704DE1207A042891
:1054200059D1AB4890ED000A84ED830AD4EDD20A3D
:10543000B0EE600AFDF738FBDFEDA20A30EEC00ADD
:1054400084ED310AA34890ED310AD0ED320A30EEF6
:10545000600AB5EEC00AF1EE10FA08D290ED310AFA
:10546000D0ED320A30EE600AB1EE400A06E099480B
:1054700090ED310AD0ED320A30EE600AF6EE000A05
:10548000B4EEE00AF1EE10FA92D2924890ED830A5F
:10549000D0ED840A30EE600AB5EEC00AF1EE10FAE3
:1054A00008D290ED830AD0ED840A30EE600AB1EEA6
:1054B000400A06E0874890ED830AD0ED840A30EE7A
:1054C000600AF6EE000AB4EEE00AF1EE10FAA4D299
:1054D00001206070F0E0207A05289ED1D4F86403A2
:1054E000401CC4F864037B484079012821D07948E6
:1054F000D0F86003401C7749C1F860030120764969
:10550000086000207549C1F898027248D0F860031D
:1055100041F2883188420CD1012071490860002095
:105520007049C1F8940201206A4948710020C1F80D
:105530006003E07860B994EDD90AF8EE400A9FED77
:105540006A1ABBEE0E0A01EE200A84ED310A0EE063
:10555000E07801280BD194EDD90AF8EE400A9FEDCE
:10556000621AB3EE0E0A01EE600A84ED310A94ED80
:10557000310AF3EE0E0A30EE600AB5EEC00AF1EE23
:1055800010FA08D294ED310AF3EE0E0A30EE600AFA
:10559000B1EE400A05E094ED310AF3EE0E0A30EE6A
:1055A000600ADFED520AB4EEE00AF1EE10FA02D220
:1055B0000120E07022E094ED310AF3EE0E0A30EEA5
:1055C000200AB5EEC00AF1EE10FA08D294ED310AC5
:1055D000F3EE0E0A30EE200AB1EE400A05E094ED3B
:1055E000310AF3EE0E0A30EE200ADFED400AB4EE87
:1055F000E00AF1EE10FA01D20020E0709FED3C0AC3
:1056000084ED830A94ED310A3148D0ED000A30EE82
:10561000600AB5EEC00AF1EE10FA08D294ED310A34
:10562000D0ED000A30EE600AB1EE400A06E094EDDB
:10563000310A2748D0ED000A30EE600AF7EE000A82
:10564000B4EEE00AF1EE10FA2DD22248407901289A
:1056500029D12048D0F85C03401C1E49C1F85C03E6
:105660000846D0F85C03C82809D100201C4908313D
:1056700008604FF480511F48FCF7E1FE13E0154825
:10568000D0F85C03B0F5487F0DD1012014490831F2
:10569000086001031748FCF7D0FE00200D49487050
:1056A000C1F85C03487140F6C411D4F86403884221
:1056B00002D10020C4F8640310BD0000C004002023
:1056C00000004842000000007C0000208000002014
:1056D000A0040020CC0400209482434200004342F6
:1056E0009802434200804342A69BC43C0AD7233C15
:1056F0000000E441000C024000B50146D1F88C00E6
:1057000003287DD191ED030AD1ED040A30EE600A41
:1057100081ED070A91ED000AD1ED070A20EE200A7B
:1057200081ED080A91ED090AD1ED010A91ED071A00
:1057300000EE810A81ED090A91ED070AB5EEC00A73
:10574000F1EE10FA04D291ED070AB1EE400A01E041
:1057500091ED070AB5EEC00AF1EE10FA1DD091EDF9
:10576000070AB5EEC00AF1EE10FA04D291ED070A6D
:10577000B1EE400A01E091ED070AD1ED1E0AB4EE48
:10578000E00AF1EE10FA04DD9FED280A81ED210A0E
:1057900003E0B7EE000A81ED210AD1ED260AF8EE0A
:1057A000600AB0EE600A01F12400FEF71EF991EDE7
:1057B000020AD1ED140AB7EE001A71EE600A20EE6B
:1057C000200AD1ED070A91ED061A70EEC10A20EE0B
:1057D000200AD1ED140A91ED0B1A00EE810A81ED39
:1057E0000C0A91ED080AD1ED210A91ED091A00EE9B
:1057F000810AD1ED0C0A30EE200A81ED190A00E091
:1058000011E0D1ED250AF8EE600AB0EE600A01F170
:105810006400FEF7EAF891ED070A81ED060A91EDC2
:105820000C0A81ED0B0A91ED190A00BD0000000081
:105830001CB5044600F096F90020012103468022A1
:10584000CDE9001014A1174801F08AF800200121C9
:1058500003460A02CDE9001013A1164801F080F8B2
:10586000002002210346CA01CDE9001012A116480A
:1058700001F076F81548032100238022CDE90010BD
:1058800013A1164801F06CF81548006800F0B6FA4C
:1058900000F092F91CBD00006C6564315F746173A7
:1058A0006B00000049460008696D755F7461736B99
:1058B00000000000D9450008636F6E74726F6C5F62
:1058C0007461736B00000000114300083C0000206D
:1058D000766973696F6E5F7461736B00256200088F
:1058E0000000002010B5B420FEF7AAFDFEF75EFA16
:1058F000FEF7BAFCFEF780F9FEF774FCFEF7FAF843
:10590000FEF7ACFB04210648FCF799FD4FF42F701D
:10591000FEF7D8FD10210248FCF791FD10BD0000F4
:10592000001C024010B5044604F1B800FFF7E4FE85
:1059300004F50070FFF7E0FE94ED470ABDEEC00AE3
:1059400010EE100A00B2A4F8540394ED990ABDEECB
:10595000C00A10EE100A00B2A4F8560310BD0000F1
:1059600008B542F210709FED341AF1EE040A9FED73
:10597000330A43000222032100903148FEF7A8FEBB
:1059800000209FED301ADFED2C0A9FED2F0A4FF417
:1059900096530222032100902948A430FEF798FE76
:1059A00042F210709FED241AF0EE080A9FED230AD0
:1059B00043000222032100902448FEF789FE4FF4A1
:1059C000FA609FED231ADFED1C0A9FED1F0A41F2DA
:1059D00088330222032100901C48A430FEF778FE91
:1059E00000209FED151ADFED140AB7EE000A1E2302
:1059F0000246032100901748FEF76AFEB6EE000A41
:105A00000F48143880ED420AB6EE000A80ED940A81
:105A1000FEF7DEFD0A491439C860FEF7D5FD0849D6
:105A2000143908619FED040A084680ED310A9FEDA4
:105A30000A0A80ED830A08BD000000000000A042B1
:105A4000E004002000803B450000164328060020AB
:105A500000409C457007002000004842C168B1F931
:105A6000041000EE101AB8EEC00A80ED090AC168F1
:105A700091ED040ADFED130A30EE600A80ED320A80
:105A80000169B1F9041000EE101AB8EEC00A80EDF9
:105A90005B0A016991ED040A80ED840A0A4991EDDF
:105AA000020AF2EE040A80EE201A80EDD21A417A40
:105AB000C171064949784172034991ED000A80EDB0
:105AC000AD0A70470000E042A0040020C00400209E
:105AD00001460A69D1E901309860D1E901035860B3
